:020000040000FA
:060000000201070222DEEE
:03002B0002272089
:030033000227029F
:0300530002235431
:03005B0002277504
:0300630002274031
:03006B000226DC8E
:1000830002213BE5C754F84401F5C779012200007A
:100093000080FB120086B900030200F1E4792178A5
:1000A30008B800028004F709D8FCE479297802B87B
:1000B30000028004F709D8FCE490028178A6791342
:1000C3008002F0A3D8FCD9FA7A267B159001377801
:1000D300D379038015E493A3AD82AE838A828B83A5
:1000E300F0A3AA82AB838D828E83D8E9D9E7758288
:1000F3003F7583AA74031201197582917583007485
:100103000012011975D00075813F751881751902A8
:10011300759F00020096C09FF59FE473D09F22D085
:1001230083D082C09FE493C0E0740193C0E0740263
:1001330093F59F22FF0000B4000028002800283018
:1001430075A000A000A000A00000080008E001F0D6
:10015300001000100010001000100010005000509C
:1001630000500010001000D0070000000000000F36
:100173000001000500307507001000010081FF0039
:10018300000000FFFFFF1F063D0625066106FF0274
:10019300020208025000A0000000E80302B6820138
:1001A30000009D8202B082010000811502AC820131
:1001B3000000BF0202B082010000821502A8820182
:1001C3000000D50202B082010000831502A682015D
:1001D3000000D70202B082010000841502AE82083B
:1001E3000000D80202B082010000851502B282012C
:1001F30000008615FF0100FF2002B682010000A364
:100203008202B082010000EA1502BE8200000000F3
:100213000002BC8203000006031700BB0CBB0CBB2F
:100223000CBB0CBB0CBB0CBB0CBB0CBB0CBB0CBB93
:100233000CBB0CBB0C610F730F5B0F0202020202BB
:1002430002020202010D000000100102B682010049
:10025300009A8202B0820100002D1602D2820100B0
:1002630000460702B0820100002E1602D082010070
:10027300006B8102B0820100002F1602CE820100C2
:10028300004F8102B082010000301602CC820100CF
:1002930000BB8002B082010000311602CA82010055
:1002A30000978002B082010000321602C68201006C
:1002B30000DF8002B082010000331602C482010015
:1002C30000CD8002B082010000341602C282010018
:1002D300005D8102B082010000351602C082010078
:1002E30000361601E8030577100AFFFFFF0001300F
:1002F300750302010600000000000000000000007A
:1003030000000000000000000000000000000000EA
:1003130000FFFF0600800CE803140953696D706C3D
:1003230065424C455065726970686572616C05126F
:1003330050002003020A000201060302F0FF536982
:100343006D706C6520424C4520506572697068651C
:1003530072616CB1130000B713087F5468726F7435
:10036300746C6500087F526F746174696F6E000866
:1003730050504D0002466565646261636B0002B6CE
:1003830082010000A08202B0820100004B1702D854
:10039300820200004C1702DE820100004D1702B0FA
:1003A30082010000561702DA82020000571702DEAC
:1003B30082010000581702B082010000611702DCBD
:1003C30082020000241502DE82010000621702B0DF
:1003D30082010000661702C882010000251502DEB3
:1003E3008201000067170000000000000000000009
:1003F30000000000000000000000000000000000FA
:10040300000000000000120122DB8303120122EE30
:1004130083031201221D8403120122558403120156
:10042300229E8403120122E1840312012227850301
:100433001201225A8503120122818503120122B07F
:100443008503120122E785031201220086031201AC
:10045300224F86031201227D8603120122B18603F5
:1004630012012266AA0212012264AB02120122CAFD
:10047300AB02120122EDAB02120122EFAB02120119
:10048300222DAC021201229EAC021201225EAD02A9
:1004930012012280AD021201221CAE02120122536C
:1004A300AE0212012298AE02120122A5AE0212017F
:1004B3002215AF021201225FAF0212012262AF02C4
:1004C300120122A8AF02120122ABAF02120122B520
:1004D300AF0212012228B00212012250B00212010F
:1004E3002283B002120122A7B002120122A4B10298
:1004F30012012248B202120122B4B202120122F006
:10050300B2021201220AFC0212012232FC0212017F
:10051300225FFC0212012297FC02120122FDFC025F
:1005230012012247FD02120122ABFD02120122F346
:10053300FD0212012230FE021201225EFE021201AE
:1005430022F3FE02120122FDFE021201220AFF0221
:100553001201223DFF0212012249FF021201226110
:10056300FF021201226BFF02120122AFA603120146
:1005730022BDA603120122D5A603120122ECA60373
:100583001201225BA801120122FEA8011201221707
:10059300AA011201228FAA01120122B6AB01120194
:1005A30022EFAB0112012287AC0112012274AD01CB
:1005B3001201221DAE01120122A5AF011201228DEB
:1005C300B00112012284B101120122BAB101120158
:1005D300225CB20112012282B2011201224EB40145
:1005E30012012294B401120122B6B4011201222293
:1005F300B501120122EDB501120122A7B6011201C4
:1006030022B3B801120122D2CA02120122AECB02D6
:1006130012012258CC0212012299CC02120122208B
:10062300CD021201229BCD021201226ECE021201D3
:100633002297CE021201228BCF02120122C8CF02CF
:10064300120122B0D002120122E1D00212012207CC
:10065300D102120122789903120122F799031201A0
:1006630022229A03120122329B03120122008003E9
:100673001201221680031201223480031201224444
:1006830081031201224E8103120122788203120197
:1006930022658303120122D1830312012243D7026D
:1006A30012012270D802120122A7D802120122FEDF
:1006B300D802120122F6DA02120122EE950112018A
:1006C30022759601120122C99701120122D59701C1
:1006D3001201224D980112012226990112012226AC
:1006E3009A01120122229B01120122EE9B011201A7
:1006F30022489D011201225E9D011201227F9D016C
:10070300120122439E01120122699E011201221647
:10071300A1011201221BA1011201223FA301120117
:100723002286A301120122ECA30112012232A401A9
:1007330012012202A501120122B7A50112012213FF
:10074300A60112012216A60112012262A6011201BC
:10075300229EA601120122DDA601120122FFA6019B
:1007630012012233A701120122A1A701120122E3E0
:10077300DC02120122F1DC0212012241DD0212012C
:100783002260DD02120122AADD02120122EDDE0245
:1007930012012285DF02120122C9DF02120122F3B4
:1007A300DF021201225EE002120122A2E002120124
:1007B3002225E102120122D4E102120122B827000C
:1007C300120122C82700120122622800120122BE50
:1007D30028001201227C29001201229F2A00120103
:1007E30022CF2A00120122FE2A00120122B42C0079
:1007F300120122072F001201226631001201224F3B
:1008030032001201223F330012012212350012017D
:10081300220A3800120122273900120122213B004B
:10082300120122303C00120122BF3D00120122AB13
:100833003E00120122FA3E001201226A3F00120119
:1008430022863F00120122D73F0012012277440083
:100853001201227E4500120122E045001201220B03
:100863004600120122C3460012012294EF02120134
:10087300229EEF02120122E6EF02120122FAEF0298
:100883001201228BF002120122C2F002120122FD98
:10089300F00212012226F1021201227AF102120160
:1008A300228FF102120122B1F102120122C6F102DA
:1008B300120122DAF102120122EFF10212012229BE
:1008C300F20212012255F2021201229EF2021201D9
:1008D3002214F30212012257F30212012281F302BE
:1008E300120122ACF302120122A3A3031201220D6F
:1008F3008D02120122E68D02120122558E0212018F
:1009030022908E02120122CB8F021201227D9002CD
:100913001201222A9302120122D59302120122B656
:1009230094021201222C96021201229496021201C1
:10093300228FE602120122D2E6021201223DE802D0
:100943001201227BEA021201227F95031201222C5B
:1009530096031201222597031201226297031201C3
:1009630022619B03120122C09B031201225D9C039F
:10097300120122909C03120122BE9C03120122F950
:100983009C03120122199D03120122E6E1021201C6
:10099300226FE2021201222EE3021201223CE40240
:1009A3001201225CE6021201226174001201227616
:1009B30074001201224175001201220E7600120109
:1009C300227B7600120122B67600120122577700AD
:1009D300120122607800120122387900120122BB31
:1009E3007900120122447A00120122AD7A00120129
:1009F30022377B00120122847B00120122F27B004A
:100A0300120122947C00120122427D001201226213
:100A13007D00120122A67D00120122EE7D0012014B
:100A2300220A7E00120122297E00120122A37E00E7
:100A3300120122B17E00120122447F00120122AE74
:100A43007F0012012218EB0212012294EB02120121
:100A530022D2EB02120122B6EC0212012225ED0290
:100A630012012269ED02120122ACED02120122D918
:100A7300ED02120122F7ED021201222FEE02120102
:100A8300226CEE021201228DEE0212012203EF020A
:100A93001201224DEF02120122C0B80112012254A9
:100AA300BA0112012292BC01120122DABC01120125
:100AB3002205BD01120122FBBD011201222BBE0141
:100AC30012012282BE0112012295BE01120122D619
:100AD300BE0112012203BF011201224CBF01120108
:100AE3002288BF01120122CDBF011201221AC001C7
:100AF30012012282C001120122B4C2011201227B1F
:100B0300C401120122B6C40112012234C60112012A
:100B13002278C601120122EBC6011201224CC70141
:100B2300120122D4C701120122F3C80112012204C7
:100B3300C901120122399702120122AA9702120156
:100B430022739D021201226D9E021201222FA00226
:100B5300120122ADA0021201222C4700120122B37E
:100B63004700120122E0470012012222480012012D
:100B7300221E4900120122634900120122DF4A00AA
:100B83001201225C4B00120122814B00120122F45C
:100B93004B00120122B14C001201226D4D001201D3
:100BA30022ED4D00120122BB4E00120122E14E0044
:100BB300120122534F00120122F74F001201221C8F
:100BC3005000120122885000120122EE500012013F
:100BD30022245100120122C8510012012261520045
:100BE300120122E452001201225053001201229CEE
:100BF3005300120122025400120122335400120145
:100C030022E75400120122FD55001201224656002C
:100C1300120122635600120122435C001201228B4F
:100C23005C00120122785D001201229D5D00120119
:100C330022B25D001201221A5E001201225A5E00E6
:100C43001201226D5F001201221A6000120122D6E6
:100C5300A00212012221A1021201222DA1021201DE
:100C630022F8A1021201220EA2021201224AA202BA
:100C730012012283A202120122BBA202120122113B
:100C8300A30212012227A30212012263A30212016B
:100C93002276A3021201229DA302120122D1A302F2
:100CA300120122A5A40212012234A602120122304B
:100CB300A70212012239A802120122AD2700120154
:100CC30022A3D701120122DED701120122E2DA01A7
:100CD30012012234DC01120122F9DC01120122F398
:100CE300DF01120122DDE00112012228E1011201DC
:100CF3002242E1011201227FE1011201228AE10174
:100D0300120122C9E101120122D2E101120122934F
:100D1300E20112012250E301120122B3E3011201A5
:100D23002217E40112012298E401120122E1820157
:100D33001201223D860112012243860112012284FF
:100D43008D011201225C92011201224F8A031201CA
:100D530022198B031201225D8B03120122978B034D
:100D6300120122298C03120122988C03120122A161
:100D73008C03120122AD8C03120122C18C031201D8
:100D830022E58C03120122158D03120122D4F302F2
:100D9300120122E1F302120122FBF3021201222EBD
:100DA300F4021201226BF402120122D1F4021201A5
:100DB30022E6F402120122F1F402120122FEF402ED
:100DC30012012215F50212012223F5021201222E2D
:100DD300F5021201223AF50212012249F50212012B
:100DE3002254F5021201227AF5021201221EF602A2
:100DF3001201222EF60212012248F6021201226586
:100E0300F60212012280F602120122A7F602120153
:100E130022B2F602120122C7F602120122DBF60207
:100E23001201223CF70212012242F7021201224868
:100E3300F7021201224EF70212012266F702120193
:100E43002299F702120122058002120122938002E5
:100E53001201222881021201220482021201223885
:100E630082021201224B8202120122C58202120166
:100E7300224D8402120122748402120122FB840295
:100E83001201223A85021201224B8502120122C06D
:100E93008502120122DF8502120122F78502120167
:100EA300223B8702120122458902120122778B021B
:100EB3001201227D8C02120122C08C02120122092E
:100EC300C9011201221CCA0112012204CB01120121
:100ED300220ECB0112012230CB011201223CCB01A5
:100EE30012012289CC01120122B6CC01120122D7B0
:100EF300CD0112012219CE011201224ECF0112019E
:100F0300221ED0011201226DD001120122CED00186
:100F130012012203D1011201223CD101120122E765
:100F2300D401120122FED4011201227CD501120147
:100F3300228AD501120122D3D501120122E1D50162
:100F430012012262D601120122D1D6011201221D01
:100F5300D7011201227EF301120122A0F301120133
:100F6300227CF501120122F4F8011201223EFA015A
:100F730012012220FB01120122DF9E03120122042F
:100F83009F03120122759F031201224FC302120114
:100F93002258C30212012261C30212012285C40234
:100FA30012012276C602120122A4C602120122CF26
:100FB300C602120122FDC60212012228C702120133
:100FC3002266C70212012292C702120122CFC70270
:100FD300120122FAC70212012246C8021201229DFF
:100FE300C802120122DDC8021201222CC902120119
:100FF3002257C9021201229DC902120122CBC90242
:10100300120122F6C90212012223CA021201224648
:10101300CA0212012230A8031201225CA8031201A2
:1010230022B5A803120122BFA803120122CFA803ED
:10103300120122448D031201226B8D0312012296A9
:101043008D0312012292AA031201224C60001201A5
:1010530022A36200120122536400120122B0640031
:10106300120122B065001201222D6600120122B581
:101073006600120122DA6600120122B5690012012C
:1010830022296A00120122186B001201224E6B0002
:10109300120122916B00120122126D0012012254DF
:1010A3006D001201229D6D00120122066E001201D5
:1010B30022286E00120122426E00120122606F008C
:1010C300120122706F00120122F370001201221329
:1010D3007100120122497100120122C5720012012E
:1010E300220273001201223C7400120122279D0385
:1010F300120122839D03120122279E03120122461D
:101103009E03120122949E031201227CA703120163
:10111300228DA703120122DCAA031201221BAB03B7
:10112300120122CBAB03120122D9A803120122E937
:10113300A803120122FEA80312012264A9031201CB
:1011430022B7A4031201223AA503120122A0A50388
:1011530012012263FE011201228CFE01120122F907
:10116300FE011201224CFF01120122A5FF0112010F
:10117300221987031201222E87031201222C8803CE
:10118300120122C488031201223889031201225258
:10119300890312012269890312012277890312014B
:1011A300228F8903120122A48903120122C9890310
:1011B3001201221A8A03120122DEAB031201223228
:1011C300A20312012255A2031201227EA2031201DD
:1011D3002218A3031201225AA3031201228BBB027A
:1011E30012012295BB02120122D5BB021201221E5B
:1011F300BC0212012256BC02120122ACBC02120133
:1012030022C9BC0212012248BF0212012251BF02AD
:1012130012012296BF02120122BFBF02120122D481
:10122300BF0212012244C002120122D1C0021201E4
:101233002225C10212012248C102120122C7C102A2
:1012430012012202C20212012237C20212012249F2
:10125300C20212012268C20212012271C2021201E9
:101263002223C30212012290A003120122E1A00350
:101273001201226AA103120122D4A103120122192D
:1012830090031201224190031201223691031201AD
:10129300225B9103120122EA9103120122B9A503F1
:1012A3001201227C9703120122B29703120122E555
:1012B30097031201223E990312012267A903120127
:1012C300227DA90312012287A903120122DBA903AC
:1012D30012012216B302120122D0B3021201220B11
:1012E300B4021201223CB402120122ACB402120174
:1012F3002202B50212012256B50212012243B6029E
:101303001201223CB702120122BDB802120122715E
:10131300B902120122DAB902120122EDB902120155
:1013230022D2BA021201222BBB0212012213F802AB
:1013330012012229F802120122CDF8021201220C15
:10134300F90212012229F9021201225AF9021201A9
:1013530022A7F902120122DAF90212012215FA0276
:10136300120122E2E5011201226AE901120122F9C6
:10137300EA0112012250EB011201226FEB0112016B
:1013830022EDEB0112012273ED0112012246EE015F
:1013930012012200F201120122E8F2011201227766
:1013A300D102120122C9D102120122D2D3021201A7
:1013B300225ED502120122E2D602120122D4920346
:1013C3001201220693031201222393031201227CAA
:1013D3009303120122AF93031201225794031201C4
:1013E3002225AB03120122D17F001201226BAB0332
:1013F300120122A2AB03120122E0FF01E06670108A
:1014030008A3E066700A08A3E066700408A3E06618
:1014130022C3E7960809E7960809E7960809E796BD
:1014230022C3E09608A3E09608A3E09608A3E096FB
:1014330022C008C3E096F50808A3E096420808A373
:10144300E096420808A3E09645087001D3D008222D
:10145300080808EAC0E0EBC0E086F0E7A4FA180940
:1014630086F0E7A42AFA180986F0E7A42AFA1809ED
:1014730086F0E7A42AFA1986F0E7A4FBE5F02AFA36
:10148300190886F0E7A42BFBE5F03AFA190886F071
:10149300E7A42BFBE5F03AFA18180986F0E7A4C590
:1014A300F02BFBE43AFA1908E7C5F0C6A426F6E5E3
:1014B300F03BFBE43AFA1886F0E7A4F6E5F00826D9
:1014C300F6E43B08F6E43A08F6D0E0FBD0E0FA2273
:1014D300E4CFC0E0E4CEC0E0E4CDC0E0E4CCC0E0C3
:1014E30075F020E626F608E633F608E633F608E656
:1014F30033F6181818EC33FCED33FDEE33FEEF33FF
:10150300FFC3EC9709ED9709EE9709EF971919199E
:10151300400FFFEC97FC09ED97FD09EE97FE1919B3
:1015230006D5F0BFECF709EDF709EEF709EFF71968
:101533001919D0E0FCD0E0FDD0E0FED0E0FF22128C
:1015430015AA1818181214D3121599191919221259
:101553001599191919080808E618181820E7E01250
:1015630014D31215AA18181822090909E719191909
:1015730020E7DC080808E618181820E7030214D34C
:101583001215AA1818181214D31215AA181818121B
:10159300159919191922E4C397F709E497F709E490
:1015A30097F709E497F722E4C396F608E496F6085A
:1015B300E496F608E496F6226016080808C6C313F4
:1015C300C618C613C618C613C618C613C6D5E0EA8E
:1015D300227009080808226016181818C6C333C6F3
:1015E30008C633C608C633C608C633C6D5E0EA22E2
:1015F300E627F60809E637F60809E637F60809E6A6
:1016030037F622E026F608A3E036F608A3E036F61E
:1016130008A3E036F622E026F008A3E036F008A39C
:10162300E036F008A3E036F022C3E697F60809E6B1
:1016330097F60809E697F60809E697F622C3E0C687
:1016430096F608A3E0C696F608A3E0C696F608A3A6
:10165300E0C696F622C3E096F008A3E096F008A34E
:10166300E096F008A3E096F022E056F608A3E056D1
:10167300F608A3E056F608A3E056F622E056F00873
:10168300A3E056F008A3E056F008A3E056F022E0EA
:10169300F608A3E0F608A3E0F608A3E0F622E6F0D6
:1016A30008A3E6F008A3E6F008A3E6F022E0FAA315
:1016B300E0FBA3E0FCA3E0FD22E0FCA3E0FDA3E04C
:1016C300FEA3E0FF22ECF0A3EDF0A3EEF0A3EFF016
:1016D30022E0F8A3E0F9A3E0FAA3E0FB22E8F0A3F9
:1016E300E9F0A3EAF0A3EBF022CAC0E0E6F0A30816
:1016F300DAFAD0E0FA22CAC0E0E0A3C582CCC58200
:10170300C583CDC583F0A3C582CCC582C583CDC5B2
:1017130083DAE6D0E0CA22C3E498F8E499F9121711
:101723005B8026C3E49AFAE49BFBE920E7E91217FE
:101733005BE498F8E499F922C3E498F8E499F91280
:10174300175BE498F8E499F9C3E49AFAE49BFB2263
:10175300EB20E7CFE920E7E0B90010BB0008E88AF7
:10176300F084F8AAF022E4FBC8FA22EB70227B1083
:10177300C833C8C933C9335007C39AC3DBF28006E1
:101783009A50012ADBEAC833F4C8C933F4C9FA22F0
:1017930075F008E4C833C8C933C933C99AC99B5023
:1017A30004C92AC93BD5F0ECFBC833F4C8E4C9FA31
:1017B30022600D08C6A2E713C618C613C6D5E0F308
:1017C30022600C08C6C313C618C613C6D5E0F4229C
:1017D300700422600D18C6C333C608C633C6D5E0ED
:1017E300F41822251810AF08F518400C15198008B5
:1017F300F51840021519D2AF2200C0D0251810AF3A
:1018030008F518500C05198008F51850020519D26F
:10181300AFD0D0222518F58210AF08F518400C156B
:10182300198008F51840021519D2AF8519832225AE
:1018330018F582E43519F583222518F8E43519F9EA
:10184300222518FAE43519FB222518FCE43519FD85
:1018530022E4732518C582C0E0E51934FFC583C0AF
:10186300E0E518C3958224F810AF088583198582B3
:10187300188008858319858218D2AFCEF0A3E5209E
:10188300F0A37808E608F0A3DEFAEFF0A3E58124DD
:10189300FAF8E608F0A3E608F0A3E608F0A30808C0
:1018A300E608F0A3E608F0A315811581D0E0FED089
:1018B300E0F8158115811581E8C0E0EEC0E022252E
:1018C30018C582C0E0E51934FFC583C0E0E518C33D
:1018D300958224F910AF08858319858218800885BD
:1018E3008319858218D2AFCEF0A3E520F0A3780840
:1018F300E608F0A3DEFAEFF0A3E58124FBF8E6089F
:10190300F0A3E608F0A30808E608F0A3E608F0A3AE
:1019130015811581D0E0FED0E0F815811581E8C06E
:10192300E0EEC0E022851983851882E0A3FEE0A3E0
:10193300F5207808E0A3F608DFFAE0A3FFE0A3C0F0
:10194300E0E0A3C0E0E0A3C0E0E0A3C0E0E0A3C008
:10195300E010AF0885821885831980088582188571
:101963008319D2AFD083D08202011F8519838518D2
:1019730082E0A3FEE0A3F5207808E0A3F608DFFAEF
:10198300E0A3FFE0A3C0E0E0A3C0E0E0A3C0E0E089
:10199300A3C0E010AF08858218858319800885826B
:1019A30018858319D2AFD083D08222C0D02518C521
:1019B30082C0E0E51934FFC583C0E0E518C3958212
:1019C30024F310AF0885831985821880088583194D
:1019D300858218D2AFC8F0A3E9F0A3EAF0A3EBF035
:1019E300A37908E709F0A3D8FAECF0A3EDF0A3EE8E
:1019F300F0A3EFF0A3D0E0F0A3D0E0F0A3D0E0F0A9
:101A0300A3E520F0A3E5F0F0A322851983851882CE
:101A1300E0C0E0A3E0F9A3E0FAA3E0FBA37808E0C9
:101A2300F608A3DFFAE0FCA3E0FDA3E0FEA3E0FFDA
:101A3300A3E0C0E0A3E0C0E0A3E0F5D0A3E0F5207D
:101A4300A3E0A3F5F010AF088583198582188008F9
:101A5300858319858218D2AFD082D083D0E0F8D0A5
:101A6300E03274048006740280027401C0E0F4045E
:101A7300121817D0E01216EC22740480047402804A
:101A830000CCC0E0EDC0E0E518C39CCCAD1950011B
:101A93001D10AF068C188D1980068C188D19D2AFC6
:101AA3001216F9D0E0FDD0E0FC22D083D082E9C049
:101AB300E0E493A3C386F0C5F095F0F908E493A39B
:101AC30086F0C5F095F0700BE493A3C3994005E944
:101AD300048002A3E475F002A42582F582E5F035C3
:101AE30083F583D0E0F9E493A3C0E0E493C0E0225C
:101AF300D083D082ECC0E0EDC0E0E493A3FCE49398
:101B0300A3FDED4C600D121B3FEC24FFFCED34FFF5
:101B1300FD80EFE493A3FCE493A3FDED4C600D1271
:101B23001B7EEC24FFFCED34FFFD80EFD0E0FDD005
:101B3300E0FCE493A3C0E0E493C0E022C0E0C3E48C
:101B43009396087401939618400FE49366700808FF
:101B5300740193661870007019A3A3C3E4939608E5
:101B63007401939618A3A3400DD0E0D0E0D0E00217
:101B73001B2FA3A3A3A3A3A3D0E022C0E0C0F0889C
:101B8300F0E4936670080874019366187000A8F077
:101B9300A3A3700BD0F0D0E0D0E0D0E0021B2FA3C2
:061BA300A3D0F0D0E02207
:101BAC0074F61218C2EAFEEBFF8C088D09EA243495
:101BBC00F8E43FF9E8FCE9FDEA2435121F53FAEE8C
:101BCC002437121F53F88508F0A4C885F00A85093C
:101BDC00F0A4250AF9EA28F8E439F97A257B0012F1
:101BEC00175BEA8C828D83F0FA131313541F121FA8
:101BFC0047245DF582E439F583E0C0E074075AF8B8
:101C0C00D0E0B800028004C313D8FCA2E0EE500868
:101C1C002434F582E43F80142436121F53F5F0EA85
:101C2C0084A8F0121F482438F582E439F583E0F9D2
:101C3C007F0302196E74F71218C2EAFEEBFFEA2456
:101C4C0034121F53C0E0EA2435F582E43FF583D00B
:101C5C00E0F08A828B83A3A3A3A3A3A3A3C082C017
:101C6C00838A828B83A3A3A3A3A3E0F8A3E0F9D078
:101C7C0083D082E0C398F508A3E099F509EA2480A3
:101C8C00121F536401703EEA2481F582E43FF58310
:101C9C00C082C0838A828B83A3A3A3A3A3E0240165
:101CAC0008A3E03400F9D083D082E0687003A3E08D
:101CBC006970127CB67D04120BFBEE2480F582E475
:101CCC003FF583E4F0AC08AD09EEFAEFFB121BAC68
:101CDC00E9F91226CE7F0202196EC082C0838518E4
:101CEC0082851983E0F8A3E0F9C3EA9CEB9D5010C0
:101CFC00C3EC98ED99401BC3EA98EB995014800EF5
:101D0C00C3EA98EB994007C3EC98ED99400479012C
:101D1C0080027900D083D08222EAC39CFAEB9DFB2F
:101D2C002274EF1218C2900376E064086005E06438
:101D3C0007702A9061C8E060249003A4E0F4601D51
:101D4C00E0F875F010A4C8AAF02AF974A628FE745D
:101D5C000339FF8E82F583A3A3A3E07003021E4612
:101D6C00906060E0C0E0EE2468F582E43FF583D03B
:101D7C00E0F0750C27750D05750800750900E5D99F
:101D8C0014F50AE5D95403F50E602F7403650E6043
:101D9C001DE50A6008EE2467121F53601D90052292
:101DAC00E06401602C121F50601278048010121F26
:101DBC0050602CE50AC39405502580637800E50A31
:101DCC00C398FA95E0FB120AAB8A088B09EA4B70B0
:101DDC0005120E298064121F5070048A0C8B0DE5BD
:101DEC000A6012850C82850D83F50BE5D9F0A315DD
:101DFC000BE50B70F6121F50604574FC250AF50AB2
:101E0C00780C121A69AC0AA90EEEFAEFFB120CB59B
:101E1C0074021217FCE97027AA08AB0912126D792B
:101E2C003D8E828F83A3A3A3A3E0FA7B0012091338
:101E3C00EEFAEFFB120C1F120CC77900021F427452
:101E4C0003650E6053E50AF5107511007810121A2F
:101E5C0069AC0CAD0DAA08AB09120C7974021217FF
:101E6C00FCEE2468121F5364807004747F8001E0C0
:101E7C00F50C780C121A6DE50EF50C780C121A6D27
:101E8C00A90AAC08AD099003A4E0FA7B001208E99A
:101E9C0074021217FC021F3D850C82850D83E0C372
:101EAC00940E5011E0F8744128F582E43481F583E6
:101EBC00E0650A6069850C82850D83E0C0E0EE2444
:101ECC00F7F582E43FF583D0E0F0A2AFE433FCC237
:101EDC00AF7A0080010AEE246E121F53F8EAC39801
:101EEC005013EA121F47246AF582E439F583E06443
:101EFC000770E28022EE246EF8E43FF9E0FAEE2A55
:101F0C00FAE43FFBEA246AF582E43BF5837407F0BC
:101F1C0088828983E004F0ECA2E092AF80139003F6
:101F2C0076E06408600BAC0CAD0DEEFAEFFB120D15
:101F3C003F120E3579017F0A02196EF8EE28F8E48B
:101F4C003FF9E822EE2484F582E43FF583E0227425
:101F5C00F11218C274FC1217E6EAFEEBFF89097540
:101F6C000D00A2AFE433F508C2AF9004BEE0FA90C6
:101F7C0061D0E0F8748098F895E0F9C3EA98E49998
:101F8C00A2D265D0334003022045750D01022045D5
:101F9C00E0601B780A121A69AC0EA90FEEFAEFFB7F
:101FAC00120CAF74021217FC7404250EF50E74019A
:101FBC00250EF5D9850FD9E50E6012850A82850BA1
:101FCC0083F50CE0F5D9A3150CE50C70F675E195CD
:101FDC00EE2463F8E43FF97A007B00A2AFE433F51A
:101FEC000AC2AF88828983E0FCA3E0FDEC4D603A25
:101FFC0088828983E0FAA3E0FB8C82F583E0FCA362
:10200C00E0FD88828983ECF0A3EDF08A828B83E477
:10201C00F0A3F088828983E0FCA3E0FDEC4D700A0C
:10202C0088828983A3A3E4F0A3F0E50AA2E092AF2F
:10203C0012126D9004BDE004F0EE2463121F53F8ED
:10204C00A3E0F9E8496063EE2463121F532402F8FD
:10205C00A3E034008882F583E5822402F50AE43596
:10206C0083F50BE0F50EA3E0F50FEE2462121F537F
:10207C00640170369061D0E0F8121F5060047C044B
:10208C0080027C007480C398FA95E0FBE50E2CF876
:10209C00E43400F9E82402F8500109C3EA98EB99FA
:1020AC00A2D265D0334003021F9C9061D0E0F8743B
:1020BC0080C3989004BEF0E50D60539004BDE060C1
:1020CC004D9004BFE0F89004BDE0C398500C74022E
:1020DC006509703A9004C0E060348E828F83A3A3AC
:1020EC00A3A3E085188285198312212A7402121881
:1020FC0032E812212A9004BCE028F0740212184C29
:10210C00AA18AB19790112093D9004BDE4F0E50859
:10211C00A2E092AF74041217FC7F0802196EF0A3B0
:10212C00E4F09004BDE0F8228521878522C622C008
:10213C00E074EB1219AEA2AFE433F508C2AF759B95
:10214C0000906182E0A2E0502DE591A2E05027754D
:10215C0091FE74016521701E1222B21222C9121A4C
:10216C007C12247D74041217FCE96401700579015A
:10217C00120DBD121D2D906182E0A2E5505AE59121
:10218C00A2E550547591DF900376E064076005E09A
:10219C006408702C1222B274016521703B1222C9A2
:1021AC00121A7C12247D74041217FCE96401700568
:1021BC007901120DBD7901EEFAEFFB121F5B80184D
:1021CC00E0640D7013900398E004F064287002E44E
:1021DC00F07A00E0F9120E3B906182E0A2E6400337
:1021EC00022287E591A2E640030222877591BF90F7
:1021FC000376E064057008120D69120D75800312E8
:10220C000D6F752100120DC9E9900377F07900125A
:10221C000DBD120B6B7A017B00900375E0F9121265
:10222C003D907803E064427052900526E014F07003
:10223C004AC2AF12224200782AD0E0F618D0E0F65B
:10224C00E59F540770047BFF80027B7FC4C0E0785D
:10225C0029E6F50A08E65BF50B740B780A1217C42D
:10226C00D0E0250AF8906270E0A2E740F8E8C333AA
:10227C00906272F0906270E0D2E0F0906181E0A226
:10228C00E35009E5E9A2E3500375E9F7A3E0A2E7FF
:10229C005009E591A2E7500375917FE508A2E09201
:1022AC00AF7F08021A0D9003A4E0F875F010A4C8D3
:1022BC00AAF02AF974A628FE740339FF22120D81A4
:1022CC008E828F83E0F8A3E0C82416F582E438F5FB
:1022DC008322C0E0C0D0C082C083906183E0A2E0C2
:1022EC005009E5BFA2E0500375BFFEE0A2E1500922
:1022FC00E5BFA2E1500375BFFDE0A2E25009E5BFC6
:10230C00A2E2500375BFFBE0A2E35009E5BFA2E3D4
:10231C00500375BFF7E0A2E45009E5BFA2E45003F7
:10232C0075BFEFE0A2E55009E5BFA2E5500375BF0C
:10233C00DFE0A2E65009E5BFA2E6500375BFBFD0AF
:10234C0083D082D0D0D0E032C0E074F21219AEE566
:10235C00A7A2E6500FE5A1A2E6500953A7BF75A1AD
:10236C00BF1223A8E5A7A2E5500CE5A1A2E55006F3
:10237C0053A7DF75A1DFE5A7A2E15009E5A1A2E112
:10238C00500375A1FDE5A7A2E2500CE5A1A2E25015
:10239C000653A7FB75A1FB7F01021A0D74F71218E7
:1023AC00C2752101900376E064067015120CEB8A5D
:1023BC00828B83A3A3A3A3A3A3E0FAA3E0FB120D38
:1023CC0057A2AFE433FED2AF90037CE064017018E7
:1023DC007A207B00900375E0F91213517A207B0070
:1023EC00900375E0F9121243906182E0D2E6F0900E
:1023FC000523E0602185C622801690037BE06401F2
:10240C007008E5C654F84405F5C653BEFC122134D9
:10241C007401652160E4EEA2E092AF7F0202196EB6
:10242C008E238F248582288583278518828519839E
:10243C00E0CEA3E0CF852882852783EBC9EAC8EDDF
:10244C00CBECCA75F010C3E833C8E933C9EA33CA18
:10245C00EB33CBC3EA9EF526EB9FF525B35004ABCB
:10246C0025AA26EC33CCED33CDD5F0DAAE23AF2450
:10247C002274F11218C28A088B098C0A8D0B908277
:10248C003E780812166C740F121832780C121692D1
:10249C0090823E780C12166C7808790C12141490F9
:1024AC00825250107808790C12162C7808121434B9
:1024BC004014800E780C790812162C780C121434F7
:1024CC0050047901800279007F0802196E74ED12B4
:1024DC0018C28A088B098C0A8D0B90823E780812E0
:1024EC00166C7413121832780C12169290823E7875
:1024FC000C12166C780C79081214144011780879A7
:10250C000C12162CAA08AB09AC0AAD0B8022751064
:10251C00007511007512007513017810790C1216E4
:10252C002C781079081215F3AA10AB11AC12AD135C
:10253C007F0C02196E90823E78081216928A828B5A
:10254C0083780812167F7F0402196E74F51218C274
:10255C008C828D8378081216928A828B837808126B
:10256C0016581225AFC3E09CF0A3E09D1225A140A4
:10257C002290826A78081216928A828B83780812CB
:10258C0016198A828B83A3A3A3A3E02420F0A3E0D3
:10259C00344EF080A0F088828983C3E09420A3E0BD
:1025AC00944E22EA2404F8E43BF98C828D83A3A395
:1025BC00A3A3E0FCA3E0FD888289832274F51218A2
:1025CC00C29004D9E0FAA3E0FBE929F8E433F974EA
:1025DC000228F582748139F583E02AF508A3E03BE3
:1025EC00F5097808121A6990825E1216B012242C22
:1025FC0074021217FC8A088B098C0A8D0B741078E4
:10260C00081215BBAA08AB097F0402196E74F112EB
:10261C0018C28A0C8B0D8C0E8D0F7411121832127D
:10262C001A807411121832E02401F508A3E034006A
:10263C00F509E4F50AF50B780C790812145390821D
:10264C004A7808121692780C7908121453AA0CAB1B
:10265C000DAC0EAD0F12242C74021217FCEA4B6059
:10266C00047A0180027A00EC2AFCE43DFD7413121A
:10267C001832E0F8A3E0F9E8FEE9FFECF8EDF97A9E
:10268C00717B0212175B88088909E4F50AF50B8E39
:10269C00828F8378081216A1ECF8EDF97A717B021F
:1026AC0012175B8A088B09740578081217D38E826F
:1026BC008F83A3A3A3A3E508F0A3E509F07F080289
:1026CC00196EC082C083E9906000F0D083D0822262
:1026DC00C0E074F21219AEA2AFE433FED2AFE589BA
:1026EC00A2E1500312116B758900C2C5EEA2E092F3
:1026FC00AF7F01021A0DC0E074F21219AEA2AFE462
:10270C0033FED2AFE58BA2E0500312116B758B0038
:10271C00C2E880D8C0E0C0D0E8C0E0A8A8D2AFC260
:10272C00C7E8A2E792AFD0E0F8D0D0D0E032C2AF89
:10273C0002000022C0E074F21219AE74FF1217E608
:10274C00C2DBAA18AB1979021213CFE9700F8518E6
:10275C0082851983E070037401F0E0F5EFC2C47454
:10276C00011217FC7F01021A0DC0E074F21219AEAF
:10277C0074FF1217E6C2D8AA18AB1979011213CF3D
:10278C00E9701AAC18AD197A0179031213C98518BE
:10279C0082851983E070037401F0E0F5CFC2C38029
:1027AC00BE02011FFFFFFFFFFFFFFFFFC082C083C0
:1027BC00E99015E9F0D083D08202011F74F612184B
:1027CC0056E99002E8F0900348E0F50875090074AA
:1027DC000278081217D3AA08AB091212AF9002E9BB
:1027EC00122C9C606E900348E075F003A4FAABF0D9
:1027FC001212AF900306122C9C700B9002E912344B
:10280C00E01212B5804D9003061244497AFF7BFF0B
:10281C001210ED7A00801EEAF50875090074027832
:10282C00081217D3123EE574FFF0A312445DA3A364
:10283C00E4F0A3F00A900348E0F8EAC39840D87992
:10284C00051207D59002E8E0F91206C77A5F7B08FB
:10285C00120A4B023F8174F41218568A088B09EB4A
:10286C00548060479002E8E0F91212258A0A8B0B1B
:10287C00AE0AAF0BEA4F602A8A828B83E064B07099
:10288C001A1207E7E960148E828F83A3A3A3A3E037
:10289C00F9EE2405FAE43FFB1207B7EEFAEFFB1250
:1028AC001213AA08E5096480FB80047A007B0002FD
:1028BC002ACA74F212185674FB1217E6EAFEEBFFE2
:1028CC00EA4F60437403121832123149851882851D
:1028DC001983ECF0A3EDF07402121832E9F0AA1887
:1028EC00AB191206C1E9F50870777413121832E0AF
:1028FC00F50AA3E0F50BE50A450B60658E828F8324
:10290C00122EDDEE4F700575080280557A067B009D
:10291C001212AF8A0C8B0DA80CA90DEA4970057523
:10292C000813803D8A828B83E4F0122974A3EEF0A5
:10293C00A3EF124722E50AF0A3E50BF09002EC128C
:10294C002A8E9002EC6017E0FCA3E08003EAFCEB1B
:10295C00FD8C828D83122A8E70F38C828D83123BB8
:10296C0005A90874050246BBA3F08A828B83A322B7
:10297C0074F21218568908E9F50C750D0074037879
:10298C000C1217D3850C0A850D0B9002EBF09002FC
:10299C00E912442E122A8C602F1212B57900801E77
:1029AC00E9F50C750D007402780C1217D39002E93E
:1029BC00123D9E8882F583A3A3E4F0A3F009900353
:1029CC0048E0F8E9C39840D8900348E0FA850AF04B
:1029DC00A4CAA8F0850BF0A428FB1212AF8A0C8BAA
:1029EC000DAE0CAF0DEA4F7003022A82900348E043
:1029FC00FC850AF0A4CCA8F0850BF0A428FD790086
:102A0C001211FB7C008032EDF50C750D007403780F
:102A1C000C1217D38A828B83122A878882F583E45F
:102A2C00F0122A94A3A3F0A3F00DEDC3950840D7A0
:102A3C00EE250AFEEF350BFF0C900348E0F8ECC3D3
:102A4C00985029ECF50C750D007402780C1217D304
:102A5C009002E9122A87E82402500109FAE9FB8A5C
:102A6C0082F583EEF0A3EFF07D0080BEE5089002C6
:102A7C00EBF07900800279130246BE123DA2F922D6
:102A8C00A3A3123161EA4B22A3F088828983A3A30A
:102A9C00A3A32274F41218567900EAA2E0501F7511
:102AAC0008027509827808121A6979107C047D0075
:102ABC007AEB7B151207CF74021217FCE9F97F042D
:102ACC00021928C082C0839002EC123EA4601C88BC
:102ADC00828983A3A3E06A7003A3E06B8882898355
:102AEC0070E8A3A3A3A31234E080047A007B000255
:102AFC0027C174F212185674FD1217E6EAFEEBFFAA
:102B0C00851882851983E4F0A3F0740212183274CC
:102B1C0001F09002EF123EA470111209851212AF4F
:102B2C009002EF122C9C7003022C90123236EE2481
:102B3C0004F50AE43FF50B850A82F583E024FE6078
:102B4C003C24FC607424FE607E24FE7003022BE0A7
:102B5C0024FE7003022BED24FE7003022BFA24FEDC
:102B6C007003022C0724FE7003022C1424FC700347
:102B7C00022C3524FE7003022C4D022C891209857F
:102B8C009002F1EAF0A3EB122CA5120415E96003F4
:102B9C00022C899002F1121A808E828F83A3A3A338
:102BAC00A3A31244498508828509831234E01207D5
:102BBC009F74021217FC022C89AC18AD19EEFAEFB7
:102BCC00FB1207ED022C58AC18AD19EEFAEFFB1204
:102BDC0007F38078AC18AD19EEFAEFFB1207F98009
:102BEC006BAC18AD19EEFAEFFB1207FF805EAC1858
:102BFC00AD19EEFAEFFB1208058051AC18AD19EEC9
:102C0C00FAEFFB12080B8044740212183C880C89F2
:102C1C000D780C121A69740212184CEEFAEFFB12B2
:102C2C00081174021217FC8023AC18AD19EEFAEFE0
:102C3C00FB120817E9F870167402121832E4F080CF
:102C4C003CAC18AD19EEFAEFFB12081DE9F8E86080
:102C5C002C8E828F83A3E064146022850A82850BFC
:102C6C0083E09002F1F08518828519831234E0908C
:102C7C0002F2123149E8A3122CA512040FEEFAEF5E
:102C8C00FB1207757402121832E0F974030246BB8A
:102C9C00EAF0A3EBF0F9EA4922F07CF17D02850819
:102CAC00828509831231612274E812185674FA1263
:102CBC0017E67404121832ECF0A3EDF08A128B13A1
:102CCC00EA2405F50EE43513F50FEA2402F510E4B9
:102CDC003513F5118510821237877508007C037D3A
:102CEC000079007AF17B021211FBE50E2402F51635
:102CFC00E4350FF517740212183C880C890D780C0A
:102D0C00121A69850E82850F83A3A3A3A3E0F50C89
:102D1C00750D00780C121A69E50E2405F50CE435D6
:102D2C000FF50D780C121A698516828517831237E8
:102D3C00CF1217FC8A0C8B0DE50C450D7003022E7F
:102D4C00AC8020851882851983E088828983F00500
:102D5C0008851882851983A3E0C0E0122EE7D0E025
:102D6C00F00508E50A24FBF8E50B34FFF9C3E50888
:102D7C0098E4994003022EAC7E007F008512828578
:102D8C001383A3A3A3A3E0F5097809121A6DE4F544
:102D9C0014F5157814121A697514EE751502781459
:102DAC00121A699002EF121A807409121832121A50
:102DBC0080E50A24F9F9AC0CAD0D1237E11217FCC1
:102DCC00E96003022E53850E82850F83A3A3A3A370
:102DDC00A3A3A3E0F89002EEE068706BE0F5148E0C
:102DEC00157814121A69124446850E82850F83A336
:102DFC00A3A3A3A3A3A3A31234E01211F57402128C
:102E0C0017FCE96042123EA17034E4F514781412F8
:102E1C001A697CFF7DFF79071237F01217FC8B15AE
:102E2C00A915122EFC7017850E82850F831245D5BD
:102E3C007404121832123E8E123802022EDA850CED
:102E4C0082850D83122EDDA818A91988148915788E
:102E5C0014121A697404121832121A80851682859B
:102E6C0017831237B11217FC8A0C8B0DEE4F7003BF
:102E7C00022D44122EE7EE122EF2123798EF122E7C
:102E8C00F2F8A3E03400F9E50C4B6003022D4F88F7
:102E9C0082898374FFF00508122EE774FFF0050891
:102EAC00E50860141313543F12314F120421E960EA
:102EBC0003123DB579008016850E82850F8312456D
:102ECC00D57404121832123E8E123B05790A023761
:102EDC0068A3A3A3A3E0FEA3E0FF22A8089002F23C
:102EEC00E02812379822F00508089002F2E0282218
:102EFC009002F2EAF0A3EBF0EA492274E8121856B9
:102F0C0074FA1217E6740212183212314974041250
:102F1C001832ECF0A3EDF07402121832E024051212
:102F2C003772F583E0F50CA3E0F50D74021218323C
:102F3C00E02402F510A3E03400F511851082123460
:102F4C00E4750800750900EA24FCFEEB34FFFF80F1
:102F5C0008050CE50C7002050DA808C3EE98EF945B
:102F6C000050030230FAA818A919880E890F780EA0
:102F7C00121A69851482851583A3A3A3A312442571
:102F8C00121A69E5142405F50EE43515F50F780EC3
:102F9C00121A69851482851583A3A3124449AA0CBD
:102FAC00AB0D1206DF74061217FC8A0E8B0FEA4B60
:102FBC0070030230FAEA2404F516E4350FF5178590
:102FCC001682F583E0F50CA3E0F50D8518828519C2
:102FDC0083121A80AC0EAD0F8510828511831237C7
:102FEC007E1217FCE9F50960030230FA740212181C
:102FFC00321237A8F5097809121A6DE4F512F51397
:10300C007812121A697512EE7513027812121A6977
:10301C009002EF121A807407121832121A80EEF90D
:10302C00AC0EAD0F1237E11217FCE9F50960030283
:10303C0030FAE508703BE4F50EF50F780E121A69BC
:10304C007CFF7DFF79091237F01217FC8B0FA90F4B
:10305C009002F3122EFF700D740412183212313CD0
:10306C00791102312B9002EEE024029002F2F080F2
:10307C00149002F2E0FA9002EEE079002402500182
:10308C00096A49706DA8089002EEE0FAE82AFAE4A1
:10309C003400FBEE9AEF9B4055851682851783E032
:1030AC00C0E09002F3122EECD0E0F00508851682F9
:1030BC00851783A3E0C0E0089002F3122EECD0E059
:1030CC00F005089002EE124425121A69124446A823
:1030DC000812312E1217FC9002EEE02508F5087448
:1030EC00FF650C700474FF650D6003022F5DE5082D
:1030FC00601C9002F2E0F5F0E5088412314F1204E6
:10310C0027E960069002F3123DB879008011E509B9
:10311C00700375090A740412183212313CA90902A1
:10312C0037689002F3E028FAA3E03400124403223B
:10313C00124432E50CF0A3E50DF022A3A3EAF0A3B0
:10314C00EBF0229002F1F07CF17D0285108285116A
:10315C008312316122123AF5FB2274EC1218567468
:10316C00FC1217E6123C15740212184C850A828563
:10317C000B831233357003023226123236A818A98B
:10318C0019881089117810121A697CFF7DFF790B50
:10319C008508828509831237F61217FC12324070AB
:1031AC000B850A82850B831237FF807B8E828F837F
:1031BC00A3A3A3A3E0F5127812121A6DE4F512F58D
:1031CC00137812121A697512F17513027812121A09
:1031DC00697810121A697409121832121A8074095B
:1031EC0012183212332E8508828509831237E712A2
:1031FC0017FCE9FE70157CF17D0285088285098338
:10320C001234E012042DE97009801A74166E7002E3
:10321C007E00123DB5EE7004800B7E01850A82851E
:10322C000B83123B02EEF9023B17EE2402F508E485
:10323C003FF509228A108B119002F2EAF0A3EBF011
:10324C00EA4B2274EC12185674FC1217E6EAFEEBE9
:10325C00FF8C0E8D0FEA2405F508E43FF509740286
:10326C0012184C850882850983123335700302339A
:10327C001EEE2402F50AE43FF50BA818A9198810D4
:10328C0089117810121A697CFF7DFF790D850A82ED
:10329C00850B831237F61217FC123240700B85081F
:1032AC00828509831237FF80768E828F83A3A3A336
:1032BC00A3E0F5127812121A6D850882850983A392
:1032CC00A3121A807512F17513027812121A69780A
:1032DC0010121A697409121832121A807409121811
:1032EC003212332E850A82850B831237E71217FCB4
:1032FC00E9FE700F7CF17D021234DA120433E970AE
:10330C0009801A74166E70027E00123DB5EE7004C0
:10331C00800B7E01850882850983123B02EEF9023F
:10332C003B17E0F9AC0CAD0D22123AED8A0C8B0D6B
:10333C00EA4B2274E812185674FE1217E68A168BA2
:10334C00178C148D15EA2405F50CE43517F50DEAE8
:10335C002402F50EE43517F50F850E821234E48A3B
:10336C00088B09750B007C037D0079007AF17B02D8
:10337C001211FB750A00E50814F5100424FFF5087A
:10338C00E50934FFF509804C9002F1E0FA9002EE69
:10339C00E0F8EA28F8E43400F9E50898E5099950D2
:1033AC000D9002F1E0F8E510C3989002EEF0E0F514
:1033BC00127513007812121A691244469002F2E048
:1033CC002A1231331217FC9002EEE0F89002F1E071
:1033DC0028F0050A850C82850D83A3A3123DAE400F
:1033EC00030234BF9002F1E0C39508E49509400351
:1033FC000234BFAE0AEE2EFEE433FF123501AC18D8
:10340C00AD19124453E439FB1206E58A128B13AC46
:10341C0012AD13EA4D701B750B011234F2123B0600
:10342C009002F2122A8E600312126DA90B74020222
:10343C00376A851682851783A3A3A3A3E0F50B78BF
:10344C000B121A6DE4F512F5137812121A69751233
:10345C00EE7513027812121A699002EF121A807428
:10346C0007121832121A80A910850E82850F83124A
:10347C0037E71217FCE9F50B70A0123EA1600302AE
:10348C003394E4F512F5137812121A697CFF7DFF60
:10349C00790F850E82850F831237F61217FC8B136A
:1034AC00A913122EFC60030233941234F212380367
:1034BC000234397CF17D02850E82850F831234E053
:1034CC00120439E9600302342C7900023439850A7C
:1034DC0082850B83123161221234E822F583123A71
:1034EC00F5FB1204FF22123501123AF5F9EA8514A4
:1034FC008285158322850C82850D83E02EF8A3E04E
:10350C003F8882F5832274E812185674FA1217E673
:10351C0074041218321231498C168D177404121857
:10352C0032E02405F50EA3E03400F50F74041218F4
:10353C0032E024021237721237877F007E00A818FF
:10354C00A919880889097808121A69850E82850FCD
:10355C0083A3A3A3A3E0F5088F097808121A69E5E1
:10356C000E2405F508E4350FF5097808121A69855B
:10357C000E82850F83A3A31237CF1217FC8A0C8BF4
:10358C000D80241237A2F00F1237A2F00F9002EE2A
:10359C00123AD8121A69124446EFF812312E121749
:1035AC00FC9002EEE02FFFE50C450D607A85188249
:1035BC00851983121A80AC0CAD0D85148285158388
:1035CC0012377E1217FCE9FEE50C2404F510E435E5
:1035DC000DF511E9704B74041218321237A8F50866
:1035EC007808121A6DE4F508F5097808121A69754D
:1035FC0008EE7509027808121A699002EF121A8007
:10360C007407121832121A80E50A24FAF9AC0CADC0
:10361C000D8514828515831237E71217FCE9FE60BD
:10362C00361237BE123B05EF70030237559002F28B
:10363C00E0F5F0EF849002F1F07CF17D02851482CC
:10364C008515831234E012043FE960069002F312F0
:10365C003DB87900023768EFF508703DE4F512F5D6
:10366C00137812121A697CFF7DFF791185148285FB
:10367C0015831237F61217FC8B13A9139002F31251
:10368C002EFF70091237BE1238020237689002EE14
:10369C00E024049002F2F080359002EEE0F8900203
:1036AC00F2E0FCE82404FAE43400FBEA6C4B60031F
:1036BC00023639E50A24FAFAE50B34FFFBE5082853
:1036CC00F8E43400F9EA98EB995003023639851086
:1036DC0082851183E0C0E09002F3E02FF8A3E03480
:1036EC00008882F583D0E0F00F851082851183A3CA
:1036FC00E0C0E012378FD0E0F00F740212183C8853
:10370C000889097808121A697402121832121A8080
:10371C00850E82850F83A3A31237B11217FC8A0C76
:10372C008B0DEA4B700302358F7402121832E0C015
:10373C00E012378FD0E0F00F7402121832A3E0C001
:10374C00E012378FD0E0023597EE70027E0A850EBC
:10375C0082850F831237C4123B05EEF974061217DB
:10376C00FC7F10021928F514A3E03400F51585141C
:10377C0082221231611206CD7402221234E88A0AB6
:10378C008B0B22123793229002F3E02FFAA3E03432
:10379C00008A82F5832212379374FF22124432A3DB
:1037AC00A3A3A3E02212444DAA0CAB0D1206EB749A
:1037BC0004228510828511831245DBF985168285DA
:1037CC0017832212444D850E82850F8312316112AC
:1037DC0006DF74062285108285118312316112086E
:1037EC00477409228510828511831231611207B149
:1037FC00740222123B0BE8F0A3E9F079112274EA6F
:10380C0012185674FE1217E68A088B098C128D1347
:10381C00EA2405FEE43509FF123AE18A0C8B0DEE21
:10382C002406F50EE43FF50FEA4B70030238F0E581
:10383C00082402F50AE43509F50B8A828B83A3A3CD
:10384C00A3E0A2E5502212391A8A108B11EA4B60C0
:10385C00247912AC0CAD0D1234DA851082851183EB
:10386C00121854E9F50C707F850E82850F83E06089
:10387C000979528011750C0E806D8508828509833B
:10388C00A3A3A3A3E0F9E4F508F5097808121A69D3
:10389C008E828F83A3A3E0F5087808121A698E82B2
:1038AC008F83A3A3A3121A808E828F83124449851F
:1038BC000A82850B83123C271217FCE9F50C701158
:1038CC00850E82850F83E0702C1234DA1204458049
:1038DC00247416697011750C007418121832124485
:1038EC002EE48010750C011245D18512828513834C
:1038FC00E8F0A3E9F0850E82850F83E0600479007F
:10390C008002A90C74021217FC7F0E02192885186C
:10391C008285198312316112083B2274EC121856FD
:10392C0074F71217E68A0A8B0B8C108D11EA24059A
:10393C00FEE4350BFF750C00123AE18A088B09EA9C
:10394C004B7003023AC3E50A2402F50A5002050B38
:10395C008A828B83A3A3A3E0A2E5502512391A8A8D
:10396C000C8B0DEA4B604F7912AC08AD091234DAAE
:10397C00850C82850D83121854E9F50C6003023A0C
:10398C00C6850A82850B83E0F508A3E0F509AA0831
:10399C00FB12082FEA4B70197AFF7BFF12082FEAF3
:1039AC004B7003023AB98A828B83E508F0A3E509D0
:1039BC00F07508008008750C0E023AC605089002D6
:1039CC00EBE0F8E508C3984003023AB9E508F50EB8
:1039DC00750F007403780E1217D38A828B83A3A3FE
:1039EC00E0250EF8A3E0350F123E9670CF8E828F35
:1039FC0083123AFA1231498E828F83A3A3123AFAB8
:103A0C00123147EE2404F508E43FF509850882F5E8
:103A1C0083E088828983A3A3A3A3F0A3E4F0EE241C
:103A2C0005F50EE43FF50F850E82F583123AFAA3E5
:103A3C00A3A3A31231477512077513007812121A3B
:103A4C0069EEFCEFFD74041218441244041217FCC6
:103A5C00E4F5127812121A69850882850983E0FC54
:103A6C007D007917850A82850B831237F61217FCB5
:103A7C007407121832123247603885088285098320
:103A8C00123AD8121A69850E82850F831244491294
:103A9C0044041217FC740212184C1234DA12044B40
:103AAC00E960237407121832123DB88019750C099D
:103ABC008008750C118003750C011245D18510829C
:103ACC00851183123B05A90C74098041E0F508753A
:103ADC000900780822AC18AD198E82F583123AEDE4
:103AEC0022123AF5FB1206E522E0FAA3E02212318B
:103AFC00618882898322123B0BE8F0A3E9F022E073
:103B0C00F8A3E0F9850E82850F832274041217FC4A
:103B1C007F0C02192874EC121856123C1575100003
:103B2C00EA2402F50CE43FF50D850C82F583123482
:103B3C00E012082F8A088B09EA4B7003023BF985C7
:103B4C000A82850B83E064016003023BEEAC08AD96
:103B5C0009AA0AAB0B120823E9606F850882850954
:103B6C0083122EDFEE2406F50AE43FF50B8E828FCE
:103B7C0083A3A3121A808E828F83A3A3A3A3121AEA
:103B8C0080850A82850B83121A8079188E828F8326
:103B9C00124449850C82850D83123C271217FCE9CF
:103BAC00F8741668700B850A82850B83E4F0A38089
:103BBC0014E960128E828F831234E0850E82850F99
:103BCC0083EAF0A3EBF089108018780E121A69AC16
:103BDC0008AD09EEFAEFFB12082974021217FCE982
:103BEC00F510AA08AB09120835E510700E850C8289
:103BFC00850D831234E0120451800974166510701F
:103C0C0003751000A910023B1CEAFEEBFF8C0E8D15
:103C1C000FEA2405F50AE43FF50B22123161120874
:103C2C004D74062274EA1218567508007509007E48
:103C3C00007F00750A00EC2402F510E43DF51180BC
:103C4C0035EC65087003ED65096003023CE588827C
:103C5C008983A3A3E06A7003A3E06B707C888289DC
:103C6C0083A3A3A3A31245D5EE28FEEF39FFEA28C0
:103C7C00FAEB39FB050A123DAB503BE50AF50C7526
:103C8C000D007403780C1217D385108285118312E2
:103C9C003D9E123E96601FE508450970A48C088D68
:103CAC000988828983122EDD88828983A3A3E02E62
:103CBC00FAA3E03F80BDE50AC394025003023D998C
:103CCC00750800750900EE4F600FEEFAEFFB12124B
:103CDC00678A0E8B0FEA4B70057900023D9B750BC2
:103CEC0000807FE50BF50C750D007403780C121732
:103CFC00D3851082851183E0250CF50CA3E0350DDE
:103D0C00F50DE50C2406F514E4350DF51585148236
:103D1C00123E99603AE50C2404F512E4350DF513C6
:103D2C00851282F583121A80E50E2508FAE50F122A
:103D3C0043FD1217FC851282851383E02508F508D4
:103D4C00A3E03509F509851482851583123DB8E584
:103D5C000B600D7C087D007900AA0CAB0D1211FBD9
:103D6C00050BE50BC3950A5003023CEF85108285C9
:103D7C0011831245D58882F583A3A3A3A3A3A3E53E
:103D8C000EF0A3E50F122A95EEF0A3EFF0790102E5
:103D9C003915123DA222E0250CF8A3E0350D229036
:103DAC0002EBE0F8E50AC398229002F2123161129C
:103DBC00126D2274F01218568A0E8B0F8C0A8D0B12
:103DCC00750D00750C00804A7916EE2406F508E492
:103DDC003FF5098E828F83A3A3121A808E828F8364
:103DEC00A3A3A3A3121A80850882850983121A80C3
:103DFC00850E82850F83A3A3123C271217FCE9F5CD
:103E0C000D7416697064850882850983E4F0A3F04B
:103E1C00050C9002EBE0F8E50CC398505EAA0C7B05
:103E2C00008A088B09740378081217D3850A8285D7
:103E3C000B83A3A3123EF0E8FEE9FF123E97603B12
:103E4C00EA24010A50010B9002EBE06A7001EB606E
:103E5C001488828983A3A3A3A3A3A3A3A3123EA420
:103E6C006003023DD47918023DD6E960A31245D116
:103E7C007410121832123E8E123B05A90D7F0802E7
:103E8C001928123AF5F5838A8222F98882F5831271
:103E9C00444DEC4D229002F21245DBF9E8492274B4
:103EAC00F61218567C0080010C900348E0F8ECC325
:103EBC0098501FECF508750900740278081217D396
:103ECC00123EE5E06A7003A3E06B70DCE8FAE9FBF4
:103EDC0080047A007B00023F819002E9123EF08858
:103EEC0082F58322E02508F8A3E03509F92274F263
:103EFC001218568A088B09750A0080278E828F83C8
:103F0C00A3A3A3A3122A8C600312126D7C087D005C
:103F1C007900EEFAEFFB1211FB8E828F83E4F0A393
:103F2C00F0050A123DAB5028E50AF50C750D00742E
:103F3C0003780C1217D3850882850983A3A3E02587
:103F4C000CFEA3E0350DFF8E82F583123EA470ACFF
:103F5C0085088285098374FFF0A3F00246BE74F6CF
:103F6C0012185612457270067A007B008007A3A3C4
:103F7C00A3A31234E07F0202192874F6121856E932
:103F8C00FE8C828D83E06402703D124562F508A3BD
:103F9C00E0F9A8087402687003742969702975081F
:103FAC00027509007808121A69740E121832121A66
:103FBC0080740E121832121A80EEF91210F3740675
:103FCC001217FCE9F98002790180AA74E8121856DC
:103FDC0074FB1217E6E9851882851983F08A168B13
:103FEC0017ECFEEDFF7510008C82F583A3A3A3E004
:103FFC00A2E4502A741D1218321239208A828B8343
:10400C00E582458370030243F3790AEEFCEFFDAAC7
:10401C0016AB17121854E9F51060030243F6741F1F
:10402C00121832E0F508A3E0F5097421121832E0F9
:10403C00F50AA3E0F50B7423121832E0F50EA3E099
:10404C00F50F8E828F83E06402600302439FA312FC
:10405C0045D5850882850983A3858212858313EE55
:10406C002406F50CE43FF50D88828983124453F540
:10407C0014E439F5157814121AF3010000280128FC
:10408C00AE40070002287A410328E34000299B42F6
:10409C000129C6420229644203299B4204293C435C
:1040AC009F43E50E450F600302439A850C82850DF4
:1040BC00831245D5E8FAE98882F583E0850A828582
:1040CC000B8312445D12440A121A698A828983A3F3
:1040DC00E0FCA3E0024328E50E450F600302439A7F
:1040EC00850A82850B837401F012443B8508828516
:1040FC000983F07C007D008E828F83A3A3A3A3E0B1
:10410C002401FAA3E03400FB1206E5EA4B60458A71
:10411C00828B83E02402F8850A82850B83E028F0E9
:10412C00EA2404F8E43BF98882F583E08512828561
:10413C001383124463F08A828B8312440A121A6925
:10414C008A828B83A3124449E5082403FAE43509D7
:10415C00FB02432D850A82850B83E02404F07C044A
:10416C007D007900AA12AB131211FB0243F6E50E87
:10417C00450F600302439A12443BFEA3E0FF850AFD
:10418C0082850B837404F0EE850882850983F0EF39
:10419C00851282851383F0740312184C12455470E7
:1041AC00030242458A828B83A3A3122EDD74011273
:1041BC00183C880E890F780E121A69740512183281
:1041CC00121A807CFF7DFF1206EB74041217FCEAB6
:1041DC004B7033850C82850D83124425121A698528
:1041EC000C82850D83A3121A807C027D007AB47B2D
:1041FC00821204ED74041217FCE9700A740112188F
:10420C003274FFF0A3F08E828F83E06402703475F9
:10421C000C02750D00780C121A698E828F83A31212
:10422C004449E5082404FAE41243FD1217FC850AFC
:10423C0082850B83E0240280097401121832EEF09F
:10424C00A3EFF0740112183212441BF0740112180F
:10425C0032A3124413024394E50E450F600302434C
:10426C009A850C82850D8312442E124449AA16ABF2
:10427C00171210F9850A82850B837402F085088267
:10428C00850983EAF0851282851383EB024397E557
:10429C000E450F600302439A12443BF8A3E0F985E4
:1042AC000A82850B837402F0E8850882850983F005
:1042BC00E9851282851383024397850C82850D83D1
:1042CC001234E01211DDEAF8C3950EE4950F405A52
:1042DC00EA650E450F7004780080218518828519D7
:1042EC0083E0FCE50E2CFCE4350FFDC3EC9AED9459
:1042FC00005003E08005E50EC8C398F8E8850A82F3
:10430C00850B83F0F50A750B00780A121A69850C77
:10431C0082850D83E0250EFCA3E0350FFDAA08ABCA
:10432C00091244041217FC0243F67510070243F6F7
:10433C00E50E450F7058850C82850D831245D58589
:10434C000A82850B83740712445D12441312445D78
:10435C00A3E0851282851383F0E82402FAE439FB8A
:10436C008A82F583124413A312297412441B122A55
:10437C009412441FF0E82405F8500109F582898352
:10438C0012441FA3124463A3A3A3A3F0805C751073
:10439C000B8057741D12183212456B604A1245DBA4
:1043AC00880CF50DE8450D603E7425121832E0F5C9
:1043BC00107810121A6D780E121A69780A121A698E
:1043CC007808121A697407121832E0F9EEFCEFFD46
:1043DC00AA16AB17850C82850D831218547407121C
:1043EC0017FCE9F510800375100EA910740502373F
:1043FC006A350912440322FB1211E3740222E0F520
:10440C000A750B00780A22E085088285098322123E
:10441C00446D2212446DA3A322E0F50E750F0078B3
:10442C000E2212443222E0F8A3E0F5838882228522
:10443C000C82850D83124432E0229002EF12444D1F
:10444C0022E0FCA3E0FD22123AF5F8E4C8F9EA28D0
:10445C0022F08882898322F088828983A312446D9A
:10446C0022E0850882850983A3A32274EE121856D4
:10447C0074FE1217E68A088B09ECFEEDFF890AAC74
:10448C0018AD1912455470030245458518828519DB
:10449C008312456B7003024540A31245DA880EF572
:1044AC000FE8450F70030245407414121832E0F502
:1044BC0010A3E0F511E50AF50B780B121A6D7419BF
:1044CC00121832121A807810121A69741B121832D0
:1044DC0012332EAA08AB09850E82850F831218544D
:1044EC0074051217FCE9F50B705274FE650A604CEA
:1044FC00850C82850D83E064027041124562FAA33B
:10450C00E0F9EAF87402687003742969702E85105A
:10451C0082851183124453F50CE439F50D780C1295
:10452C001A69EEFCEFFDAA08AB09120865740212B9
:10453C0017FC8008750B0E8003750B01A90B740218
:10454C001217FC7F0A021928EEFAEFFB1206E58A15
:10455C000C8B0DEA4B221245DA8882F583E022128D
:10456C003161124572221207E18A828B83E5824502
:10457C00832274F612185674FE1217E6740C121875
:10458C00321245D5E8851882851983F0740112180A
:10459C0032E9F0E4F508F5097808121A6975080291
:1045AC007808121A69740412183C8808890978086A
:1045BC00121A6979FE12084D74061217FC74021255
:1045CC0017FC023F818E828F831245DBF922A3E018
:1045DC00F8A3E02274F7121856EAFEEBFF89089054
:1045EC0003061244491210F9EA5402600BA908EEB2
:1045FC00FAEFFB1206D9800279017F0102192874A7
:10460C00F212185674FE1217E6EAFEEBFF740169FB
:10461C00601374026960030246B97901120A69E9F0
:10462C0060030246B9EEFAEFFB12082FEA4B600367
:10463C00120835A818A919880889097808121A6966
:10464C007508027509007808121A697508BC750995
:10465C00827808121A697CFF7DFF7A017B001206B2
:10466C00DF74061217FC803B850882850983A3A39F
:10467C00A3A3A3A312442E124449EEFAEFFB12108B
:10468C00EDE4F50CF50D780C121A6974021218325F
:10469C00121A807CFF7DFFAA08AB091206EB74048A
:1046AC001217FC8A088B09E508450970BB740212C5
:1046BC0017FC7F0602192874F41218568A088B0905
:1046CC00ECFEEDFF9015E9E0F460487A097B0012EE
:1046DC00120DEA4B603D8A828B8374B1F0A3E41215
:1046EC004722122975A3E508F0A3E509124722A376
:1046FC00EEF0A3EFF0740C1218321245D58A828BAF
:10470C0083A3A3A3A3A3A3A3123B059015E9E0F9EC
:10471C00121219022ACAF08A828B83A3A3A3A322A2
:10472C00C082C0839061907404F0A37448F0A374A9
:10473C0002F09061807440F09061BC7403F0906161
:10474C00877419F0906265741BF0906249E0C39411
:10475C001390619C40107409F09060667401F090A5
:10476C00619F7428800D740BF0906066E4F090618A
:10477C009F742CF01249117009C29190037A7467DE
:10478C00800590037A7461F09027B6E4939061866B
:10479C00F09027B0E493F46006E493F9120B5F7980
:1047AC0005120E1D024B7AC082C083E9540FF9909A
:1047BC006185E0696012E5C654B84441F5C6E59ED2
:1047CC005447644170F8E9F053C6B8E59E544770FD
:1047DC00FA024B7AC082C083A8A853A87E9061814C
:1047EC00E41255EFC2BA539AFEC289759B00C2C23D
:1047FC0075E90075910075BF0075A91175B9059023
:10480C006181F0A374C0125D73D2BA439A017480B3
:10481C005842A8024B7AC082C08374F81217E690F3
:10482C00037812600870030248F2900378E0544059
:10483C0060177908AA18AB19120C5BAA18AB1912DD
:10484C0008D1900378E054BFF0E054806010790CEC
:10485C007A477B05120C5B900378E0547FF0E0A262
:10486C00E050191249117009C29190037A74678053
:10487C000590037A74611248FA54FEF0E054026019
:10488C00191249567009D29190037A74718005906F
:10489C00037A746A1248FA54FDF0E05404600990EB
:1048AC0027B412490354FBF0E0540860099027B573
:1048BC0012490354F7F0E0541060099027B61249DE
:1048CC000354EFF0E05420600A1208DD900378E006
:1048DC0054DFF0A3E05401600D120B7D1208E3903D
:1048EC000379E054FEF074081217FC024B7AF012B4
:1048FC0008D7900378E022E493906186F01208DDEB
:10490C00900378E02290619A124B4E900521E0645E
:10491C000122C082C083E960051460178029124906
:10492C00117009C29190037A7467801A90037A749B
:10493C006180131249567009D29190037A74718078
:10494C000590037A746AF0024B7A90619A124B408C
:10495C00900521E064012274EA12185674F41217BF
:10496C00E690824EAC18AD1974041216F99027B467
:10497C0093F46003024AD5907808E0C39402500384
:10498C00024AB99081E6740412184C74081216F994
:10499C00A818A91988148915740412183C88088958
:1049AC0009AE08AF097510FF7511FF750EFF7C007D
:1049BC00750C48750D78801274086C7003024A4EA1
:1049CC0074096C607D740A6C6078850C82850D832B
:1049DC0078081216928E828F83A909E50AC9F512FE
:1049EC00741878081215BBE5124508F8C3E098A3B3
:1049FC00E099850C82850D83780812169240188EEA
:104A0C00828F83741878081215BBE5124508F8E0FC
:104A1C00C398F8A3E0801A741878081215BBE51235
:104A2C004508FAE9FB8E828F83125C87EAC398F8FB
:104A3C00EB99F9C3E89510E9951150068810891186
:104A4C008C0E0CE50C2404F50C5002050DECC394F3
:104A5C001350030249C474FF6510700474FF651190
:104A6C006025E50EF508740278081217D3744825F2
:104A7C0008F58274783509F5837808121692851436
:104A8C0082851583E508F0EE2402FE50010F851493
:104A9C0082851583A3858214858315740C121832B4
:104AAC00E5826E7003E5836F60030249B1750801FE
:104ABC007509007808121A69740212184C7AED7B89
:104ACC000912114774021217FC740C1217FC7F0E9A
:104ADC00021928C082C0839061AE7468F0A3746A16
:104AEC00F090624574FBF0A304F053F4FD43FE0216
:104AFC009005217401F09061A0E0643A90619A7085
:104B0C0019124B4E740164017009C29190037A74AE
:104B1C0067801E90037A74618017124B4074016495
:104B2C00017009D29190037A7471800590037A74A4
:104B3C006A024D69743FF0A3745AF09061A0747FBF
:104B4C00F0227433F0A37455F09061A0743AF02203
:104B5C00C082C0839004D3E06401700A9004D8E052
:104B6C006004790C800279008004A2E092AFD083BB
:104B7C00D08202011FC082C08375E1F19004D6E09F
:104B8C00605314600914605714604F147056120B64
:104B9C008F9004C5E0F97AC67B04120D9F90827643
:104BAC001216B0120DD59082421216B0120DAB90A7
:104BBC0004D7E0F9120DB77901120E119004C3124B
:104BCC004ED7241AF582E438F58374A7F0A3740B3E
:104BDC00F079008099120B9580B7120B9B80B21262
:104BEC000BA180AD791280EB74F412185675D90DA7
:104BFC009004CCE0A2E0E4331313F8124DC4484403
:104C0C0001F5D97582C6758304124DCE7004E58307
:104C1C00640470F57582CD758304124F30E582649F
:104C2C00D37004E583640470F175E1959004CCE0D5
:104C3C00F97ACD7B04120DA590160D7435F0A37482
:104C4C000B124D18124D56124D4D124E9F9004D60C
:104C5C00E064019004C3700B124CA912169290825E
:104C6C00868009124CA9121692908282780812162C
:104C7C000690823E780812166C9004C3125B83E493
:104C8C0038F58378081216A19004C3124ED7124D32
:104C9C00447413F09003767402F0025C74125F900B
:104CAC00A3A3780822C082C083124DB4F5D97582B3
:104CBC00C6758304124DCE7004E583640470F590C0
:104CCC0004DCE0600A78C37904FA124E68DAFB124D
:104CDC004E57124DCE7004E583640470F59004FCBD
:104CEC00E0600D78C37904FAE8243A124E6BDAF8D6
:104CFC0075E19590160D7441F0A3740B124D1812BA
:104D0C004D227412F090037674018051124E887407
:104D1C003BF0A3740B22124D56124D4D124EA39024
:104D2C0004C3125B87E438F58374FF1255DD9004DD
:104D3C00C3124EDB124D44222414F582E438F58361
:104D4C0022F0A37453F0A3740B22124D5A22124D6D
:104D5C005E22F0A374BBF0A3740C22F0A3F0024B00
:104D6C007AC082C083124DB44402F5D97582C675DF
:104D7C008304124DCE7004E583640470F59004DC5A
:104D8C00E0600A78C37904FA124E68DAFB75E19593
:104D9C0090160D124DD7F0A3124DD7124D25741449
:104DAC00F0900376740480B59004DC124DBB22E0C5
:104DBC002407F5D9124DC4229004C5E0C4333354F2
:104DCC00C022E0F5D9A3E58264CC22744D124DE4E7
:104DDC00124DE4F0A3740B22F0A3740BF0A3744DEA
:104DEC0022C082C083124DB44406F5D97582C675B3
:104DFC008304124DCE7004E583640470F59004DCDA
:104E0C00E0600A78C37904FA124E68DAFB124E5746
:104E1C00124DCE7004E583640470F59004FCE060E0
:104E2C000D78C37904FAE8243A124E6BDAF875E17E
:104E3C009590160D7447F0A3740B124E7E124D22F2
:104E4C007415F09003767403024D699004FC124DB6
:104E5C00BB4404F5D97582C675830422E8241AF57F
:104E6C0082E439F583E0F5D988828983A3A882A9E5
:104E7C008322124E8874BBF0A3740C22124E8C2227
:104E8C00124E9974BBF0A3740C124E9922124D5E03
:104E9C00F0A322124EA322F090161B74BBF0A37445
:104EAC000C124E8C74BBF0A3740C124D5AF022C031
:104EBC0082C0839004C3124ED72406F582E438F5E1
:104ECC0083E4024D67851882851983124EDB22E03C
:104EDC00F8A3E0C82274F71218569003A4125C7958
:104EEC0074A628F8740339F9E82405FAE439FB8A26
:104EFC0082125D59A3A3A3A3A3A3A3A3A3125FEF41
:104F0C00A3A3A3A3A3A3A3E024FFF8A3E034FFF976
:104F1C008A828B83125FC10251157C017903120CBA
:104F2C00AF740222E0F5D9A3221252503BF583E074
:104F3C0022F0EA2484F582E43BF583E022EAF8EEE1
:104F4C0028F8E43BF9E82274F7121856EAFEEBFF56
:104F5C009061D0E0706875D90E75D90375D9047A53
:104F6C0000124F49248D124FE440F67A00124F493B
:104F7C002485124FDE40F675E1957908EE248D12EA
:104F8C004FD72485124FCF7C00ECF8C3E498FA95E8
:104F9C00E0FBEE2AFAEF3BFBEA248C125F65C0E0E3
:104FAC00EE28F8E43FF9E824ACF582E439F583D037
:104FBC00E0F00CECC3940840D01250D7800279007A
:104FCC00025115FAE43FFB120C4F22124FCF790419
:104FDC00EE22124FEA940422124FEA940822F58230
:104FEC00E439F583E0F5D90AEAC322C082C083759F
:104FFC00D90275D90375D90575E195EA12506F3B45
:10500C00125C85EA2471F582E43B1250E4024B7A7F
:10501C0074F6121856EAFEEBFF9005277406125030
:10502C007E121A69124F261217FC75D90675D90310
:10503C007582277583051250757004E583640570BD
:10504C00F575E195900376E06408701112506E3F8F
:10505C00125C85EE2471F582E43F125FBF79010288
:10506C0051C3EE246FF582E422E0F5D9A3E5826406
:10507C002C22F075082775090578082274F6121889
:10508C0056EAFEEBFF9061D0E07033780190052773
:10509C00740BF0900376E06407701375082775099C
:1050AC00057808121A69124F261217FC780512534C
:1050BC003B124F30DAFB75E1951250D78002790024
:1050CC000251C375E1957904120DDBEE246F126069
:1050DC000EEE2471F582E43FF583E8F0A3E9F07954
:1050EC00012274F7121856EAFEEBFF75D90375D935
:1050FC000375D90DEA24DF125E52F5D91250CF8018
:10510C0008F0EEA2E092AF79007F01021928E8C303
:10511C009A95E0C365D0332274F612185612524495
:10512C0060047A0F80027A0B12511A40437C09906A
:10513C000527EC1251951251A4DDFB125E4F60193C
:10514C007508277509057808121A697903EEFAEFC4
:10515C00FB124F2A1217FC7C0D12518012523B701D
:10516C00FB75E1957904120DDB1252C479018002B2
:10517C00790080431251868C082274012CF5D97564
:10518C00D90375822775830522F0EE24E4F8E43FF9
:10519C00F97A287B057D082288828983E08A828BB4
:1051AC0083125FF7A3A882A9838A828B83A3AA8226
:1051BC00AB8322A2E092AF7F0202192874F6121878
:1051CC005612524460047A0C80027A0812511A402A
:1051DC005A7806900527740CF0900393E0900528FC
:1051EC00F0900394E0900529F0900395E090052A47
:1051FC00F0900396E090052BF0900397E090052C2F
:10520C001252D860197508277509057808121A69A1
:10521C007C067903EEFA124F2A1217FC780A125206
:10522C00D212523B70FB1250CF800279008088E082
:10523C00F5D9A31508E50822EAFEEBFF1252503F00
:10524C00F583E0229061D0E0F87480C398F8EA24EA
:10525C0084F582E42274F612185612524460047AD1
:10526C000880027A0412511A40497802900527E806
:10527C00F0EE24F6125E529005281252D860197581
:10528C0008277509057808121A697C027903EEFA69
:10529C00124F2A1217FC78061252D212523B70FB94
:1052AC0075E1951252C47904120DDBEE240D1250E7
:1052BC00DA800279000251C3EE241DF582E43FF539
:1052CC0083E4F0A3F022125341880822F0EE2484E8
:1052DC00F582E43FF583E02274F6121856124F352E
:1052EC0060047C0880027C04E8C39C12511D403A87
:1052FC0078029005277407F0EA24F7125F65900591
:10530C0028124F3D60157508277509057808121A83
:10531C00697C02124F281217FC780612533B124F6D
:10532C0030DAFB75E1957901800279000251C312E4
:10533C005341E8FA22740128F5D975D903758227EF
:10534C007583052274F6121856E9FEA2AFE433FDFC
:10535C00C2AF7C0080010C125F62F8ECC398501451
:10536C00ECF8EA124F4C246AF582E439F583E06ECE
:10537C0070E48018EA246EF8E43BF9E0F508EA25BD
:10538C0008FAE43BFB125429EE1254E0ED0251BF33
:10539C0074F6121856EAFCEBFDA2AFE433F508C222
:1053AC00AFEA246EF582E43DF583E014F0EA246A5A
:1053BC00FAE43DFBEA2403F8E43BF9E8FEE9FF8A52
:1053CC00828B83A3A882A983E08A828B83F0E8FA7C
:1053DC00E9FBEE6A7002EF6B70E5EC246DF582E48C
:1053EC003DF58374FFF0EC2469F582E43DF583E42C
:1053FC00F0E5080251BFC082C083A2AFE433F8C20B
:10540C00AF125429E9F0EA2469F582E43BF583E410
:10541C00F0125F6270037401F0E8024B76EA246AC2
:10542C00F582E43BF5832274F3121856EAFEEBFF87
:10543C00ECFAEDFB8C82F583A3A3A3A3E0541FF03D
:10544C00EE2436F582E43FF583E4F0750800EE2493
:10545C005DFCE43FFD8A828B83E08C828D83F0754A
:10546C000900E50833333354F8F50C8A828B83E05A
:10547C00F50A750B00E509780A1217B4E50AA2E0E3
:10548C005027EE2436F8E43FF98882F583E0F50ADC
:10549C00EE250AF50AE43FF50BE50A2438F582E41B
:1054AC00350BF583E50C1254E00509050CE509C331
:1054BC00940840B705088A828B83A3AA82AB838C9D
:1054CC00828D83A3AC82AD83E508C3940540867FAF
:1054DC0005021928125FF7E004F022C082C0839005
:1054EC0003A2E0640170030255D57C009003A8E090
:1054FC0060030255D5125D71A3F090040804F0907E
:10550C00040DF09003AB1255DC9003B504F090033E
:10551C00DBE4F09003BE1255E3A3F0900426F09068
:10552C00041AF0900429F090040E7480125D7390AC
:10553C000414F09004921255F590049BF090042AF8
:10554C00F090047A1255F5A3F0A3F0900486F09035
:10555C000488F0900484F090049E1255F59004B1E8
:10556C00F09004AB1255E374FF9004107804F0A390
:10557C00D8FC7A037B0478B679041251A4E864BB96
:10558C007003E9640470F3788A790388828983E074
:10559C00C0E0ECFA748A2AF582E43404F583D0E096
:1055AC00F00C88828983A3A882A983ECC394084059
:1055BC00DA9003A2E004F0640170089003AAE09072
:1055CC0003A4F07AA67B0380047A007B00024B7A5A
:1055DC00E41255EFA3F0221255E7221255EFA31255
:1055EC0055EF22F0A3F0A3F0221255E7A3F0A3F09D
:1055FC0022C082C0838A828B83A3A3A3E0600F8A1C
:10560C00828B83A3A3A3E4F09003A3E014F0900394
:10561C00A2E014F070069003A474FFF08A828B83CE
:10562C00A3A3E4F09004BBE0700D9003A3E064012D
:10563C0070057900120DBD024B7AC082C0839003B5
:10564C00A9E4F09003A8F09003A2F0A3F0A374FFD8
:10565C00F075E1F1024B7A74E812185674F41217D3
:10566C00E6851882851983EAF0A3EB125C05125BC0
:10567C00AF1216BC74021218321216C888828983B3
:10568C00A3A3A3A3A3A3125C877406121832125F00
:10569C00C17424121832121A7C74061218321216A3
:1056AC00B012247D74041217FCE96003025B101223
:1056BC005BD9121A7C74281218321216B01224D923
:1056CC0074041217FC8A088B098C0A8D0B125BEE82
:1056DC0070030259B2124ED12475F582E438F58369
:1056EC00C082C083851882851983125BA3A3125CC8
:1056FC0087D083D082E0C398F50CA3E099F50D1206
:10570C005BEE64028518828519837008125B83E84E
:10571C0034018003125B99F583E0F510A3E0F511D9
:10572C00850C14850D15751600751700E4F512F52A
:10573C001378147910121453740812183278141246
:10574C0016A1125BD97810121692740812183278BE
:10575C00101216067810121A6574281218321216C6
:10576C00B012247D74041217FCE970030259B2853F
:10577C001882851983E0125B79F583E0F510A3E0BC
:10578C00F511E4F512F51374081218327808121694
:10579C0040780879101215F390826A780812160670
:1057AC008510148511158512168513177808791430
:1057BC001214D3850814850915850A16850B1778DC
:1057CC00147910121453E50C2508FEE50D3509FF6C
:1057DC00125F9D7408121832C082C083124ED124FD
:1057EC0078F582E438F583125B91E4F50AF50BD079
:1057FC0083D0827808121606780879141215F312E1
:10580C005BEE64016003025A05851882851983E0FA
:10581C002477FCA3E03400FD851882851983E0FA17
:10582C00A3E0FB120C31124ED1125BC02420125C8F
:10583C0031241CF582E438F583E4125C3B241DF51D
:10584C0082E438F583E4F0A3125C3B2407125BC2BC
:10585C00125B70E028F8A3E039125BCC240B125CCD
:10586C0031247A125BC2242EF582E43AF583E06887
:10587C007003A3E0697042851882851983E0247E49
:10588C00F582E43A125BC62432F582E43AF583E001
:10589C00687003A3E0697021851882851983E02460
:1058AC007CF582E43A125BC62430F582E43AF58347
:1058BC00E0687003A3E069605F124ED1247EF5822C
:1058CC00E438F583E0F50CA3E0F50D7404780C12C4
:1058DC0017C4780C121A697402121832124ED7249B
:1058EC007CF582E438F583121A8074041218321293
:1058FC004ED7247AF582E438F583E0FCA3E0C31399
:10590C00FDEC13FC7404121832125BA3E0FA7B005A
:10591C0012093774041217FC851882851983E02448
:10592C002EF8A3E03400F9E8FAE9FB8882125C85D2
:10593C00851882851983E0FCA3E0CC240EF582EC5B
:10594C003401125C352477F582E438F583E0C0E04D
:10595C00124ED1242BF582E438F583D0E0125C058D
:10596C00125B79125FE3ECF0A3ED125C3B125BC0AF
:10597C002430125C31247E125BC22432125C1D1264
:10598C00175B125BCD246F125C1D12175BEA4B6028
:10599C000A124ED112506F38125E0E124ED1125B9B
:1059AC00FC7402F08053851882851983E0242EFA4A
:1059BC00A3E034008A82F583E0F50CA3E0F50DE456
:1059CC00F50EF50F7808790C1215F390826A7808A9
:1059DC00121606850C10850D11850E12850F137885
:1059EC000879101214D3AE08AF09125F9DE4F50AC2
:1059FC00F50B7808790C121453125F86125C87E849
:105A0C00FAE98882F583A3A3A3A3A3A3A3A3850880
:105A1C000C85090D850A0E850B0F780C1216067471
:105A2C0002121832780C1216A18A828983E0644023
:105A3C007073124ED12418F582E438F5837808126D
:105A4C0016A1851882851983E02412F508A3E03489
:105A5C0000F5097808121A697402121832124ED71E
:105A6C002410F582E438F583121A80EE24FFF50A2F
:105A7C00EF34FFF50B780A121A69740612183212F9
:105A8C005B99F583E0F50AA3E0AA0AFBE4FCFD129E
:105A9C00261974061217FCAC08AD097402121844CE
:105AAC0012255780097406121832E4F0A3F08518F9
:105ABC0082851983E0125BAFE82408FCE439FD749D
:105ACC00061216F97402121832C082C083125F8655
:105ADC00E02402FCA3E03400FDD083D082740612D3
:105AEC0016F9124ED12435F582E438F583E0C0E086
:105AFC00124ED12434F582E438F583D0E0125C16D2
:105B0C00FB121C41124ED1240BF582E438F583C0F4
:105B1C0082C083124ED12407F582E438125C85D002
