:020000040000FA
:060000000201070222626A
:03002B000226A406
:030033000226861C
:030053000222D8AE
:03005B000226F981
:030063000226C4AE
:03006B000226600A
:100083000220BFE5C754F84401F5C77901220000F7
:100093000080FB120086B900030200F1E4792178A5
:1000A30008B800028004F709D8FCE479297802B87B
:1000B30000028004F709D8FCE490028178A2791346
:1000C3008002F0A3D8FCD9FA7A227B159001377805
:1000D300D379038015E493A3AD82AE838A828B83A5
:1000E300F0A3AA82AB838D828E83D8E9D9E7758288
:1000F300E37583A8740312011975829175830074E3
:100103000012011975D00075813F751881751902A8
:10011300759F00020096C09FF59FE473D09F22D085
:1001230083D082C09FE493C0E0740193C0E0740263
:1001330093F59F22FF0000B4000028002800283018
:1001430075A000A000A000A00000080008E001F0D6
:10015300001000100010001000100010005000509C
:1001630000500010001000D0070000000000000F36
:100173000001000500307507001000010081FF0039
:10018300000000FFFFFF1F063D0625066106FF0274
:10019300020208025000A0000000E80302D6820118
:1001A3000000958202A8820100007D1502A0820151
:1001B3000000BF0202A8820100007E15029E820198
:1001C3000000D50202A8820100007F1502A6820169
:1001D3000000D70202A882010000801502AE820847
:1001E3000000D80202A882010000811502B2820138
:1001F30000008215FF0100FF2002D6820100009B50
:100203008202A882010000E61502B6820000000007
:100213000002A28203000006031700BB0CBB0CBB49
:100223000CBB0CBB0CBB0CBB0CBB0CBB0CBB0CBB93
:100233000CBB0CBB0C610F730F5B0F0202020202BB
:1002430002020202010D000000100102D682010029
:1002530000928202A882010000291602CA820100CC
:1002630000460702A8820100002A1602C882010084
:10027300006B8102A8820100002B1602C6820100D6
:10028300005D8102A8820100002C1602C2820100D7
:1002930000BB8002A8820100002D1602C08201006B
:1002A30000CD8002A8820100002E1602BE8201004A
:1002B30000A98002A8820100002F1602BC8201005F
:1002C30000DF8002A882010000301602BA8201001A
:1002D300004F8102A882010000311602B88201009A
:1002E30000321601E8030577100AFFFFFF00013013
:1002F300750302010600000000000000000000007A
:1003030000000000000000000000000000000000EA
:1003130000FFFF0600800CE803140953696D706C3D
:1003230065424C455065726970686572616C05126F
:1003330050002003020A000201060302F0FF536982
:100343006D706C6520424C4520506572697068651C
:1003530072616CB1130000B713087F5468726F7435
:10036300746C6500087F526F746174696F6E000866
:1003730050504D0002466565646261636B0002D6AE
:1003830082010000988202A882010000471702D070
:1003930082020000481702A482010000491702A844
:1003A30082010000521702D282020000531702A4F6
:1003B30082010000541702A8820100005D1702D4D5
:1003C30082020000201502A4820100005E1702A829
:1003D30082010000621702C482010000211502A4F9
:1003E300820100006317000000000000000000000D
:1003F30000000000000000000000000000000000FA
:10040300000000000000120122DB8303120122EE30
:1004130083031201221D8403120122558403120156
:10042300229E8403120122E1840312012227850301
:100433001201225A8503120122818503120122B07F
:100443008503120122E785031201220086031201AC
:10045300224F86031201227D8603120122B18603F5
:1004630012012266AA0212012264AB02120122CAFD
:10047300AB02120122EDAB02120122EFAB02120119
:10048300222DAC021201229EAC021201225EAD02A9
:1004930012012280AD021201221CAE02120122536C
:1004A300AE0212012298AE02120122A5AE0212017F
:1004B3002215AF021201225FAF0212012262AF02C4
:1004C300120122A8AF02120122ABAF02120122B520
:1004D300AF0212012228B00212012250B00212010F
:1004E3002283B002120122A7B002120122A4B10298
:1004F30012012248B202120122B4B202120122F006
:10050300B20212012273FB021201229BFB021201AF
:1005130022C8FB0212012200FC0212012266FC0225
:10052300120122B0FC0212012214FD021201225C0C
:10053300FD0212012299FD02120122C7FD021201DE
:10054300225CFE0212012266FE0212012273FE02E7
:10055300120122A6FE02120122B2FE02120122CAD7
:10056300FE02120122D4FE021201228AA603120104
:100573002298A603120122B0A603120122C7A603E2
:1005830012012253A801120122F6A8011201220F1F
:10059300AA0112012287AA01120122AEAB011201A4
:1005A30022E7AB011201227FAC011201226CAD01E3
:1005B30012012215AE011201229DAF011201228503
:1005C300B0011201227CB101120122B2B101120168
:1005D3002254B2011201227AB20112012246B4015D
:1005E3001201228CB401120122AEB4011201221AAB
:1005F300B501120122E5B5011201229FB6011201D4
:1006030022ABB801120122D2CA02120122AECB02DE
:1006130012012258CC0212012299CC02120122208B
:10062300CD021201229BCD021201226ECE021201D3
:100633002297CE021201228BCF02120122C8CF02CF
:10064300120122B0D002120122E1D00212012207CC
:10065300D102120122789903120122F799031201A0
:1006630022229A03120122329B03120122008003E9
:100673001201221680031201223480031201224444
:1006830081031201224E8103120122788203120197
:1006930022658303120122D1830312012277D1023F
:1006A300120122A4D202120122DBD202120122324F
:1006B300D3021201222AD502120122E69501120168
:1006C300226D9601120122C19701120122CD9701D9
:1006D3001201224598011201221E99011201221EC4
:1006E3009A011201221A9B01120122E69B011201B7
:1006F30022409D01120122569D01120122779D0184
:100703001201223B9E01120122619E011201220E5F
:10071300A10112012213A10112012237A301120127
:10072300227EA301120122E4A3011201222AA401C1
:10073300120122FAA401120122AFA5011201220B18
:10074300A6011201220EA6011201225AA6011201CC
:100753002296A601120122D5A601120122F7A601B3
:100763001201222BA70112012299A7011201224C87
:10077300DC021201225ADC02120122AADC0212015B
:1007830022C9DC0212012213DD0212012256DE020B
:10079300120122EEDE0212012232DF021201225C7A
:1007A300DF02120122C7DF021201220BE002120153
:1007B300228EE0021201223DE1021201223C2700B7
:1007C3001201224C2700120122E6270012012242C5
:1007D3002800120122002900120122232A001201FB
:1007E30022532A00120122822A00120122382C00ED
:1007F3001201228B2E00120122EA3000120122D3B1
:100803003100120122C33200120122963400120178
:10081300228E3700120122AB3800120122A53A00C2
:10082300120122B43B00120122433D001201222F88
:100833003E001201227E3E00120122EE3E00120112
:10084300220A3F001201225B3F00120122FB4300F8
:100853001201220245001201226445001201228F77
:100863004500120122474600120122FDEE02120149
:100873002207EF021201224FEF0212012263EF025D
:10088300120122F4EF021201222BF002120122665E
:10089300F0021201228FF002120122E3F002120190
:1008A30022F8F0021201221AF1021201222FF102A0
:1008B30012012243F10212012258F1021201229283
:1008C300F102120122BEF10212012207F202120109
:1008D300227DF202120122C0F202120122EAF20286
:1008E30012012215F3021201227EA3031201220D2B
:1008F3008D02120122E68D02120122558E0212018F
:1009030022908E02120122CB8F021201227D9002CD
:100913001201222A9302120122D59302120122B656
:1009230094021201222C96021201229496021201C1
:1009330022F8E5021201223BE602120122A6E70297
:10094300120122E4E9021201227F95031201222CF3
:1009530096031201222597031201226297031201C3
:1009630022619B03120122C09B031201225D9C039F
:10097300120122909C03120122BE9C03120122F950
:100983009C03120122199D031201224FE10212015D
:1009930022D8E10212012297E202120122A5E30208
:1009A300120122C5E502120122E57300120122FAA7
:1009B3007300120122C57400120122927500120104
:1009C30022FF75001201223A7600120122DB760023
:1009D300120122E47700120122BC78001201223FA7
:1009E3007900120122C87900120122317A00120122
:1009F30022BB7A00120122087B00120122767B00BF
:100A0300120122187C00120122C67C00120122E688
:100A13007C001201222A7D00120122727D00120144
:100A2300228E7D00120122AD7D00120122277E005D
:100A3300120122357E00120122C87E0012012232E9
:100A43007F0012012281EA02120122FDEA02120151
:100A5300223BEB021201221FEC021201228EEC0256
:100A6300120122D2EC0212012215ED0212012242DE
:100A7300ED0212012260ED0212012298ED02120131
:100A830022D5ED02120122F6ED021201226CEE02D2
:100A9300120122B6EE02120122B8B8011201224C51
:100AA300BA011201228ABC01120122D2BC01120135
:100AB30022FDBC01120122F3BD0112012223BE015A
:100AC3001201227ABE011201228DBE01120122CE31
:100AD300BE01120122FBBE0112012244BF01120119
:100AE3002280BF01120122C5BF0112012212C001DF
:100AF3001201227AC001120122ACC2011201227337
:100B0300C401120122AEC4011201222CC60112013A
:100B13002270C601120122E3C60112012244C70159
:100B2300120122CCC701120122EBC801120122FCDF
:100B3300C801120122399702120122AA9702120157
:100B430022739D021201226D9E021201222FA00226
:100B5300120122ADA002120122B046001201223777
:100B63004700120122644700120122A64700120126
:100B730022A24800120122E74800120122634A0020
:100B8300120122E04A00120122054B0012012278D1
:100B93004B00120122354C00120122F14C001201CC
:100BA30022714D001201223F4E00120122654E00B8
:100BB300120122D74E001201227B4F00120122A004
:100BC3004F001201220C5000120122725000120138
:100BD30022A850001201224C5100120122E55100BB
:100BE300120122685200120122D452001201222063
:100BF3005300120122865300120122B7530012013F
:100C0300226B5400120122815500120122CA5500A1
:100C1300120122E75500120122C75B001201220FC5
:100C23005C00120122FC5C00120122215D00120112
:100C330022365D001201229E5D00120122DE5D005C
:100C4300120122F15E001201229E5F00120122D6E0
:100C5300A00212012221A1021201222DA1021201DE
:100C630022F8A1021201220EA2021201224AA202BA
:100C730012012283A202120122BBA202120122113B
:100C8300A30212012227A30212012263A30212016B
:100C93002276A3021201229DA302120122D1A302F2
:100CA300120122A5A40212012234A602120122304B
:100CB300A70212012239A8021201223127001201D0
:100CC300229BD701120122D6D701120122DADA01BF
:100CD3001201222CDC01120122F1DC01120122EBB0
:100CE300DF01120122D5E00112012220E1011201EC
:100CF300223AE10112012277E10112012282E1018C
:100D0300120122C1E101120122CAE1011201228B67
:100D1300E20112012248E301120122ABE3011201B5
:100D2300220FE40112012290E401120122D982016F
:100D33001201223586011201223B86011201227C17
:100D43008D011201225492011201224F8A031201D2
:100D530022198B031201225D8B03120122978B034D
:100D6300120122298C03120122988C03120122A161
:100D73008C03120122AD8C03120122C18C031201D8
:100D830022E58C03120122158D031201223DF30289
:100D93001201224AF30212012264F3021201229782
:100DA300F302120122D4F3021201223AF4021201D5
:100DB300224FF4021201225AF40212012267F402B2
:100DC3001201227EF4021201228CF40212012297F4
:100DD300F402120122A3F402120122B2F40212015C
:100DE30022BDF402120122E3F40212012287F5026A
:100DF30012012297F502120122B1F502120122CE4D
:100E0300F502120122E9F50212012210F602120183
:100E1300221BF60212012230F60212012244F602CC
:100E2300120122A5F602120122ABF602120122B12F
:100E3300F602120122B7F602120122CFF6021201C4
:100E43002202F7021201220580021201229380027C
:100E53001201222881021201220482021201223885
:100E630082021201224B8202120122C58202120166
:100E7300224D8402120122748402120122FB840295
:100E83001201223A85021201224B8502120122C06D
:100E93008502120122DF8502120122F78502120167
:100EA300223B8702120122458902120122778B021B
:100EB3001201227D8C02120122C08C021201220136
:100EC300C90112012214CA01120122FCCA01120132
:100ED3002206CB0112012228CB0112012234CB01BD
:100EE30012012281CC01120122AECC01120122CFC8
:100EF300CD0112012211CE0112012246CF011201AE
:100F03002216D00112012265D001120122C6D0019E
:100F1300120122FBD00112012234D101120122DF7E
:100F2300D401120122F6D40112012274D501120157
:100F33002282D501120122CBD501120122D9D5017A
:100F43001201225AD601120122C9D6011201221519
:100F5300D70112012276F30112012298F301120143
:100F63002274F501120122ECF80112012236FA0172
:100F730012012218FB01120122DF9E031201220437
:100F83009F03120122759F031201224FC302120114
:100F93002258C30212012261C30212012285C40234
:100FA30012012276C602120122A4C602120122CF26
:100FB300C602120122FDC60212012228C702120133
:100FC3002266C70212012292C702120122CFC70270
:100FD300120122FAC70212012246C8021201229DFF
:100FE300C802120122DDC8021201222CC902120119
:100FF3002257C9021201229DC902120122CBC90242
:10100300120122F6C90212012223CA021201224648
:10101300CA02120122557F00120122817F001201B0
:1010230022DA7F00120122E47F00120122F47F0002
:10103300120122448D031201226B8D0312012296A9
:101043008D0312012236A903120122D05F0012017F
:1010530022276200120122D76300120122346400A6
:10106300120122346500120122B1650012012239F6
:1010730066001201225E6600120122396900120124
:1010830022AD69001201229C6A00120122D26A0079
:10109300120122156B00120122966C00120122D854
:1010A3006C00120122216D001201228A6D001201CF
:1010B30022AC6D00120122C66D00120122E46E0003
:1010C300120122F46E00120122777000120122979E
:1010D3007000120122CD7000120122497200120128
:1010E30022867200120122C07300120122279D037F
:1010F300120122839D03120122279E03120122461D
:101103009E03120122949E0312012257A703120188
:101113002268A70312012280A903120122BFA90397
:10112300120122B9AA0312012262FF0212012272E2
:10113300FF0212012287FF02120122EDFF021201B8
:101143002292A40312012215A5031201227BA503F7
:1011530012012290A003120122B9A0031201222638
:10116300A10312012279A103120122D2A1031201C8
:10117300221987031201222E87031201222C8803CE
:10118300120122C488031201223889031201225258
:10119300890312012269890312012277890312014B
:1011A300228F8903120122A48903120122C9890310
:1011B3001201221A8A03120122F0FF021201220DE8
:1011C300A20312012230A20312012259A203120127
:1011D30022F3A20312012235A3031201228BBB02C5
:1011E30012012295BB02120122D5BB021201221E5B
:1011F300BC0212012256BC02120122ACBC02120133
:1012030022C9BC0212012248BF0212012251BF02AD
:1012130012012296BF02120122BFBF02120122D481
:10122300BF0212012244C002120122D1C0021201E4
:101233002225C10212012248C102120122C7C102A2
:1012430012012202C20212012237C20212012249F2
:10125300C20212012268C20212012271C2021201E9
:101263002223C3021201225BFE01120122ACFE0102
:1012730012012235FF011201229FFF0112012219DF
:1012830090031201224190031201223691031201AD
:10129300225B9103120122EA910312012294A50316
:1012A3001201227C9703120122B29703120122E555
:1012B30097031201223E99031201220BA803120184
:1012C3002221A8031201222BA8031201227FA803C3
:1012D30012012216B302120122D0B3021201220B11
:1012E300B4021201223CB402120122ACB402120174
:1012F3002202B50212012256B50212012243B6029E
:101303001201223CB702120122BDB802120122715E
:10131300B902120122DAB902120122EDB902120155
:1013230022D2BA021201222BBB021201227CF70243
:1013330012012292F70212012236F80212012275DB
:10134300F80212012292F802120122C3F8021201DA
:101353002210F90212012243F9021201227EF9023C
:10136300120122DAE50112012262E901120122F1DE
:10137300EA0112012248EB0112012267EB0112017B
:1013830022E5EB011201226BED011201223EEE0177
:10139300120122F8F101120122E0F20112012217D7
:1013A300D702120122B5D702120122C4D9021201B7
:1013B3002267DA02120122EBDB02120122D492032A
:1013C3001201220693031201222393031201227CAA
:1013D3009303120122AF93031201225794031201C4
:1013E30022C9A90312012246AA031201220FAA034A
:1013F30012012272AA031201229BAA03E066701053
:1014030008A3E066700A08A3E066700408A3E06618
:1014130022C3E7960809E7960809E7960809E796BD
:1014230022C3E09608A3E09608A3E09608A3E096FB
:1014330022C008C3E096F50808A3E096420808A373
:10144300E096420808A3E09645087001D3D008222D
:10145300080808EAC0E0EBC0E086F0E7A4FA180940
:1014630086F0E7A42AFA180986F0E7A42AFA1809ED
:1014730086F0E7A42AFA1986F0E7A4FBE5F02AFA36
:10148300190886F0E7A42BFBE5F03AFA190886F071
:10149300E7A42BFBE5F03AFA18180986F0E7A4C590
:1014A300F02BFBE43AFA1908E7C5F0C6A426F6E5E3
:1014B300F03BFBE43AFA1886F0E7A4F6E5F00826D9
:1014C300F6E43B08F6E43A08F6D0E0FBD0E0FA2273
:1014D300E4CFC0E0E4CEC0E0E4CDC0E0E4CCC0E0C3
:1014E30075F020E626F608E633F608E633F608E656
:1014F30033F6181818EC33FCED33FDEE33FEEF33FF
:10150300FFC3EC9709ED9709EE9709EF971919199E
:10151300400FFFEC97FC09ED97FD09EE97FE1919B3
:1015230006D5F0BFECF709EDF709EEF709EFF71968
:101533001919D0E0FCD0E0FDD0E0FED0E0FF22603E
:1015430016080808C6C313C618C613C618C613C69A
:1015530018C613C6D5E0EA227009080808226016E7
:10156300181818C6C333C608C633C608C633C60818
:10157300C633C6D5E0EA22E627F60809E637F608B9
:1015830009E637F60809E637F622E026F608A3E06F
:1015930036F608A3E036F608A3E036F622E026F096
:1015A30008A3E036F008A3E036F008A3E036F02203
:1015B300C3E697F60809E697F60809E697F60809D9
:1015C300E697F622C3E0C696F608A3E0C696F608A9
:1015D300A3E0C696F608A3E0C696F622C3E096F00B
:1015E30008A3E096F008A3E096F008A3E096F022A3
:1015F300E056F608A3E056F608A3E056F608A3E083
:1016030056F622E056F008A3E056F008A3E056F0A1
:1016130008A3E056F022E0F608A3E0F608A3E0F6FC
:1016230008A3E0F622E6F008A3E6F008A3E6F00834
:10163300A3E6F022E0FAA3E0FBA3E0FCA3E0FD2293
:10164300E0FCA3E0FDA3E0FEA3E0FF22ECF0A3EDAA
:10165300F0A3EEF0A3EFF022E0F8A3E0F9A3E0FAA1
:10166300A3E0FB22E8F0A3E9F0A3EAF0A3EBF02266
:10167300CAC0E0E6F0A308DAFAD0E0FA22CAC0E072
:10168300E0A3C582CCC582C583CDC583F0A3C58243
:10169300CCC582C583CDC583DAE6D0E0CA22C3E4D4
:1016A30098F8E499F91216E28026C3E49AFAE49BC7
:1016B300FBE920E7E91216E2E498F8E499F922C37A
:1016C300E498F8E499F91216E2E498F8E499F9C376
:1016D300E49AFAE49BFB22EB20E7CFE920E7E0B9A9
:1016E3000010BB0008E88AF084F8AAF022E4FBC8E3
:1016F300FA22EB70227B10C833C8C933C9335007B1
:10170300C39AC3DBF280069A50012ADBEAC833F49A
:10171300C8C933F4C9FA2275F008E4C833C8C93319
:10172300C933C99AC99B5004C92AC93BD5F0ECFBFC
:10173300C833F4C8E4C9FA22600D08C6A2E713C689
:1017430018C613C6D5E0F322600C08C6C313C61827
:10175300C613C6D5E0F422700422600D18C6C33345
:10176300C608C633C6D5E0F41822251810AF08F50D
:1017730018400C15198008F51840021519D2AF222C
:1017830000C0D0251810AF08F518500C05198008B3
:10179300F51850020519D2AFD0D0222518F58210C2
:1017A300AF08F518400C15198008F51840021519F3
:1017B300D2AF851983222518F582E43519F58322E2
:1017C3002518F8E43519F9222518FAE43519FB220E
:1017D3002518FCE43519FD22E4732518C582C0E001
:1017E300E51934FFC583C0E0E518C3958224F810DA
:1017F300AF08858319858218800885831985821827
:10180300D2AFCEF0A3E520F0A37808E608F0A3DE7C
:10181300FAEFF0A3E58124FAF8E608F0A3E608F06E
:10182300A3E608F0A30808E608F0A3E608F0A3156A
:10183300811581D0E0FED0E0F8158115811581E88E
:10184300C0E0EEC0E0222518C582C0E0E51934FFF0
:10185300C583C0E0E518C3958224F910AF088583DA
:10186300198582188008858319858218D2AFCEF036
:10187300A3E520F0A37808E608F0A3DEFAEFF0A3CF
:10188300E58124FBF8E608F0A3E608F0A30808E6E0
:1018930008F0A3E608F0A315811581D0E0FED0E09F
:1018A300F815811581E8C0E0EEC0E0228519838533
:1018B3001882E0A3FEE0A3F5207808E0A3F608DF92
:1018C300FAE0A3FFE0A3C0E0E0A3C0E0E0A3C0E030
:1018D300E0A3C0E0E0A3C0E010AF088582188583D1
:1018E300198008858218858319D2AFD083D08202EC
:1018F300011F851983851882E0A3FEE0A3F52078F4
:1019030008E0A3F608DFFAE0A3FFE0A3C0E0E0A34A
:10191300C0E0E0A3C0E0E0A3C0E010AF08858218F8
:101923008583198008858218858319D2AFD083D027
:101933008222C0D02518C582C0E0E51934FFC583D3
:10194300C0E0E518C3958224F310AF088583198599
:1019530082188008858319858218D2AFC8F0A3E95D
:10196300F0A3EAF0A3EBF0A37908E709F0A3D8FA10
:10197300ECF0A3EDF0A3EEF0A3EFF0A3D0E0F0A31F
:10198300D0E0F0A3D0E0F0A3E520F0A3E5F0F0A3CE
:1019930022851983851882E0C0E0A3E0F9A3E0FA69
:1019A300A3E0FBA37808E0F608A3DFFAE0FCA3E0DA
:1019B300FDA3E0FEA3E0FFA3E0C0E0A3E0C0E0A33B
:1019C300E0F5D0A3E0F520A3E0A3F5F010AF088580
:1019D30083198582188008858319858218D2AFD030
:1019E30082D083D0E0F8D0E03274048006740280A1
:1019F300027401C0E0F40412179ED0E012167322A1
:101A03007404800474028000CCC0E0EDC0E0E518EB
:101A1300C39CCCAD1950011D10AF068C188D1980D5
:101A2300068C188D19D2AF121680D0E0FDD0E0FCE1
:101A330022D083D082E9C0E0E493A3C386F0C5F04B
:101A430095F0F908E493A386F0C5F095F0700BE4E4
:101A530093A3C3994005E9048002A3E475F002A4AB
:101A63002582F582E5F03583F583D0E0F9E493A38D
:101A7300C0E0E493C0E022D083D082ECC0E0EDC0AC
:101A8300E0E493A3FCE493A3FDED4C600D121AC6AE
:101A9300EC24FFFCED34FFFD80EFE493A3FCE4931F
:101AA300A3FDED4C600D121B05EC24FFFCED34FF90
:101AB300FD80EFD0E0FDD0E0FCE493A3C0E0E4932D
:101AC300C0E022C0E0C3E4939608740193961840E3
:101AD3000FE4936670080874019366187000701918
:101AE300A3A3C3E49396087401939618A3A3400D8C
:101AF300D0E0D0E0D0E0021AB6A3A3A3A3A3A3D05F
:101B0300E022C0E0C0F088F0E49366700808740136
:101B13009366187000A8F0A3A3700BD0F0D0E0D0A8
:101B2300E0D0E0021AB6A3A3D0F0D0E02274F612FC
:101B33001849EAFEEBFF8C088D09EA2434F8E43FE8
:101B4300F9E8FCE9FDEA2435121ED7FAEE24371230
:101B53001ED7F88508F0A4C885F00A8509F0A425E6
:101B63000AF9EA28F8E439F97A257B001216E2EA41
:101B73008C828D83F0FA131313541F121ECB245D32
:101B8300F582E439F583E0C0E074075AF8D0E0B891
:101B930000028004C313D8FCA2E0EE50082434F5FD
:101BA30082E43F80142436121ED7F5F0EA84A8F0AD
:101BB300121ECC2438F582E439F583E0F97F030261
:101BC30018F574F7121849EAFEEBFFEA2434121EE3
:101BD300D7C0E0EA2435F582E43FF583D0E0F08A0C
:101BE300828B83A3A3A3A3A3A3A3C082C0838A825C
:101BF3008B83A3A3A3A3A3E0F8A3E0F9D083D082AC
:101C0300E0C398F508A3E099F509EA2480121ED7EA
:101C13006401703EEA2481F582E43FF583C082C00B
:101C2300838A828B83A3A3A3A3A3E0240108A3E055
:101C33003400F9D083D082E0687003A3E0697012A6
:101C43007CB67D04120BFBEE2480F582E43FF58322
:101C5300E4F0AC08AD09EEFAEFFB121B30E9F91220
:101C630026527F020218F5C082C083851882851927
:101C730083E0F8A3E0F9C3EA9CEB9D5010C3EC9812
:101C8300ED99401BC3EA98EB995014800EC3EA9870
:101C9300EB994007C3EC98ED9940047901800279F0
:101CA30000D083D08222EAC39CFAEB9DFB2274EF1F
:101CB300121849900376E064086005E06407702A0F
:101CC3009061C8E060249003A4E0F4601DE0F8751F
:101CD300F010A4C8AAF02AF974A628FE740339FFE9
:101CE3008E82F583A3A3A3E07003021DCA906060F4
:101CF300E0C0E0EE2468F582E43FF583D0E0F075C0
:101D03000C27750D05750800750900E5D914F50A4A
:101D1300E5D95403F50E602F7403650E601DE50AC3
:101D23006008EE2467121ED7601D900522E064014F
:101D3300602C121ED4601278048010121ED4602C02
:101D4300E50AC39405502580637800E50AC398FA31
:101D530095E0FB120AAB8A088B09EA4B7005120E59
:101D6300298064121ED470048A0C8B0DE50A60125C
:101D7300850C82850D83F50BE5D9F0A3150BE50BD7
:101D830070F6121ED4604574FC250AF50A780C120D
:101D930019F0AC0AA90EEEFAEFFB120CB57402129D
:101DA3001783E97027AA08AB0912126D793D8E8259
:101DB3008F83A3A3A3A3E0FA7B00120913EEFAEF28
:101DC300FB120C1F120CC77900021EC67403650EAA
:101DD3006053E50AF51075110078101219F0AC0C78
:101DE300AD0DAA08AB09120C797402121783EE2405
:101DF30068121ED764807004747F8001E0F50C784C
:101E03000C1219F4E50EF50C780C1219F4A90AACAE
:101E130008AD099003A4E0FA7B001208E9740212EA
:101E23001783021EC1850C82850D83E0C3940E5077
:101E330011E0F8744128F582E43481F583E0650A02
:101E43006069850C82850D83E0C0E0EE24F7F5829E
:101E5300E43FF583D0E0F0A2AFE433FCC2AF7A00F5
:101E630080010AEE246E121ED7F8EAC3985013EAD3
:101E7300121ECB246AF582E439F583E0640770E22D
:101E83008022EE246EF8E43FF9E0FAEE2AFAE43F0A
:101E9300FBEA246AF582E43BF5837407F0888289C0
:101EA30083E004F0ECA2E092AF8013900376E06449
:101EB30008600BAC0CAD0DEEFAEFFB120D3F120EEA
:101EC3003579017F0A0218F5F8EE28F8E43FF9E8BE
:101ED30022EE2484F582E43FF583E02274F11218A4
:101EE3004974FC12176DEAFEEBFF8909750D00A218
:101EF300AFE433F508C2AF9004BEE0FA9061D0E0DE
:101F0300F8748098F895E0F9C3EA98E499A2D26549
:101F1300D0334003021FC9750D01021FC9E0601BC6
:101F2300780A1219F0AC0EA90FEEFAEFFB120CAF00
:101F330074021217837404250EF50E7401250EF531
:101F4300D9850FD9E50E6012850A82850B83F50CBE
:101F5300E0F5D9A3150CE50C70F675E195EE246355
:101F6300F8E43FF97A007B00A2AFE433F50AC2AF8D
:101F730088828983E0FCA3E0FDEC4D603A88828986
:101F830083E0FAA3E0FB8C82F583E0FCA3E0FD8809
:101F9300828983ECF0A3EDF08A828B83E4F0A3F0D3
:101FA30088828983E0FCA3E0FDEC4D700A88828976
:101FB30083A3A3E4F0A3F0E50AA2E092AF12126DAB
:101FC3009004BDE004F0EE2463121ED7F8A3E0F9F9
:101FD300E8496063EE2463121ED72402F8A3E034B9
:101FE300008882F583E5822402F50AE43583F50B44
:101FF300E0F50EA3E0F50FEE2462121ED764017024
:10200300369061D0E0F8121ED460047C0480027C18
:10201300007480C398FA95E0FBE50E2CF8E43400D5
:10202300F9E82402F8500109C3EA98EB99A2D265B2
:10203300D0334003021F209061D0E0F87480C3982E
:102043009004BEF0E50D60539004BDE0604D900434
:10205300BFE0F89004BDE0C398500C7402650970AA
:102063003A9004C0E060348E828F83A3A3A3A3E0DD
:102073008518828519831220AE74021217B9E812EB
:1020830020AE9004BCE028F074021217D3AA18AB58
:1020930019790112093D9004BDE4F0E508A2E0922C
:1020A300AF74041217837F080218F5F0A3E4F090CD
:1020B30004BDE0F8228521878522C622C0E074EBA7
:1020C300121935A2AFE433F508C2AF759B009061D6
:1020D30082E0A2E0502DE591A2E050277591FE74B5
:1020E300016521701E12223612224D121A03122488
:1020F300017404121783E9640170057901120DBD9F
:10210300121CB1906182E0A2E5505AE591A2E5501C
:10211300547591DF900376E064076005E06408700E
:102123002C12223674016521703B12224D121A03C0
:102133001224017404121783E964017005790112F2
:102143000DBD7901EEFAEFFB121EDF8018E0640D7E
:102153007013900398E004F064287002E4F07A00AE
:10216300E0F9120E3B906182E0A2E6400302220BEB
:10217300E591A2E6400302220B7591BF900376E03E
:1021830064057008120D69120D758003120D6F75C9
:102193002100120DC9E9900377F07900120DBD12E9
:1021A3000B6B7A017B00900375E0F912123D907876
:1021B30003E064427052900526E014F0704AC2AF07
:1021C3001221C600782AD0E0F618D0E0F6E59F5435
:1021D3000770047BFF80027B7FC4C0E07829E6F5AB
:1021E3000A08E65BF50B740B780A12174BD0E0254F
:1021F3000AF8906270E0A2E740F8E8C33390627295
:10220300F0906270E0D2E0F0906181E0A2E35009C7
:10221300E5E9A2E3500375E9F7A3E0A2E75009E576
:1022230091A2E7500375917FE508A2E092AF7F0882
:102233000219949003A4E0F875F010A4C8AAF02A38
:10224300F974A628FE740339FF22120D818E828F42
:1022530083E0F8A3E0C82416F582E438F58322C0AE
:10226300E0C0D0C082C083906183E0A2E05009E562
:10227300BFA2E0500375BFFEE0A2E15009E5BFA293
:10228300E1500375BFFDE0A2E25009E5BFA2E250B1
:102293000375BFFBE0A2E35009E5BFA2E35003755A
:1022A300BFF7E0A2E45009E5BFA2E4500375BFEF16
:1022B300E0A2E55009E5BFA2E5500375BFDFE0A248
:1022C300E65009E5BFA2E6500375BFBFD083D082B5
:1022D300D0D0D0E032C0E074F2121935E5A7A2E6FF
:1022E300500FE5A1A2E6500953A7BF75A1BF122362
:1022F3002CE5A7A2E5500CE5A1A2E5500653A7DF04
:1023030075A1DFE5A7A2E15009E5A1A2E15003759C
:10231300A1FDE5A7A2E2500CE5A1A2E2500653A756
:10232300FB75A1FB7F0102199474F71218497521FB
:1023330001900376E064067015120CEB8A828B839E
:10234300A3A3A3A3A3A3E0FAA3E0FB120D57A2AF99
:10235300E433FED2AF90037CE0640170187A207BF3
:1023630000900375E0F91213517A207B00900375F6
:10237300E0F9121243906182E0D2E6F0900523E087
:10238300602185C622801690037BE064017008E516
:10239300C654F84405F5C653BEFC1220B874016553
:1023A3002160E4EEA2E092AF7F020218F58E238F44
:1023B30024858228858327851882851983E0CEA307
:1023C300E0CF852882852783EBC9EAC8EDCBECCA29
:1023D30075F010C3E833C8E933C9EA33CAEB33CB2A
:1023E300C3EA9EF526EB9FF525B35004AB25AA2639
:1023F300EC33CCED33CDD5F0DAAE23AF242274F138
:102403001218498A088B098C0A8D0B90822678084A
:102413001215F3740F1217B9780C1216199082263D
:10242300780C1215F37808790C12141490822E503C
:10243300107808790C1215B37808121434401480FC
:102443000E780C79081215B3780C121434500479F1
:1024530001800279007F080218F574ED1218498A89
:10246300088B098C0A8D0B90822678081215F37459
:10247300131217B9780C121619908226780C1215BC
:10248300F3780C790812141440117808790C12159A
:10249300B3AA08AB09AC0AAD0B8022751000751105
:1024A300007512007513017810790C1215B37810AA
:1024B300790812157AAA10AB11AC12AD137F0C0276
:1024C30018F590822678081216198A828B83780869
:1024D3001216067F040218F574F51218498C828DC2
:1024E3008378081216198A828B8378081215DF12F3
:1024F3002533C3E09CF0A3E09D1225254022908262
:102503004E78081216198A828B8378081215A08ACE
:10251300828B83A3A3A3A3E02420F0A3E0344EF093
:1025230080A0F088828983C3E09420A3E0944E22A4
:10253300EA2404F8E43BF98C828D83A3A3A3A3E0EC
:10254300FCA3E0FD888289832274F5121849900464
:10255300D9E0FAA3E0FBE929F8E433F9740228F59A
:1025630082748139F583E02AF508A3E03BF5097805
:10257300081219F090825E1216371223B0740212F9
:1025830017838A088B098C0A8D0B7410780812152F
:1025930042AA08AB097F040218F574F11218498A9C
:1025A3000C8B0D8C0E8D0F74111217B9121A077440
:1025B300111217B9E02401F508A3E03400F509E48A
:1025C300F50AF50B780C79081214539082227808D7
:1025D300121619780C7908121453AA0CAB0DAC0E11
:1025E300AD0F1223B07402121783EA4B60047A0111
:1025F30080027A00EC2AFCE43DFD74131217B9E063
:10260300F8A3E0F9E8FEE9FFECF8EDF97A717B0253
:102613001216E288088909E4F50AF50B8E828F8386
:102623007808121628ECF8EDF97A717B021216E29B
:102633008A088B097405780812175A8E828F83A330
:10264300A3A3A3E508F0A3E509F07F080218F5C0EA
:1026530082C083E9906000F0D083D08222C0E0740E
:10266300F2121935A2AFE433FED2AFE589A2E150ED
:102673000312116B758900C2C5EEA2E092AF7F0110
:10268300021994C0E074F2121935A2AFE433FED2FA
:10269300AFE58BA2E0500312116B758B00C2E8808B
:1026A300D8C0E0C0D0E8C0E0A8A8D2AFC2C7E8A2B3
:1026B300E792AFD0E0F8D0D0D0E032C2AF02000052
:1026C30022C0E074F212193574FF12176DC2DBAA2F
:1026D30018AB1979021213CFE9700F851882851987
:1026E30083E070037401F0E0F5EFC2C474011217C4
:1026F300837F01021994C0E074F212193574FF123A
:10270300176DC2D8AA18AB1979011213CFE9701A41
:10271300AC18AD197A0179031213C985188285198A
:1027230083E070037401F0E0F5CFC2C380BE020101
:102733001FFFFFFFFFFFFFFFFFC082C083E990156C
:10274300E5F0D083D08202011F74F61217DDE99001
:1027530002E8F0900348E0F5087509007402780870
:1027630012175AAA08AB091212AF9002E9122C20D1
:10277300606E900348E075F003A4FAABF01212AF59
:10278300900306122C20700B9002E912346412128B
:10279300B5804D9003061243CD7AFF7BFF1210EDF7
:1027A3007A00801EEAF5087509007402780812178A
:1027B3005A123E6974FFF0A31243E1A3A3E4F0A30A
:1027C300F00A900348E0F8EAC39840D87905120765
:1027D300D59002E8E0F91206C77A5F7B08120A4B2C
:1027E300023F0574F41217DD8A088B09EB548060ED
:1027F300479002E8E0F91212258A0A8B0BAE0AAF62
:102803000BEA4F602A8A828B83E064B0701A120746
:10281300E7E960148E828F83A3A3A3A3E0F9EE24D8
:1028230005FAE43FFB1207B7EEFAEFFB121213AA05
:1028330008E5096480FB80047A007B00022A4E7459
:10284300F21217DD74FB12176DEAFEEBFFEA4F601D
:102853004374031217B91230CD851882851983EC9E
:10286300F0A3EDF074021217B9E9F0AA18AB19122C
:1028730006C1E9F508707774131217B9E0F50AA3D6
:10288300E0F50BE50A450B60658E828F83122E619E
:10289300EE4F700575080280557A067B001212AF61
:1028A3008A0C8B0DA80CA90DEA49700575081380D5
:1028B3003D8A828B83E4F01228F8A3EEF0A3EF1293
:1028C30046A6E50AF0A3E50BF09002EC122A12905B
:1028D30002EC6017E0FCA3E08003EAFCEBFD8C82D2
:1028E3008D83122A1270F38C828D83123A89A90880
:1028F300740502463FA3F08A828B83A32274F212EB
:1029030017DD8908E9F50C750D007403780C1217AF
:102913005A850C0A850D0B9002EBF09002E91243E5
:10292300B2122A10602F1212B57900801EE9F50C3D
:10293300750D007402780C12175A9002E9123D22A9
:102943008882F583A3A3E4F0A3F009900348E0F899
:10295300E9C39840D8900348E0FA850AF0A4CAA8CE
:10296300F0850BF0A428FB1212AF8A0C8B0DAE0C72
:10297300AF0DEA4F7003022A06900348E0FC850A74
:10298300F0A4CCA8F0850BF0A428FD79001211FB6C
:102993007C008032EDF50C750D007403780C121772
:1029A3005A8A828B83122A0B8882F583E4F0122AD7
:1029B30018A3A3F0A3F00DEDC3950840D7EE250AA5
:1029C300FEEF350BFF0C900348E0F8ECC398502959
:1029D300ECF50C750D007402780C12175A9002E98D
:1029E300122A0BE82402500109FAE9FB8A82F583D3
:1029F300EEF0A3EFF07D0080BEE5089002EBF079E6
:102A03000080027913024642123D26F922A3A31243
:102A130030E5EA4B22A3F088828983A3A3A3A322F0
:102A230074F41217DD7900EAA2E0501F75080875E7
:102A3300098278081219F079107C047D007AE77B0B
:102A4300151207CF7402121783E9F97F040218AF36
:102A5300C082C0839002EC123E28601C8882898366
:102A6300A3A3E06A7003A3E06B8882898370E8A361
:102A7300A3A3A312346480047A007B000227457465
:102A8300F21217DD74FD12176DEAFEEBFF85188253
:102A9300851983E4F0A3F074021217B97401F0905E
:102AA30002EF123E2870111209851212AF9002EF45
:102AB300122C207003022C141231BAEE2404F50AEE
:102AC300E43FF50B850A82F583E024FE603C24FC99
:102AD300607424FE607E24FE7003022B6424FE7067
:102AE30003022B7124FE7003022B7E24FE7003026B
:102AF3002B8B24FE7003022B9824FC7003022BB94A
:102B030024FE7003022BD1022C0D1209859002F1D1
:102B1300EAF0A3EB122C29120415E96003022C0D31
:102B23009002F1121A078E828F83A3A3A3A3A31289
:102B330043CD85088285098312346412079F74028A
:102B4300121783022C0DAC18AD19EEFAEFFB120726
:102B5300ED022BDCAC18AD19EEFAEFFB1207F38094
:102B630078AC18AD19EEFAEFFB1207F9806BAC18CD
:102B7300AD19EEFAEFFB1207FF805EAC18AD19EE4C
:102B8300FAEFFB1208058051AC18AD19EEFAEFFB12
:102B930012080B804474021217C3880C890D780C39
:102BA3001219F074021217D3EEFAEFFB1208117424
:102BB300021217838023AC18AD19EEFAEFFB12084B
:102BC30017E9F8701674021217B9E4F0803CAC18D8
:102BD300AD19EEFAEFFB12081DE9F8E8602C8E82BE
:102BE3008F83A3E064146022850A82850B83E090BF
:102BF30002F1F08518828519831234649002F2126F
:102C030030CDE8A3122C2912040FEEFAEFFB1207C2
:102C13007574021217B9E0F9740302463FEAF0A390
:102C2300EBF0F9EA4922F07CF17D028508828509FF
:102C3300831230E52274E81217DD74FA12176D74EB
:102C4300041217B9ECF0A3EDF08A128B13EA2405F2
:102C5300F50EE43513F50FEA2402F510E43513F508
:102C63001185108212370B7508007C037D007900F3
:102C73007AF17B021211FBE50E2402F516E4350FFF
:102C8300F51774021217C3880C890D780C1219F00A
:102C9300850E82850F83A3A3A3A3E0F50C750D0016
:102CA300780C1219F0E50E2405F50CE4350FF50D3B
:102CB300780C1219F0851682851783123753121771
:102CC300838A0C8B0DE50C450D7003022E3080209A
:102CD300851882851983E088828983F00508851821
:102CE30082851983A3E0C0E0122E6BD0E0F00508C3
:102CF300E50A24FBF8E50B34FFF9C3E50898E499EA
:102D03004003022E307E007F00851282851383A349
:102D1300A3A3A3E0F50978091219F4E4F514F51552
:102D230078141219F07514EE75150278141219F04F
:102D33009002EF121A0774091217B9121A07E50A5B
:102D430024F9F9AC0CAD0D123765121783E9600352
:102D5300022DD7850E82850F83A3A3A3A3A3A3A3C9
:102D6300E0F89002EEE068706BE0F5148E157814CD
:102D73001219F01243CA850E82850F83A3A3A3A35E
:102D8300A3A3A3A31234641211F57402121783E9E7
:102D93006042123E257034E4F51478141219F07C65
:102DA300FF7DFF79071237741217838B15A915124C
:102DB3002E807017850E82850F8312455974041275
:102DC30017B9123E12123786022E5E850C82850DCC
:102DD30083122E61A818A919881489157814121959
:102DE300F074041217B9121A078516828517831215
:102DF30037351217838A0C8B0DEE4F7003022CC8E4
:102E0300122E6BEE122E7612371CEF122E76F8A3CB
:102E1300E03400F9E50C4B6003022CD388828983EC
:102E230074FFF00508122E6B74FFF00508E50860C7
:102E3300141313543F1230D3120421E96003123DDB
:102E43003979008016850E82850F831245597404E3
:102E53001217B9123E12123A89790A0236ECA3A369
:102E6300A3A3E0FEA3E0FF22A8089002F2E0281249
:102E7300371C22F00508089002F2E028229002F2A3
:102E8300EAF0A3EBF0EA492274E81217DD74FA12B0
:102E9300176D74021217B91230CD74041217B9ECFE
:102EA300F0A3EDF074021217B9E024051236F6F51B
:102EB30083E0F50CA3E0F50D74021217B9E02402C8
:102EC300F510A3E03400F5118510821234687508FB
:102ED30000750900EA24FCFEEB34FFFF8008050CB3
:102EE300E50C7002050DA808C3EE98EF940050039B
:102EF30002307EA818A919880E890F780E1219F0CE
:102F0300851482851583A3A3A3A31243A91219F0E1
:102F1300E5142405F50EE43515F50F780E1219F0B6
:102F2300851482851583A3A31243CDAA0CAB0D127E
:102F330006DF74061217838A0E8B0FEA4B700302A7
:102F4300307EEA2404F516E4350FF517851682F56D
:102F530083E0F50CA3E0F50D851882851983121A19
:102F630007AC0EAD0F85108285118312370212173D
:102F730083E9F509600302307E74021217B9123730
:102F83002CF50978091219F4E4F512F513781212E5
:102F930019F07512EE75130278121219F09002EF00
:102FA300121A0774071217B9121A07EEF9AC0EAD0D
:102FB3000F123765121783E9F509600302307EE5C6
:102FC30008703BE4F50EF50F780E1219F07CFF7DC7
:102FD300FF79091237741217838B0FA90F9002F32D
:102FE300122E83700D74041217B91230C0791102B6
:102FF30030AF9002EEE024029002F2F080149002CF
:10300300F2E0FA9002EEE0790024025001096A49E5
:10301300706DA8089002EEE0FAE82AFAE43400FBA7
:10302300EE9AEF9B4055851682851783E0C0E090AA
:1030330002F3122E70D0E0F00508851682851783FF
:10304300A3E0C0E0089002F3122E70D0E0F0050870
:103053009002EE1243A91219F01243CAA8081230C3
:10306300B21217839002EEE02508F50874FF650C91
:10307300700474FF650D6003022EE1E508601C9087
:1030830002F2E0F5F0E508841230D3120427E96078
:10309300069002F3123D3C79008011E50970037537
:1030A300090A74041217B91230C0A9090236EC9048
:1030B30002F3E028FAA3E03400124387221243B656
:1030C300E50CF0A3E50DF022A3A3EAF0A3EBF022B5
:1030D3009002F1F07CF17D0285108285118312301C
:1030E300E522123A79FB2274EC1217DD74FC1217F5
:1030F3006D123B9974021217D3850A82850B8312D2
:1031030032B970030231AA1231BAA818A91988106A
:10311300891178101219F07CFF7DFF790B850882E5
:1031230085098312377A1217831231C4700B850A0B
:1031330082850B83123783807B8E828F83A3A3A325
:10314300A3E0F51278121219F4E4F512F5137812CC
:103153001219F07512F175130278121219F0781022
:103163001219F074091217B9121A0774091217B950
:103173001232B285088285098312376B121783E9ED
:10318300FE70157CF17D0285088285098312346403
:1031930012042DE97009801A74166E70027E0012F3
:1031A3003D39EE7004800B7E01850A82850B831204
:1031B3003A86EEF9023A9BEE2402F508E43FF5095C
:1031C300228A108B119002F2EAF0A3EBF0EA4B2271
:1031D30074EC1217DD74FC12176DEAFEEBFF8C0E14
:1031E3008D0FEA2405F508E43FF50974021217D39D
:1031F3008508828509831232B970030232A2EE2454
:1032030002F50AE43FF50BA818A91988108911786B
:10321300101219F07CFF7DFF790D850A82850B83DF
:1032230012377A1217831231C4700B85088285090D
:103233008312378380768E828F83A3A3A3A3E0F5C3
:103243001278121219F4850882850983A3A3121A2E
:10325300077512F175130278121219F0781012190A
:10326300F074091217B9121A0774091217B9123236
:10327300B2850A82850B8312376B121783E9FE70BE
:103283000F7CF17D0212345E120433E97009801A57
:1032930074166E70027E00123D39EE7004800B7E50
:1032A30001850882850983123A86EEF9023A9BE08A
:1032B300F9AC0CAD0D22123A718A0C8B0DEA4B223C
:1032C30074E81217DD74FE12176D8A168B178C14AF
:1032D3008D15EA2405F50CE43517F50DEA2402F5FE
:1032E3000EE43517F50F850E821234688A088B09B0
:1032F300750B007C037D0079007AF17B021211FBD0
:10330300750A00E50814F5100424FFF508E50934EF
:10331300FFF509804C9002F1E0FA9002EEE0F8EA42
:1033230028F8E43400F9E50898E50999500D90026E
:10333300F1E0F8E510C3989002EEF0E0F512751392
:103343000078121219F01243CA9002F2E02A1230E6
:10335300B71217839002EEE0F89002F1E028F0052F
:103363000A850C82850D83A3A3123D3240030234E8
:10337300439002F1E0C39508E49509400302344306
:10338300AE0AEE2EFEE433FF123485AC18AD1912EB
:1033930043D7E439FB1206E58A128B13AC12AD1343
:1033A300EA4D701B750B01123476123A8A9002F2C1
:1033B300122A12600312126DA90B74020236EE85F3
:1033C3001682851783A3A3A3A3E0F50B780B121929
:1033D300F4E4F512F51378121219F07512EE751361
:1033E3000278121219F09002EF121A0774071217DB
:1033F300B9121A07A910850E82850F8312376B1233
:103403001783E9F50B70A0123E256003023318E41D
:10341300F512F51378121219F07CFF7DFF790F85F1
:103423000E82850F8312377A1217838B13A9131217
:103433002E8060030233181234761237870233BDAD
:103443007CF17D02850E82850F8312346412043968
:10345300E960030233B079000233BD850A82850B2C
:10346300831230E52212346C22F583123A79FB126F
:1034730004FF22123485123A79F9EA8514828515FC
:103483008322850C82850D83E02EF8A3E03F88829A
:10349300F5832274E81217DD74FA12176D7404129F
:1034A30017B91230CD8C168D1774041217B9E02496
:1034B30005F50EA3E03400F50F74041217B9E024E8
:1034C300021236F612370B7F007E00A818A919885E
:1034D30008890978081219F0850E82850F83A3A342
:1034E300A3A3E0F5088F0978081219F0E50E240567
:1034F300F508E4350FF50978081219F0850E828571
:103503000F83A3A31237531217838A0C8B0D8024C6
:10351300123726F00F123726F00F9002EE123A5CA4
:103523001219F01243CAEFF81230B2121783900245
:10353300EEE02FFFE50C450D607A8518828519832F
:10354300121A07AC0CAD0D85148285158312370250
:10355300121783E9FEE50C2404F510E4350DF5118B
:10356300E9704B74041217B912372CF50878081256
:1035730019F4E4F508F50978081219F07508EE75E1
:10358300090278081219F09002EF121A0774071251
:1035930017B9121A07E50A24FAF9AC0CAD0D851414
:1035A3008285158312376B121783E9FE6036123753
:1035B30042123A89EF70030236D99002F2E0F5F035
:1035C300EF849002F1F07CF17D02851482851583EE
:1035D30012346412043FE960069002F3123D3C7911
:1035E300000236ECEFF508703DE4F512F51378129E
:1035F3001219F07CFF7DFF791185148285158312E2
:10360300377A1217838B13A9139002F3122E837048
:10361300091237421237860236EC9002EEE0240498
:103623009002F2F080359002EEE0F89002F2E0FCB6
:10363300E82404FAE43400FBEA6C4B60030235BD72
:10364300E50A24FAFAE50B34FFFBE50828F8E4342D
:1036530000F9EA98EB9950030235BD851082851174
:1036630083E0C0E09002F3E02FF8A3E03400888207
:10367300F583D0E0F00F851082851183A3E0C0E0CD
:10368300123713D0E0F00F74021217C388088909A8
:1036930078081219F074021217B9121A07850E82EC
:1036A300850F83A3A31237351217838A0C8B0DEA78
:1036B3004B700302351374021217B9E0C0E01237DE
:1036C30013D0E0F00F74021217B9A3E0C0E0123771
:1036D30013D0E002351BEE70027E0A850E82850F41
:1036E30083123748123A89EEF974061217837F1052
:1036F3000218AFF514A3E03400F5158514822212E5
:1037030030E51206CD74022212346C8A0A8B0B2226
:10371300123717229002F3E02FFAA3E034008A82D3
:10372300F5832212371774FF221243B6A3A3A3A370
:10373300E0221243D1AA0CAB0D1206EB74042285CE
:10374300108285118312455FF985168285178322BE
:103753001243D1850E82850F831230E51206DF7482
:1037630006228510828511831230E51208477409F9
:10377300228510828511831230E51207B17402226B
:10378300123A8FE8F0A3E9F079112274EA1217DDF7
:1037930074FE12176D8A088B098C128D13EA2405A7
:1037A300FEE43509FF123A658A0C8B0DEE2406F50B
:1037B3000EE43FF50FEA4B7003023874E508240268
:1037C300F50AE43509F50B8A828B83A3A3A3E0A250
:1037D300E5502212389E8A108B11EA4B602479122D
:1037E300AC0CAD0D12345E8510828511831217DB8C
:1037F300E9F50C707F850E82850F83E060097952AD
:103803008011750C0E806D850882850983A3A3A39F
:10381300A3E0F9E4F508F50978081219F08E828F10
:1038230083A3A3E0F50878081219F08E828F83A38F
:10383300A3A3121A078E828F831243CD850A828532
:103843000B83123BAB121783E9F50C7011850E82C3
:10385300850F83E0702C12345E12044580247416A5
:10386300697011750C0074181217B91243B2E48011
:1038730010750C01124555851282851383E8F0A358
:10388300E9F0850E82850F83E0600479008002A948
:103893000C74021217837F0E0218AF8518828519E4
:1038A300831230E512083B2274EC1217DD74F71211
:1038B300176D8A0A8B0B8C108D11EA2405FEE435F3
:1038C3000BFF750C00123A658A088B09EA4B7003EB
:1038D300023A47E50A2402F50A5002050B8A828B55
:1038E30083A3A3A3E0A2E5502512389E8A0C8B0D77
:1038F300EA4B604F7912AC08AD0912345E850C8235
:10390300850D831217DBE9F50C6003023A4A850A39
:1039130082850B83E0F508A3E0F509AA08FB1208EA
:103923002FEA4B70197AFF7BFF12082FEA4B7003C3
:10393300023A3D8A828B83E508F0A3E509F0750816
:10394300008008750C0E023A4A05089002EBE0F875
:10395300E508C3984003023A3DE508F50E750F00EC
:103963007403780E12175A8A828B83A3A3E0250E61
:10397300F8A3E0350F123E1A70CF8E828F83123A6E
:103983007E1230CD8E828F83A3A3123A7E1230CB68
:10399300EE2404F508E43FF509850882F583E08801
:1039A300828983A3A3A3A3F0A3E4F0EE2405F50E79
:1039B300E43FF50F850E82F583123A7EA3A3A3A3FA
:1039C3001230CB75120775130078121219F0EEFC42
:1039D300EFFD74041217CB124388121783E4F51218
:1039E30078121219F0850882850983E0FC7D00793D
:1039F30017850A82850B8312377A1217837407128D
:103A030017B91231CB6038850882850983123A5C75
:103A13001219F0850E82850F831243CD124388124B
:103A2300178374021217D312345E12044BE9602316
:103A330074071217B9123D3C8019750C098008757B
:103A43000C118003750C0112455585108285118375
:103A5300123A89A90C74098041E0F50875090078C8
:103A63000822AC18AD198E82F583123A7122123AEC
:103A730079FB1206E522E0FAA3E0221230E5888200
:103A8300898322123A8FE8F0A3E9F022E0F8A3E059
:103A9300F9850E82850F832274041217837F0C022B
:103AA30018AF74EC1217DD123B99751000EA24026B
:103AB300F50CE43FF50D850C82F58312346412088E
:103AC3002F8A088B09EA4B7003023B7D850A8285A6
:103AD3000B83E064016003023B72AC08AD09AA0AE0
:103AE300AB0B120823E9606F850882850983122EC8
:103AF30063EE2406F50AE43FF50B8E828F83A3A3BE
:103B0300121A078E828F83A3A3A3A3121A07850A0F
:103B130082850B83121A0779188E828F831243CD05
:103B2300850C82850D83123BAB121783E9F874165B
:103B330068700B850A82850B83E4F0A38014E96027
:103B4300128E828F83123464850E82850F83EAF08E
:103B5300A3EBF089108018780E1219F0AC08AD09A8
:103B6300EEFAEFFB1208297402121783E9F510AA83
:103B730008AB09120835E510700E850C82850D839C
:103B830012346412045180097416651070037510A1
:103B930000A910023AA0EAFEEBFF8C0E8D0FEA2477
:103BA30005F50AE43FF50B221230E512084D7406C1
:103BB3002274EA1217DD7508007509007E007F0084
:103BC300750A00EC2402F510E43DF5118035EC652F
:103BD300087003ED65096003023C6988828983A349
:103BE300A3E06A7003A3E06B707C88828983A3A33C
:103BF300A3A3124559EE28FEEF39FFEA28FAEB3961
:103C0300FB050A123D2F503BE50AF50C750D0074B8
:103C130003780C12175A851082851183123D2212E4
:103C23003E1A601FE508450970A48C088D09888237
:103C33008983122E6188828983A3A3E02EFAA3E0ED
:103C43003F80BDE50AC394025003023D1D75080081
:103C5300750900EE4F600FEEFAEFFB1212678A0E42
:103C63008B0FEA4B70057900023D1F750B00807FB7
:103C7300E50BF50C750D007403780C12175A8510BB
:103C830082851183E0250CF50CA3E0350DF50DE5D8
:103C93000C2406F514E4350DF515851482123E1D2A
:103CA300603AE50C2404F512E4350DF51385128210
:103CB300F583121A07E50E2508FAE50F1243811260
:103CC3001783851282851383E02508F508A3E03561
:103CD30009F509851482851583123D3CE50B600DBA
:103CE3007C087D007900AA0CAB0D1211FB050BE5D6
:103CF3000BC3950A5003023C73851082851183120E
:103D030045598882F583A3A3A3A3A3A3E50EF0A338
:103D1300E50F122A19EEF0A3EFF079010238991298
:103D23003D2622E0250CF8A3E0350D229002EBE0BE
:103D3300F8E50AC398229002F21230E512126D22BE
:103D430074F01217DD8A0E8B0F8C0A8D0B750D0024
:103D5300750C00804A7916EE2406F508E43FF50950
:103D63008E828F83A3A3121A078E828F83A3A3A3AA
:103D7300A3121A07850882850983121A07850E8202
:103D8300850F83A3A3123BAB121783E9F50D7416BA
:103D9300697064850882850983E4F0A3F0050C90BB
:103DA30002EBE0F8E50CC398505EAA0C7B008A088E
:103DB3008B097403780812175A850A82850B83A32B
:103DC300A3123E74E8FEE9FF123E1B603BEA2401A6
:103DD3000A50010B9002EBE06A7001EB60148882D9
:103DE3008983A3A3A3A3A3A3A3A3123E28600302CF
:103DF3003D587918023D5AE960A3124555741012D3
:103E030017B9123E12123A89A90D7F080218AF1290
:103E13003A79F5838A8222F98882F5831243D1ECB9
:103E23004D229002F212455FF9E8492274F6121707
:103E3300DD7C0080010C900348E0F8ECC398501F30
:103E4300ECF5087509007402780812175A123E69D6
:103E5300E06A7003A3E06B70DCE8FAE9FB80047AA4
:103E6300007B00023F059002E9123E748882F583CD
:103E730022E02508F8A3E03509F92274F21217DDD0
:103E83008A088B09750A0080278E828F83A3A3A3D8
:103E9300A3122A10600312126D7C087D007900EED4
:103EA300FAEFFB1211FB8E828F83E4F0A3F0050A75
:103EB300123D2F5028E50AF50C750D007403780C9C
:103EC30012175A850882850983A3A3E0250CFEA354
:103ED300E0350DFF8E82F583123E2870AC85088293
:103EE30085098374FFF0A3F002464274F61217DDCE
:103EF3001244F670067A007B008007A3A3A3A312E3
:103F030034647F020218AF74F61217DDE9FE8C8267
:103F13008D83E06402703D1244E6F508A3E0F9A83E
:103F23000874026870037429697029750802750999
:103F33000078081219F0740E1217B9121A07740ECA
:103F43001217B9121A07EEF91210F3740612178337
:103F5300E9F98002790180AA74E81217DD74FB1273
:103F6300176DE9851882851983F08A168B17ECFE85
:103F7300EDFF7510008C82F583A3A3A3E0A2E450A8
:103F83002A741D1217B91238A48A828B83E58245DD
:103F9300837003024377790AEEFCEFFDAA16AB1791
:103FA3001217DBE9F510600302437A741F1217B985
:103FB300E0F508A3E0F50974211217B9E0F50AA3A7
:103FC300E0F50B74231217B9E0F50EA3E0F50F8E9D
:103FD300828F83E064026003024323A31245598561
:103FE3000882850983A3858212858313EE2406F54F
:103FF3000CE43FF50D888289831243D7F514E43925
:10400300F5157814121A7A010000280128324007A6
:10401300000228FE400328674000291F4201294A65
:10402300420229E84103291F420429C0422343E5F0
:104033000E450F600302431E850C82850D831245D6
:1040430059E8FAE98882F583E0850A82850B8312B1
:1040530043E112438E1219F08A828983A3E0FCA301
:10406300E00242ACE50E450F600302431E850A825F
:10407300850B837401F01243BF850882850983F0A1
:104083007C007D008E828F83A3A3A3A3E02401FA87
:10409300A3E03400FB1206E5EA4B60458A828B837A
:1040A300E02402F8850A82850B83E028F0EA2404E1
:1040B300F8E43BF98882F583E08512828513831245
:1040C30043E7F08A828B8312438E1219F08A828B24
:1040D30083A31243CDE5082403FAE43509FB024226
:1040E300B1850A82850B83E02404F07C047D00798A
:1040F30000AA12AB131211FB02437AE50E450F60BF
:104103000302431E1243BFFEA3E0FF850A82850B11
:10411300837404F0EE850882850983F0EF851282AB
:10412300851383F074031217D31244D8700302412A
:10413300C98A828B83A3A3122E6174011217C388C9
:104143000E890F780E1219F074051217B9121A0797
:104153007CFF7DFF1206EB7404121783EA4B703366
:10416300850C82850D831243A91219F0850C828573
:104173000D83A3121A077C027D007AAA7B821204A4
:10418300ED7404121783E9700A74011217B974FFEE
:10419300F0A3F08E828F83E064027034750C027595
:1041A3000D00780C1219F08E828F83A31243CDE594
:1041B300082404FAE4124381121783850A82850BCB
:1041C30083E02402800974011217B9EEF0A3EFF023
:1041D30074011217B912439FF074011217B9A31295
:1041E3004397024318E50E450F600302431E850CF7
:1041F30082850D831243B21243CDAA16AB17121058
:10420300F9850A82850B837402F085088285098308
:10421300EAF0851282851383EB02431BE50E450FFB
:10422300600302431E1243BFF8A3E0F9850A8285A7
:104233000B837402F0E8850882850983F0E985120F
:104243008285138302431B850C82850D831234649C
:104253001211DDEAF8C3950EE4950F405AEA650E94
:10426300450F700478008021851882851983E0FC4E
:10427300E50E2CFCE4350FFDC3EC9AED94005003DE
:10428300E08005E50EC8C398F8E8850A82850B83AC
:10429300F0F50A750B00780A1219F0850C82850D6A
:1042A30083E0250EFCA3E0350FFDAA08AB091243FA
:1042B3008812178302437A75100702437AE50E4585
:1042C3000F7058850C82850D83124559850A8285A6
:1042D3000B8374071243E11243971243E1A3E08572
:1042E3001282851383F0E82402FAE439FB8A82F50B
:1042F30083124397A31228F812439F122A181243DA
:10430300A3F0E82405F8500109F58289831243A339
:10431300A31243E7A3A3A3A3F0805C75100B8057FC
:10432300741D1217B91244EF604A12455F880CF5E9
:104333000DE8450D603E74251217B9E0F5107810AD
:104343001219F4780E1219F0780A1219F07808127B
:1043530019F074071217B9E0F9EEFCEFFDAA16ABDA
:1043630017850C82850D831217DB7407121783E9F7
:10437300F510800375100EA91074050236EE350989
:1043830012438722FB1211E3740222E0F50A750B34
:1043930000780A22E0850882850983221243F122EC
:1043A3001243F1A3A322E0F50E750F00780E22123B
:1043B30043B622E0F8A3E0F583888222850C828548
:1043C3000D831243B6E0229002EF1243D122E0FCA8
:1043D300A3E0FD22123A79F8E4C8F9EA2822F0882A
:1043E30082898322F088828983A31243F122E085A4
:1043F3000882850983A3A32274EE1217DD74FE12CB
:10440300176D8A088B09ECFEEDFF890AAC18AD190C
:104413001244D870030244C9851882851983124453
:10442300EF70030244C4A312455E880EF50FE845FE
:104433000F70030244C474141217B9E0F510A3E01B
:10444300F511E50AF50B780B1219F474191217B963
:10445300121A0778101219F0741B1217B91232B21C
:10446300AA08AB09850E82850F831217DB74051228
:104473001783E9F50B705274FE650A604C850C8254
:10448300850D83E0640270411244E6FAA3E0F9EA81
:10449300F87402687003742969702E85108285117F
:1044A300831243D7F50CE439F50D780C1219F0EEAD
:1044B300FCEFFDAA08AB091208657402121783808A
:1044C30008750B0E8003750B01A90B740212178379
:1044D3007F0A0218AFEEFAEFFB1206E58A0C8B0D8A
:1044E300EA4B2212455E8882F583E0221230E51200
:1044F30044F6221207E18A828B83E5824583227484
:10450300F61217DD74FE12176D740C1217B91245EB
:1045130059E8851882851983F074011217B9E9F0F7
:10452300E4F508F50978081219F0750802780812FD
:1045330019F074041217C38808890978081219F04E
:1045430079FE12084D740612178374021217830240
:104553003F058E828F8312455FF922A3E0F8A3E023
:104563002274F71217DDEAFEEBFF890890030612A7
:1045730043CD1210F9EA5402600BA908EEFAEFFBDF
:104583001206D9800279017F010218AF74F2121763
:10459300DD74FE12176DEAFEEBFF7401696013749C
:1045A3000269600302463D7901120A69E960030268
:1045B300463DEEFAEFFB12082FEA4B600312083573
:1045C300A818A9198808890978081219F07508022A
:1045D30075090078081219F07508A2750982780820
:1045E3001219F07CFF7DFF7A017B001206DF74064F
:1045F300121783803B850882850983A3A3A3A3A302
:10460300A31243B21243CDEEFAEFFB1210EDE4F521
:104613000CF50D780C1219F074021217B9121A075F
:104623007CFF7DFFAA08AB091206EB740412178303
:104633008A088B09E508450970BB74021217837F4A
:10464300060218AF74F41217DD8A088B09ECFEED2D
:10465300FF9015E5E0F460487A097B0012120DEA39
:104663004B603D8A828B8374B1F0A3E41246A61299
:1046730028F9A3E508F0A3E5091246A6A3EEF0A3E3
:10468300EFF0740C1217B91245598A828B83A3A3D6
:10469300A3A3A3A3A3123A899015E5E0F912121973
:1046A300022A4EF08A828B83A3A3A3A322C082C0D3
:1046B300839061907404F0A37448F0A37402F090A3
:1046C30061807440F09061BC7403F0906187741949
:1046D300F0906265741BF0906249E0C3941390619B
:1046E3009C40107409F09060667401F090619F74AF
:1046F30028800D740BF0906066E4F090619F742C39
:10470300F01248957009C29190037A7467800590FE
:10471300037A7461F090273AE493906186F09027CE
:1047230034E493F46006E493F9120B5F7905120EF7
:104733001D024AFEC082C083E9540FF9906185E0EF
:10474300696012E5C654B84441F5C6E59E54476412
:104753004170F8E9F053C6B8E59E544770FA024A2F
:10476300FEC082C083A8A853A87E906181E412553D
:1047730073C2BA539AFEC289759B00C2C275E9001F
:1047830075910075BF0075A91175B905906181F028
:10479300A374C0125CF7D2BA439A0174805842A83A
:1047A300024AFEC082C08374F812176D9003781218
:1047B3005F8C7003024876900378E0544060177969
:1047C30008AA18AB19120C5BAA18AB191208D190DE
:1047D3000378E054BFF0E054806010790C7A477B93
:1047E30005120C5B900378E0547FF0E0A2E05019CF
:1047F3001248957009C29190037A746780059003FB
:104803007A746112487E54FEF0E054026019124833
:10481300DA7009D29190037A7471800590037A74E7
:104823006A12487E54FDF0E0540460099027381260
:10483300488754FBF0E054086009902739124887F1
:1048430054F7F0E05410600990273A12488754EF68
:10485300F0E05420600A1208DD900378E054DFF0A2
:10486300A3E05401600D120B7D1208E3900379E07D
:1048730054FEF07408121783024AFEF01208D79010
:104883000378E022E493906186F01208DD900378C8
:10489300E02290619A124AD2900521E0640122C07D
:1048A30082C083E960051460178029124895700956
:1048B300C29190037A7467801A90037A74618013AB
:1048C3001248DA7009D29190037A747180059003CB
:1048D3007A746AF0024AFE90619A124AC4900521E2
:1048E300E064012274EA1217DD74F412176D9082EA
:1048F3007AAC18AD19740412168090273893F460BB
:1049030003024A59907808E0C394025003024A3DD7
:104913009081CF74041217D37408121680A818A9B3
:10492300198814891574041217C388088909AE08F5
:10493300AF097510FF7511FF750EFF7C00750C48EC
:10494300750D78801274086C70030249D274096C77
:10495300607D740A6C6078850C82850D83780812FB
:1049630016198E828F83A909E50AC9F5127418787E
:1049730008121542E5124508F8C3E098A3E09985AB
:104983000C82850D83780812161940188E828F8346
:1049930074187808121542E5124508F8E0C398F830
:1049A300A3E0801A74187808121542E5124508FA34
:1049B300E9FB8E828F83125C0BEAC398F8EB99F9BB
:1049C300C3E89510E995115006881089118C0E0CD7
:1049D300E50C2404F50C5002050DECC394135003AD
:1049E30002494874FF6510700474FF65116025E582
:1049F3000EF5087402780812175A74482508F582D0
:104A030074783509F583780812161985148285158B
:104A130083E508F0EE2402FE50010F85148285150C
:104A230083A3858214858315740C1217B9E5826EEE
:104A33007003E5836F60030249357508017509004A
:104A430078081219F074021217D37ACE7B09121167
:104A5300477402121783740C1217837F0E0218AF68
:104A6300C082C0839061AE7468F0A3746AF09062F0
:104A73004574FBF0A304F053F4FD43FE02900521BB
:104A83007401F09061A0E0643A90619A7019124A3F
:104A9300D2740164017009C29190037A7467801E15
:104AA30090037A74618017124AC474016401700917
:104AB300D29190037A7471800590037A746A024CE0
:104AC300ED743FF0A3745AF09061A0747FF02274E8
:104AD30033F0A37455F09061A0743AF022C082C001
:104AE300839004D3E06401700A9004D8E0600479F1
:104AF3000C800279008004A2E092AFD083D08202BE
:104B0300011FC082C08375E1F19004D6E0605314A5
:104B1300600914605714604F147056120B8F900481
:104B2300C5E0F97AC67B04120D9F90827612163780
:104B3300120DD590821E121637120DAB9004D7E0DA
:104B4300F9120DB77901120E119004C3124E5B24B2
:104B53001AF582E438F58374A7F0A3740BF0790097
:104B63008099120B9580B7120B9B80B2120BA18018
:104B7300AD791280EB74F41217DD75D90D9004CC66
:104B8300E0A2E0E4331313F8124D48484401F5D989
:104B93007582C6758304124D527004E583640470F4
:104BA300F57582CD758304124EB4E58264D3700427
:104BB300E583640470F175E1959004CCE0F97ACD56
:104BC3007B04120DA59016097435F0A3740B124CD7
:104BD3009C124CDA124CD1124E239004D6E064019D
:104BE3009004C3700B124C2D12161990825A80092F
:104BF300124C2D121619908256780812158D908238
:104C03002678081215F39004C3125B07E438F58382
:104C130078081216289004C3124E5B124CC8741302
:104C2300F09003767402F0025BF8125F14A3A3788A
:104C33000822C082C083124D38F5D97582C67583A8
:104C430004124D527004E583640470F59004DCE0B3
:104C5300600A78C37904FA124DECDAFB124DDB12C9
:104C63004D527004E583640470F59004FCE0600D1C
:104C730078C37904FAE8243A124DEFDAF875E1952E
:104C83009016097441F0A3740B124C9C124CA67439
:104C930012F090037674018051124E0C743BF0A312
:104CA300740B22124CDA124CD1124E279004C31209
:104CB3005B0BE438F58374FF1255619004C3124E05
:104CC3005F124CC8222414F582E438F58322F0A342
:104CD3007453F0A3740B22124CDE22124CE222F026
:104CE300A374BBF0A3740C22F0A3F0024AFEC082AB
:104CF300C083124D384402F5D97582C675830412F8
:104D03004D527004E583640470F59004DCE0600A9E
:104D130078C37904FA124DECDAFB75E19590160924
:104D2300124D5BF0A3124D5B124CA97414F0900367
:104D330076740480B59004DC124D3F22E02407F51D
:104D4300D9124D48229004C5E0C4333354C022E045
:104D5300F5D9A3E58264CC22744D124D68124D68D7
:104D6300F0A3740B22F0A3740BF0A3744D22C08242
:104D7300C083124D384406F5D97582C67583041273
:104D83004D527004E583640470F59004DCE0600A1E
:104D930078C37904FA124DECDAFB124DDB124D5253
:104DA3007004E583640470F59004FCE0600D78C33F
:104DB3007904FAE8243A124DEFDAF875E195901682
:104DC300097447F0A3740B124E02124CA67415F02B
:104DD3009003767403024CED9004FC124D3F44049F
:104DE300F5D97582C675830422E8241AF582E4395D
:104DF300F583E0F5D988828983A3A882A983221247
:104E03004E0C74BBF0A3740C22124E1022124E1DD2
:104E130074BBF0A3740C124E1D22124CE2F0A322B9
:104E2300124E2722F090161774BBF0A3740C124E87
:104E33001074BBF0A3740C124CDEF022C082C0834A
:104E43009004C3124E5B2406F582E438F583E40232
:104E53004CEB851882851983124E5F22E0F8A3E09C
:104E6300C82274F71217DD9003A4125BFD74A62801
:104E7300F8740339F9E82405FAE439FB8A82125CF1
:104E8300DDA3A3A3A3A3A3A3A3A3125F73A3A3A3BA
:104E9300A3A3A3A3E024FFF8A3E034FFF98A828B42
:104EA30083125F450250997C017903120CAF74029F
:104EB30022E0F5D9A3221251D43BF583E022F0EA94
:104EC3002484F582E43BF583E022EAF8EE28F8E453
:104ED3003BF9E82274F71217DDEAFEEBFF9061D08D
:104EE300E0706875D90E75D90375D9047A00124E2E
:104EF300CD248D124F6840F67A00124ECD248512D0
:104F03004F6240F675E1957908EE248D124F5B24CC
:104F130085124F537C00ECF8C3E498FA95E0FBEE5E
:104F23002AFAEF3BFBEA248C125EE9C0E0EE28F894
:104F3300E43FF9E824ACF582E439F583D0E0F00CE2
:104F4300ECC3940840D012505B8002790002509960
:104F5300FAE43FFB120C4F22124F537904EE221254
:104F63004F6E940422124F6E940822F582E439F5B1
:104F730083E0F5D90AEAC322C082C08375D90275DA
:104F8300D90375D90575E195EA124FF33B125C0914
:104F9300EA2471F582E43B125068024AFE74F61269
:104FA30017DDEAFEEBFF9005277406125002121973
:104FB300F0124EAA12178375D90675D90375822785
:104FC300758305124FF97004E583640570F575E187
:104FD30095900376E064087011124FF23F125C095A
:104FE300EE2471F582E43F125F437901025147EEEB
:104FF300246FF582E422E0F5D9A3E582642C22F044
:1050030075082775090578082274F61217DDEAFE7C
:10501300EBFF9061D0E070337801900527740BF0BB
:10502300900376E0640770137508277509057808FF
:105033001219F0124EAA12178378051252BF124E9C
:10504300B4DAFB75E19512505B8002790002514797
:1050530075E1957904120DDBEE246F125F92EE2455
:1050630071F582E43FF583E8F0A3E9F07901227456
:10507300F71217DDEAFEEBFF75D90375D90375D96E
:105083000DEA24DF125DD6F5D91250538008F0EEF5
:10509300A2E092AF79007F010218AFE8C39A95E0CE
:1050A300C365D0332274F61217DD1251C860047A37
:1050B3000F80027A0B12509E40437C09900527EC27
:1050C300125119125128DDFB125DD360197508279F
:1050D30075090578081219F07903EEFAEFFB124E01
:1050E300AE1217837C0D1251041251BF70FB75E190
:1050F300957904120DDB1252487901800279008000
:105103004312510A8C082274012CF5D975D9037501
:10511300822775830522F0EE24E4F8E43FF97A2828
:105123007B057D082288828983E08A828B83125FD4
:105133007BA3A882A9838A828B83A3AA82AB8322BF
:10514300A2E092AF7F020218AF74F61217DD12517C
:10515300C860047A0C80027A0812509E405A78067E
:10516300900527740CF0900393E0900528F09003CA
:1051730094E0900529F0900395E090052AF09003C0
:1051830096E090052BF0900397E090052C12525C6B
:10519300601975082775090578081219F07C0679D6
:1051A30003EEFA124EAE121783780A1252561251B8
:1051B300BF70FB125053800279008088E0F5D9A3B9
:1051C3001508E50822EAFEEBFF1251D43FF583E010
:1051D300229061D0E0F87480C398F8EA2484F582C1
:1051E300E42274F61217DD1251C860047A088002B3
:1051F3007A0412509E40497802900527E8F0EE2485
:10520300F6125DD690052812525C60197508277551
:10521300090578081219F07C027903EEFA124EAEF2
:1052230012178378061252561251BF70FB75E1951F
:105233001252487904120DDBEE240D12505E8002E7
:105243007900025147EE241DF582E43FF583E4F033
:10525300A3F0221252C5880822F0EE2484F582E4DA
:105263003FF583E02274F61217DD124EB960047C19
:105273000880027C04E8C39C1250A1403A78029053
:1052830005277407F0EA24F7125EE9900528124E09
:10529300C1601575082775090578081219F07C0295
:1052A300124EAC12178378061252BF124EB4DAFBB9
:1052B30075E1957901800279000251471252C5E8E0
:1052C300FA22740128F5D975D903758227758305E8
:1052D3002274F61217DDE9FEA2AFE433FDC2AF7C00
:1052E3000080010C125EE6F8ECC3985014ECF8EA67
:1052F300124ED0246AF582E439F583E06E70E480BF
:1053030018EA246EF8E43BF9E0F508EA2508FAE424
:105313003BFB1253ADEE125464ED02514374F6128B
:1053230017DDEAFCEBFDA2AFE433F508C2AFEA24D4
:105333006EF582E43DF583E014F0EA246AFAE43D75
:10534300FBEA2403F8E43BF9E8FEE9FF8A828B8356
:10535300A3A882A983E08A828B83F0E8FAE9FBEEB3
:105363006A7002EF6B70E5EC246DF582E43DF58322
:1053730074FFF0EC2469F582E43DF583E4F0E5087D
:10538300025143C082C083A2AFE433F8C2AF1253C9
:10539300ADE9F0EA2469F582E43BF583E4F0125EBB
:1053A300E670037401F0E8024AFAEA246AF582E43B
:1053B3003BF5832274F31217DDEAFEEBFFECFAED03
:1053C300FB8C82F583A3A3A3A3E0541FF0EE243642
:1053D300F582E43FF583E4F0750800EE245DFCE418
:1053E3003FFD8A828B83E08C828D83F0750900E513
:1053F3000833333354F8F50C8A828B83E0F50A754E
:105403000B00E509780A12173BE50AA2E05027EEE4
:105413002436F8E43FF98882F583E0F50AEE250A9D
:10542300F50AE43FF50BE50A2438F582E4350BF57C
:1054330083E50C1254640509050CE509C39408407F
:10544300B705088A828B83A3AA82AB838C828D8360
:10545300A3AC82AD83E508C3940540867F0502189B
:10546300AF125F7BE004F022C082C0839003A2E00E
:10547300640170030255597C009003A8E0600302A5
:105483005559125CF5A3F090040804F090040DF054
:105493009003AB1255609003B504F09003DBE4F086
:1054A3009003BE125567A3F0900426F090041AF0FF
:1054B300900429F090040E7480125CF7900414F0A9
:1054C30090049212557990049BF090042AF0900472
:1054D3007A125579A3F0A3F0900486F0900488F033
:1054E300900484F090049E1255799004B1F09004D6
:1054F300AB12556774FF9004107804F0A3D8FC7ABC
:10550300037B0478B67904125128E864BB7003E97D
:10551300640470F3788A790388828983E0C0E0ECBD
:10552300FA748A2AF582E43404F583D0E0F00C8817
:10553300828983A3A882A983ECC3940840DA9003E9
:10554300A2E004F0640170089003AAE09003A4F0C1
:105553007AA67B0380047A007B00024AFEE412559C
:1055630073A3F02212556B22125573A312557322A3
:10557300F0A3F0A3F02212556BA3F0A3F022C08294
:10558300C0838A828B83A3A3A3E0600F8A828B8369
:10559300A3A3A3E4F09003A3E014F09003A2E01408
:1055A300F070069003A474FFF08A828B83A3A3E4B4
:1055B300F09004BBE0700D9003A3E06401700579E3
:1055C30000120DBD024AFEC082C0839003A9E4F01D
:1055D3009003A8F09003A2F0A3F0A374FFF075E189
:1055E300F1024AFE74E81217DD74F412176D851880
:1055F30082851983EAF0A3EB125B89125B331216DF
:105603004374021217B912164F88828983A3A3A386
:10561300A3A3A3125C0B74061217B9125F4574247B
:105623001217B9121A0374061217B9121637122475
:10563300017404121783E96003025A94125B5D122A
:105643001A0374281217B912163712245D74041240
:1056530017838A088B098C0A8D0B125B7270030205
:105663005936124E552475F582E438F583C082C04D
:1056730083851882851983125B27A3125C0BD08361
:10568300D082E0C398F50CA3E099F50D125B726428
:10569300028518828519837008125B07E83401803C
:1056A30003125B1DF583E0F510A3E0F511850C14DF
:1056B300850D15751600751700E4F512F5137814AA
:1056C300791012145374081217B978141216281289
:1056D3005B5D781012161974081217B97810121539
:1056E3008D78101219EC74281217B9121637122478
:1056F300017404121783E9700302593685188285F1
:105703001983E0125AFDF583E0F510A3E0F511E4E7
:10571300F512F51374081217B978081215C778082B
:10572300791012157A90824E780812158D8510140F
:10573300851115851216851317780879141214D359
:10574300850814850915850A16850B1778147910B1
:10575300121453E50C2508FEE50D3509FF125F21F0
:1057630074081217B9C082C083124E552478F5828B
:10577300E438F583125B15E4F50AF50BD083D08288
:10578300780812158D7808791412157A125B7264F1
:10579300016003025989851882851983E02477FC07
:1057A300A3E03400FD851882851983E0FAA3E0FBAA
:1057B300120C31124E55125B442420125BB5241C8B
:1057C300F582E438F583E4125BBF241DF582E438E7
:1057D300F583E4F0A3125BBF2407125B46125AF46D
:1057E300E028F8A3E039125B50240B125BB5247A4E
:1057F300125B46242EF582E43AF583E0687003A336
:10580300E0697042851882851983E0247EF582E47D
:105813003A125B4A2432F582E43AF583E068700376
:10582300A3E0697021851882851983E0247CF582C1
:10583300E43A125B4A2430F582E43AF583E0687077
:1058430003A3E069605F124E55247EF582E438F5C8
:1058530083E0F50CA3E0F50D7404780C12174B7874
:105863000C1219F074021217B9124E5B247CF582E4
:10587300E438F583121A0774041217B9124E5B2425
:105883007AF582E438F583E0FCA3E0C313FDEC135F
:10589300FC74041217B9125B27E0FA7B0012093774
:1058A3007404121783851882851983E0242EF8A3C4
:1058B300E03400F9E8FAE9FB8882125C0985188272
:1058C300851983E0FCA3E0CC240EF582EC340112AD
:1058D3005BB92477F582E438F583E0C0E0124E55D6
:1058E300242BF582E438F583D0E0125B89125AFD4C
:1058F300125F67ECF0A3ED125BBF125B442430121E
:105903005BB5247E125B462432125BA11216E212AF
:105913005B51246F125BA11216E2EA4B600A124E2E
:1059230055124FF338125D92124E55125B8074027A
:10593300F08053851882851983E0242EFAA3E0347E
:10594300008A82F583E0F50CA3E0F50DE4F50EF58E
:105953000F7808790C12157A90824E780812158DFB
:10596300850C10850D11850E12850F13780879109B
:105973001214D3AE08AF09125F21E4F50AF50B78D0
:1059830008790C121453125F0A125C0BE8FAE988C7
:1059930082F583A3A3A3A3A3A3A3A385080C8509CB
:1059A3000D850A0E850B0F780C12158D74021217D4
:1059B300B9780C1216288A828983E06440707312C6
:1059C3004E552418F582E438F58378081216288595
:1059D3001882851983E02412F508A3E03400F50941
:1059E30078081219F074021217B9124E5B2410F5DD
:1059F30082E438F583121A07EE24FFF50AEF34FF29
:105A0300F50B780A1219F074061217B9125B1DF51B
:105A130083E0F50AA3E0AA0AFBE4FCFD12259D74CA
:105A230006121783AC08AD0974021217CB1224DBDC
:105A3300800974061217B9E4F0A3F085188285195A
:105A430083E0125B33E82408FCE439FD7406121684
:105A53008074021217B9C082C083125F0AE0240265
:105A6300FCA3E03400FDD083D082740612168012AA
:105A73004E552435F582E438F583E0C0E0124E55E7
:105A83002434F582E438F583D0E0125B9AFB121BD1
:105A9300C5124E55240BF582E438F583C082C083CA
:105AA300124E552407F582E438125C09D083D08264
:105AB300E0C398F8A3E099125B50125AEAE8F0A306
:105AC300E9125B9ACA125AF4C3E098A3E099500D05
:105AD300851882851983E0125AEA125CF5740C1258
:105AE30017837F100218AF240CF582EA3401F58383
:105AF30022240DF582E43AF58322247AF8A3E034D4
:105B030000888222125B0B22E0F8A3E0C8240EF582
:105B13008222E0F508A3E0F50922124E5F242EF558
:105B230082E43822125B2B22125F18A3A3A3A322C1
