:020000040000FA
:060000000201070222BA12
:03002B000226E7C3
:0300530002233055
:03006B000226B8B2
:10008300022117E5C754F84401F5C779012200009E
:100093000080FB120086B900030200F1E4792178A5
:1000A30008B800028004F709D8FCE479297802B87B
:1000B30000028004F709D8FCE490028178C3791325
:1000C3008002F0A3D8FCD9FA7A437B1590013778E4
:1000D3004179048015E493A3AD82AE838A828B8336
:1000E300F0A3AA82AB838D828E83D8E9D9E7758288
:1000F300FF7583A8740312011975829175830074C7
:100103000012011975D00075813F751881751902A8
:10011300759F00020096C09FF59FE473D09F22D085
:1001230083D082C09FE493C0E0740193C0E0740263
:1001330093F59F22FF0000B4000028002800283018
:1001430075A000A000A000A00000080008E001F0D6
:10015300001000100010001000100010005000509C
:1001630000500010001000D0070000000000000F36
:100173000001000500307507001000010081FF0039
:10018300000000FFFFFF9306B1069906D506FF02A4
:10019300020208025000A0000000E80302F28101FD
:1001A3000000EF8102F6810100009E1502FC81012F
:1001B3000000BF0202F6810100009F1502FE8101CB
:1001C3000000D50202F681010000A01502008201A1
:1001D3000000D70202F681010000A1150202820885
:1001E3000000D80202F681010000A2150204820178
:1001F3000000A315FF0100FF2002F281010000E3CC
:100203008102F68101000007160206820000000049
:100213000002FA8103000006031700350D350D3582
:100223000D350D350D350D350D350D350D350D35BB
:100233000D350D350DDB0FED0FD50F020202020256
:1002430002020202010D000000100102F28101000E
:1002530000E68102F6810100004A160216820100BF
:1002630000460702F6810100004B160214820100CA
:1002730000238102F6810100004C16021282010064
:1002830000158102F6810100004D16020E82010065
:1002930000B78002F6810100004E16020C820100B5
:1002A30000A58002F6810100004F16020A820100B8
:1002B30000818002F68101000050160228820100AD
:1002C30000938002F681010000511602268201008C
:1002D30000F98002F6810100005216022E8201000D
:1002E30000531601E8030577100AFFFFFF000130F2
:1002F300750302010600000000000000000000007A
:1003030000000000000000000000000000000000EA
:1003130000FFFF0600800CE803140953696D706C3D
:1003230065424C455065726970686572616C05126F
:1003330050002003020A000201050302F0FF536983
:100343006D706C6520424C4520506572697068651C
:1003530072616CFB13000001140A436861726163EC
:100363007465726973746963203100024368617252
:10037300616374657269737469632032000843684A
:100383006172616374657269737469632033001009
:10039300436861726163746572697374696320345D
:1003A300000243686172616374657269737469639F
:1003B30020350002F281010000E98102F68101008B
:1003C300006817021C82030000351502F881010042
:1003D30000691702F6810100007A17021E820100EC
:1003E30000361502F8810100007B1702F681010037
:1003F300008C17022082020000371502F8810100E9
:10040300008D1702F6810100009E17022282000070
:1004130000381502FA81030000391502F881010042
:10042300009F1702F681010000B017022482040026
:10043300003B1502F881010000B117104B657920CC
:1004430050726573732053746174650002F2810105
:100453000000EC8102F6810100004A18022C8200A0
:100463000000401502FA81030000411502F88101E2
:1004730000004B18120122508B03120122638B03DD
:10048300120122928B03120122CA8B03120122133F
:100493008C03120122568C031201229C8C0312013D
:1004A30022CF8C03120122F68C03120122258D0325
:1004B3001201225C8D03120122758D03120122C4E5
:1004C3008D03120122DD8D03120122258E031201F9
:1004D30022598E0312012266AA0212012264AB0280
:1004E300120122CAAB02120122EDAB02120122EF6A
:1004F300AB021201222DAC021201229EAC021201A8
:10050300225EAD0212012280AD021201221CAE0254
:1005130012012253AE0212012298AE02120122A549
:10052300AE0212012215AF021201225FAF021201C5
:100533002262AF02120122A8AF02120122ABAF0264
:10054300120122B5AF0212012228B0021201225079
:10055300B00212012283B002120122A7B0021201DB
:1005630022A4B10212012248B202120122B4B20241
:10057300120122F0B202120122008003120122288A
:1005830080031201225580031201228D8003120180
:1005930022F380031201223D8103120122A1810370
:1005A300120122E98103120122268203120122543D
:1005B3008203120122E98203120122F38203120150
:1005C300220083031201223383031201223F830398
:1005D300120122578303120122618303120122298C
:1005E3007F00120122377F001201224F7F00120188
:1005F30022667F00120122EFA70112012292A801B5
:10060300120122ABA90112012223AA011201224ADB
:10061300AB0112012283AB011201221BAC011201B7
:100623002208AD01120122B1AD0112012239AF013D
:1006330012012221B00112012218B1011201224E2E
:10064300B101120122F0B10112012216B20112010D
:1006530022E2B30112012228B4011201224AB40199
:10066300120122B6B40112012281B5011201223B0B
:10067300B60112012247B8011201220EC302120170
:1006830022EAC30212012294C402120122D5C40237
:100693001201225CC502120122D7C502120122AA4D
:1006A300C602120122D3C602120122C7C7021201D7
:1006B3002204C802120122ECC8021201221DC9023F
:1006C30012012243C902120122429903120122C1DB
:1006D3009903120122EC9903120122FC9A031201DD
:1006E30022EF8303120122058403120122238403D0
:1006F3001201223385031201223D85031201226771
:100703008603120122548703120122C087031201B8
:1007130022B3C902120122E0CA0212012217CB023C
:100723001201226ECB0212012266CD021201223E79
:100733009501120122C59501120122199701120197
:10074300222597011201229D970112012276980119
:10075300120122769901120122729A011201223E9C
:100763009B01120122989C01120122AE9C011201ED
:1007730022CF9C01120122619D01120122D79D010A
:10078300120122FD9D01120122AAA001120122AF32
:10079300A001120122D3A2011201221AA301120104
:1007A3002280A301120122C6A30112012296A401F1
:1007B3001201224BA501120122A7A501120122AAAF
:1007C300A501120122F6A50112012232A60112018E
:1007D3002271A60112012293A601120122C7A601CA
:1007E30012012235A70112012298D402120122A676
:1007F300D402120122F6D40212012215D5021201EB
:10080300225FD502120122A2D6021201223AD70296
:100813001201227ED702120122A8D702120122134B
:10082300D80212012257D802120122DAD802120189
:100833002289D90212012210270012012220270047
:10084300120122BA2700120122162800120122D413
:100853002800120122F72900120122272A0012017F
:1008630022562A001201220C2C001201225F2E00B4
:10087300120122BE3000120122A731001201229779
:1008830032001201226A340012012262370012017F
:10089300227F3800120122793A00120122883B009C
:1008A300120122173D00120122033E0012012252BF
:1008B3003E00120122C23E00120122DE3E0012015E
:1008C300222F3F00120122CF4300120122D64400FF
:1008D3001201223845001201226345001201221B36
:1008E3004600120122A6EB02120122B0EB02120112
:1008F30022F8EB021201220CEC021201229DEC02FF
:10090300120122D4EC021201220FED02120122384D
:10091300ED021201228CED02120122A1ED0212015D
:1009230022C3ED02120122D8ED02120122ECED02E4
:1009330012012201EE021201223BEE021201226792
:10094300EE02120122B0EE0212012226EF02120180
:100953002269EF0212012293EF02120122BEEF027B
:10096300120122E8A1031201220D8D02120122E6D7
:100973008D02120122558E02120122908E02120163
:1009830022CB8F021201227D90021201222A9302AE
:10099300120122D59302120122B694021201222CD3
:1009A300960212012294960212012244DE021201DF
:1009B3002287DE02120122F2DF0212012230E2025A
:1009C300120122F7FD01120122A4FE011201229D50
:1009D300FF01120122DAFF011201222B9B031201F4
:1009E300228A9B03120122279C031201225A9C0391
:1009F300120122889C03120122C39C03120122E3E9
:100A03009C031201229BD90212012224DA02120151
:100A130022E3DA02120122F1DB0212012211DE02C9
:100A2300120122B97300120122CE7300120122991E
:100A33007400120122667500120122D3750012019F
:100A4300220E7600120122AF7600120122B877003F
:100A53001201229078001201221379001201229CC4
:100A63007900120122057A001201228F7A00120105
:100A730022DC7A001201224A7B00120122EC7B0065
:100A83001201229A7C00120122BA7C00120122FE7A
:100A93007C00120122467D00120122627D001201B8
:100AA30022817D00120122FB7D00120122097E00BA
:100AB3001201229C7E00120122067F00120122CD28
:100AC300E20212012249E30212012287E302120128
:100AD300226BE402120122DAE4021201221EE50271
:100AE30012012261E5021201228EE502120122ACFB
:100AF300E502120122E4E50212012221E6021201BB
:100B03002242E602120122B8E60212012202E702A1
:100B130012012254B801120122E8B901120122265E
:100B2300BC011201226EBC0112012299BC01120107
:100B3300228FBD01120122BFBD0112012216BE0187
:100B430012012229BE011201226ABE01120122975B
:100B5300BE01120122E0BE011201221CBF011201DB
:100B63002261BF01120122AEBF0112012216C00190
:100B730012012248C2011201220FC4011201224AAA
:100B8300C401120122C8C5011201220CC6011201BF
:100B9300227FC601120122E0C60112012268C701A9
:100BA30012012287C80112012298C80112012239B9
:100BB3009702120122AA9702120122739D021201C7
:100BC300226D9E021201222FA002120122ADA00269
:100BD3001201228446001201220B4700120122381F
:100BE30047001201227A47001201227648001201BF
:100BF30022BB4800120122374A00120122B44A00E4
:100C0300120122D94A001201224C4B00120122097F
:100C13004C00120122C54C00120122454D00120165
:100C230022134E00120122394E00120122AB4E0054
:100C33001201224F4F00120122744F00120122E0D1
:100C43004F001201224650001201227C5000120173
:100C530022205100120122B951001201223C5200FC
:100C6300120122A85200120122F452001201225A48
:100C730053001201228B53001201223F5400120130
:100C8300225555001201229E5500120122BB550028
:100C93001201229B5B00120122E35B00120122D0AE
:100CA3005C00120122F55C001201220A5D001201B0
:100CB30022725D00120122B25D00120122C55E00A4
:100CC300120122725F00120122D6A0021201222118
:100CD300A1021201222DA102120122F8A102120186
:100CE300220EA2021201224AA20212012283A202AE
:100CF300120122BBA20212012211A3021201222716
:100D0300A30212012263A30212012276A30212019B
:100D1300229DA302120122D1A302120122A5A40241
:100D230012012234A60212012230A7021201223933
:100D3300A802120122F67F0012012237D701120105
:100D43002272D70112012276DA01120122C8DB01D5
:100D53001201228DDC0112012287DF0112012271AF
:100D6300E001120122BCE001120122D6E0011201CE
:100D73002213E1011201221EE1011201225DE101B0
:100D830012012266E10112012227E201120122E48B
:100D9300E20112012247E301120122ABE301120136
:100DA300222CE4011201223182011201228D8501DC
:100DB300120122938501120122D48C01120122AC6B
:100DC3009101120122C18E031201228B8F031201A2
:100DD30022CF8F031201220990031201229B900359
:100DE3001201220A91031201221391031201221FFD
:100DF300910312012233910312012257910312012D
:100E030022879103120122E6EF02120122F3EF027D
:100E13001201220DF00212012240F0021201227D82
:100E2300F002120122E3F002120122F8F002120191
:100E33002203F10212012210F10212012227F10210
:100E430012012235F10212012240F1021201224C59
:100E5300F1021201225BF10212012266F102120178
:100E6300228CF10212012230F20212012240F2021C
:100E73001201225AF20212012277F2021201229285
:100E8300F202120122B9F202120122C4F202120189
:100E930022D9F202120122EDF2021201224EF302D2
:100EA30012012254F3021201225AF30212012260A8
:100EB300F30212012278F302120122ABF3021201B0
:100EC300220580021201229380021201222881024C
:100ED3001201220482021201223882021201224BE1
:100EE3008202120122C582021201224D84021201E2
:100EF30022748402120122FB84021201223A850227
:100F03001201224B8502120122C08502120122DF47
:100F13008502120122F785021201223B8702120188
:100F230022458902120122778B021201227D8C0253
:100F3300120122C08C021201229DC801120122B0AB
:100F4300C90112012298CA01120122A2CA01120187
:100F530022C4CA01120122D0CA011201221DCC01EE
:100F63001201224ACC011201226BCD01120122ADE2
:100F7300CD01120122E2CE01120122B2CF011201F0
:100F83002201D00112012262D00112012297D00165
:100F9300120122D0D0011201227BD401120122922C
:100FA300D40112012210D5011201221ED501120112
:100FB3002267D50112012275D501120122F6D5014E
:100FC30012012265D601120122B1D60112012212A9
:100FD300F30112012234F30112012210F50112016F
:100FE3002288F801120122D2F901120122B4FA0176
:100FF300120122F19C03120122169D031201228782
:101003009D031201228BBB0212012294BB02120127
:10101300229DBB02120122C1BC02120122B2BE02F6
:10102300120122E0BE021201220BBF021201223979
:10103300BF0212012264BF02120122A2BF021201E7
:1010430022CEBF021201220BC00212012236C002BD
:1010530012012282C002120122D9C00212012219F6
:10106300C10212012268C10212012293C1021201BC
:1010730022D9C10212012207C20212012232C20284
:101083001201225FC20212012282C202120122EE67
:10109300A6031201221AA70312012273A703120146
:1010A300227DA7031201228DA703120122B6910309
:1010B300120122DD9103120122089203120122522E
:1010C300A903120122A45F00120122FB6100120195
:1010D30022AB63001201220864001201220865009A
:1010E3001201228565001201220D660012012232CF
:1010F30066001201220D69001201228169001201AA
:1011030022706A00120122A66A00120122E96A0013
:101113001201226A6C00120122AC6C00120122F54A
:101123006C001201225E6D00120122806D0012011B
:10113300229A6D00120122B86E00120122C86E00BD
:101143001201224B70001201226B7000120122A1C6
:1011530070001201221D72001201225A7200120144
:101163002294730012012249E70212012299E70235
:10117300120122D3E80212012242E902120122E6FD
:10118300E90212012205EA0212012253EA021201C4
:101193002295EA0212012288AA031201229CA903C2
:1011A300120122DBA90312012275AA03120122975D
:1011B300A703120122A7A703120122BCA70312014E
:1011C3002224A80312012209A4031201228CA403DE
:1011D300120122F2A403120122FCA2031201222310
:1011E300A30312012279A303120122CAA30312014A
:1011F3002263FC0212012277FC02120122F0FC029C
:10120300120122C4FD0212012296FF0212012201E1
:10121300A60312012224A6031201224DA6031201E2
:101223002263A603120122A5A60312012253CF02B1
:101233001201225DCF021201229DCF02120122E68A
:10124300CF021201221ED00212012274D002120117
:101253002291D0021201229AD002120122DFD0027F
:1012630012012208D1021201221DD1021201228D84
:10127300D1021201221AD2021201226ED2021201EB
:101283002291D20212012210D3021201224BD30265
:1012930012012280D30212012292D302120122B13F
:1012A300D302120122BAD3021201226CD402120118
:1012B3002246A00312012297A00312012220A103B8
:1012C3001201228AA1031201228B9403120122B379
:1012D3009403120122A89503120122CD9503120152
:1012E300225C96031201220BA503120122469703E7
:1012F3001201227C9703120122AF970312012208E5
:10130300990312012227A8031201223DA803120107
:101313002247A8031201229BA80312012216B3023B
:10132300120122D0B3021201220BB4021201223C99
:10133300B402120122ACB40212012202B50212015C
:101343002256B50212012243B6021201223CB70211
:10135300120122BDB80212012271B902120122DA6E
:10136300B902120122EDB902120122D2BA0212010C
:10137300222BBB021201225FF80212012275F8022E
:1013830012012219F90212012258F90212012275DF
:10139300F902120122A6F902120122F3F902120143
:1013A3002226FA0212012261FA0212012256FC02DB
:1013B30012012276E501120122FEE8011201228DBB
:1013C300EA01120122E4EA0112012203EB011201F4
:1013D3002281EB0112012207ED01120122DAED0154
:1013E30012012294F1011201227CF2011201222541
:1013F300F40212012269F60212012296F702120187
:101403002236F802120122CA87031201222D880311
:101413001201224A88031201221089031201226356
:101423008903120122468A03120122A29E0312019A
:1014330022059F03120122679F03120122E69F03E5
:10144300120122E5A9031201222BAA03120122573A
:10145300AA03E066701008A3E066700A08A3E066BA
:10146300700408A3E06622C3E7960809E796080913
:10147300E7960809E79622C3E09608A3E09608A337
:10148300E09608A3E09622C008C3E096F50808A3F7
:10149300E096420808A3E096420808A3E0964508B0
:1014A3007001D3D00822080808EAC0E0EBC0E08648
:1014B300F0E7A4FA180986F0E7A42AFA180986F0D7
:1014C300E7A42AFA180986F0E7A42AFA1986F0E7AE
:1014D300A4FBE5F02AFA190886F0E7A42BFBE5F054
:1014E3003AFA190886F0E7A42BFBE5F03AFA181844
:1014F3000986F0E7A4C5F02BFBE43AFA1908E7C51F
:10150300F0C6A426F6E5F03BFBE43AFA1886F0E7CA
:10151300A4F6E5F00826F6E43B08F6E43A08F6D02C
:10152300E0FBD0E0FA22E4CFC0E0E4CEC0E0E4CDBB
:10153300C0E0E4CCC0E075F020E626F608E633F61A
:1015430008E633F608E633F6181818EC33FCED33E7
:10155300FDEE33FEEF33FFC3EC9709ED9709EE97EA
:1015630009EF97191919400FFFEC97FC09ED97FD47
:1015730009EE97FE191906D5F0BFECF709EDF70947
:10158300EEF709EFF7191919D0E0FCD0E0FDD0E030
:10159300FED0E0FF226016080808C6C313C618C6AB
:1015A30013C618C613C618C613C6D5E0EA227009B7
:1015B300080808226016181818C6C333C608C633AD
:1015C300C608C633C608C633C6D5E0EA22E627F600
:1015D3000809E637F60809E637F60809E637F6227A
:1015E300E026F608A3E036F608A3E036F608A3E003
:1015F30036F622E026F008A3E036F008A3E036F042
:1016030008A3E036F022C3E697F60809E697F60842
:1016130009E697F60809E697F622C3E0C696F608A8
:10162300A3E0C696F608A3E0C696F608A3E0C6961E
:10163300F622C3E096F008A3E096F008A3E096F044
:1016430008A3E096F022E056F608A3E056F608A3B6
:10165300E056F608A3E056F622E056F008A3E0565B
:10166300F008A3E056F008A3E056F022E0F608A342
:10167300E0F608A3E0F608A3E0F622E6F008A3E606
:10168300F008A3E6F008A3E6F022E0FAA3E0FBA348
:10169300E0FCA3E0FD22E0FCA3E0FDA3E0FEA3E069
:1016A300FF22ECF0A3EDF0A3EEF0A3EFF022E0F8BD
:1016B300A3E0F9A3E0FAA3E0FB22E8F0A3E9F0A397
:1016C300EAF0A3EBF022CAC0E0E6F0A308DAFAD00E
:1016D300E0FA22CAC0E0E0A3C582CCC582C583CDAF
:1016E300C583F0A3C582CCC582C583CDC583DAE6A5
:1016F300D0E0CA22C3E498F8E499F9121738802697
:10170300C3E49AFAE49BFBE920E7E9121738E4986B
:10171300F8E499F922C3E498F8E499F9121738E444
:1017230098F8E499F9C3E49AFAE49BFB22EB20E7E7
:10173300CFE920E7E0B90010BB0008E88AF084F89D
:10174300AAF022E4FBC8FA22EB70227B10C833C84C
:10175300C933C9335007C39AC3DBF280069A5001D9
:101763002ADBEAC833F4C8C933F4C9FA2275F0088E
:10177300E4C833C8C933C933C99AC99B5004C92AB9
:10178300C93BD5F0ECFBC833F4C8E4C9FA22600DB9
:1017930008C6A2E713C618C613C6D5E0F322600C29
:1017A30008C6C313C618C613C6D5E0F422700422B4
:1017B300600D18C6C333C608C633C6D5E0F4182275
:1017C300251810AF08F518400C15198008F51840B6
:1017D300021519D2AF2200C0D0251810AF08F51892
:1017E300500C05198008F51850020519D2AFD0D056
:1017F300222518F58210AF08F518400C151980083A
:10180300F51840021519D2AF851983222518F582E0
:10181300E43519F583222518F8E43519F92225183A
:10182300FAE43519FB222518FCE43519FD22E4738B
:101833002518C582C0E0E51934FFC583C0E0E5186B
:10184300C3958224F810AF08858319858218800810
:10185300858319858218D2AFCEF0A3E520F0A37853
:1018630008E608F0A3DEFAEFF0A3E58124FAF8E630
:1018730008F0A3E608F0A3E608F0A30808E608F0DA
:10188300A3E608F0A315811581D0E0FED0E0F8159A
:101893008115811581E8C0E0EEC0E0222518C582DC
:1018A300C0E0E51934FFC583C0E0E518C395822481
:1018B300F910AF08858319858218800885831985F7
:1018C3008218D2AFCEF0A3E520F0A37808E608F0A3
:1018D300A3DEFAEFF0A3E58124FBF8E608F0A3E624
:1018E30008F0A30808E608F0A3E608F0A31581159D
:1018F30081D0E0FED0E0F815811581E8C0E0EEC0AC
:10190300E022851983851882E0A3FEE0A3F5207801
:1019130008E0A3F608DFFAE0A3FFE0A3C0E0E0A33A
:10192300C0E0E0A3C0E0E0A3C0E0E0A3C0E010AFEC
:10193300088582188583198008858218858319D2C2
:10194300AFD083D08202011F851983851882E0A35B
:10195300FEE0A3F5207808E0A3F608DFFAE0A3FF92
:10196300E0A3C0E0E0A3C0E0E0A3C0E0E0A3C0E0E8
:1019730010AF0885821885831980088582188583AE
:1019830019D2AFD083D08222C0D02518C582C0E03F
:10199300E51934FFC583C0E0E518C3958224F3102D
:1019A300AF08858319858218800885831985821875
:1019B300D2AFC8F0A3E9F0A3EAF0A3EBF0A3790850
:1019C300E709F0A3D8FAECF0A3EDF0A3EEF0A3EF50
:1019D300F0A3D0E0F0A3D0E0F0A3D0E0F0A3E520A3
:1019E300F0A3E5F0F0A322851983851882E0C0E017
:1019F300A3E0F9A3E0FAA3E0FBA37808E0F608A3C9
:101A0300DFFAE0FCA3E0FDA3E0FEA3E0FFA3E0C058
:101A1300E0A3E0C0E0A3E0F5D0A3E0F520A3E0A3BA
:101A2300F5F010AF0885831985821880088583191E
:101A3300858218D2AFD082D083D0E0F8D0E0327460
:101A4300048006740280027401C0E0F4041217F4E7
:101A5300D0E01216C9227404800474028000CCC042
:101A6300E0EDC0E0E518C39CCCAD1950011D10AFEB
:101A7300068C188D1980068C188D19D2AF1216D6C4
:101A8300D0E0FDD0E0FC22D083D082E9C0E0E49333
:101A9300A3C386F0C5F095F0F908E493A386F0C5D7
:101AA300F095F0700BE493A3C3994005E904800219
:101AB300A3E475F002A42582F582E5F03583F5836E
:101AC300D0E0F9E493A3C0E0E493C0E022D083D054
:101AD30082ECC0E0EDC0E0E493A3FCE493A3FDED4E
:101AE3004C600D121B1CEC24FFFCED34FFFD80EF5A
:101AF300E493A3FCE493A3FDED4C600D121B5BEC9C
:101B030024FFFCED34FFFD80EFD0E0FDD0E0FCE4EA
:101B130093A3C0E0E493C0E022C0E0C3E49396083B
:101B23007401939618400FE4936670080874019348
:101B3300661870007019A3A3C3E493960874019305
:101B43009618A3A3400DD0E0D0E0D0E0021B0CA375
:101B5300A3A3A3A3A3D0E022C0E0C0F088F0E49342
:101B63006670080874019366187000A8F0A3A37048
:101B73000BD0F0D0E0D0E0D0E0021B0CA3A3D0F058
:031B8300D0E0228D
:101B880074F612189FEAFEEBFF8C088D09EA2434DC
:101B9800F8E43FF9E8FCE9FDEA2435121F2FFAEED4
:101BA8002437121F2FF88508F0A4C885F00A850984
:101BB800F0A4250AF9EA28F8E439F97A257B001215
:101BC8001738EA8C828D83F0FA131313541F121FEF
:101BD80023245DF582E439F583E0C0E074075AF800
:101BE800D0E0B800028004C313D8FCA2E0EE50088D
:101BF8002434F582E43F80142436121F2FF5F0EACE
:101C080084A8F0121F242438F582E439F583E0F91A
:101C18007F0302194B74F712189FEAFEEBFFEA24C0
:101C280034121F2FC0E0EA2435F582E43FF583D053
:101C3800E0F08A828B83A3A3A3A3A3A3A3C082C03B
:101C4800838A828B83A3A3A3A3A3E0F8A3E0F9D09C
:101C580083D082E0C398F508A3E099F509EA2480C7
:101C6800121F2F6401703EEA2481F582E43FF58358
:101C7800C082C0838A828B83A3A3A3A3A3E0240189
:101C880008A3E03400F9D083D082E0687003A3E0B1
:101C98006970127CB67D04120C75EE2480F582E41E
:101CA8003FF583E4F0AC08AD09EEFAEFFB121B88B0
:101CB800E9F91226AA7F0202194BC082C08385184F
:101CC80082851983E0F8A3E0F9C3EA9CEB9D5010E4
:101CD800C3EC98ED99401BC3EA98EB995014800E19
:101CE800C3EA98EB994007C3EC98ED994004790151
:101CF80080027900D083D08222EAC39CFAEB9DFB54
:101D08002274EF12189F900376E064086005E0647F
:101D180007702A9061C8E060249003A4E0F4601D75
:101D2800E0F875F010A4C8AAF02AF974A628FE7481
:101D38000339FF8E82F583A3A3A3E07003021E225A
:101D4800906060E0C0E0EE2468F582E43FF583D05F
:101D5800E0F0750C27750D05750800750900E5D9C3
:101D680014F50AE5D95403F50E602F7403650E6067
:101D78001DE50A6008EE2467121F2F601D900522DA
:101D8800E06401602C121F2C601278048010121F6E
:101D98002C602CE50AC39405502580637800E50A79
:101DA800C398FA95E0FB120B258A088B09EA4B7059
:101DB80005120EA38064121F2C70048A0C8B0DE58B
:101DC8000A6012850C82850D83F50BE5D9F0A31501
:101DD8000BE50B70F6121F2C604574FC250AF50AFA
:101DE800780C121A46AC0AA90EEEFAEFFB120D2F68
:101DF80074021217D9E97027AA08AB091212B77929
:101E08003D8E828F83A3A3A3A3E0FA7B0012098DE2
:101E1800EEFAEFFB120C99120D417900021F1E74A5
:101E280003650E6053E50AF5107511007810121A53
:101E380046AC0CAD0DAA08AB09120CF374021217CC
:101E4800D9EE2468121F2F64807004747F8001E02B
:101E5800F50C780C121A4AE50EF50C780C121A4A91
:101E6800A90AAC08AD099003A4E0FA7B0012096343
:101E780074021217D9021F19850C82850D83E0C3DD
:101E8800940E5011E0F8740728F582E43481F58344
:101E9800E0650A6069850C82850D83E0C0E0EE2468
:101EA800F7F582E43FF583D0E0F0A2AFE433FCC25B
:101EB800AF7A0080010AEE246E121F2FF8EAC39849
:101EC8005013EA121F23246AF582E439F583E0648B
:101ED8000770E28022EE246EF8E43FF9E0FAEE2A79
:101EE800FAE43FFBEA246AF582E43BF5837407F0E1
:101EF80088828983E004F0ECA2E092AF801390031B
:101F080076E06408600BAC0CAD0DEEFAEFFB120D39
:101F1800B9120EAF79017F0A02194BF8EE28F8E4DE
:101F28003FF9E822EE2484F582E43FF583E0227449
:101F3800F112189F74FC1217C3EAFEEBFF890975AA
:101F48000D00A2AFE433F508C2AF9004BEE0FA90EA
:101F580061D0E0F8748098F895E0F9C3EA98E499BC
:101F6800A2D265D0334003022021750D0102202141
:101F7800E0601B780A121A46AC0EA90FEEFAEFFBC6
:101F8800120D2974021217D97404250EF50E740166
:101F9800250EF5D9850FD9E50E6012850A82850BC5
:101FA80083F50CE0F5D9A3150CE50C70F675E195F1
:101FB800EE2463F8E43FF97A007B00A2AFE433F53E
:101FC8000AC2AF88828983E0FCA3E0FDEC4D603A49
:101FD80088828983E0FAA3E0FB8C82F583E0FCA386
:101FE800E0FD88828983ECF0A3EDF08A828B83E49C
:101FF800F0A3F088828983E0FCA3E0FDEC4D700A31
:1020080088828983A3A3E4F0A3F0E50AA2E092AF53
:102018001212B79004BDE004F0EE2463121F2FF8EB
:10202800A3E0F9E8496063EE2463121F2F2402F845
:10203800A3E034008882F583E5822402F50AE435BA
:1020480083F50BE0F50EA3E0F50FEE2462121F2FC7
:10205800640170369061D0E0F8121F2C60047C0493
:1020680080027C007480C398FA95E0FBE50E2CF89A
:10207800E43400F9E82402F8500109C3EA98EB991E
:10208800A2D265D0334003021F789061D0E0F87483
:1020980080C3989004BEF0E50D60539004BDE060E5
:1020A8004D9004BFE0F89004BDE0C398500C740252
:1020B8006509703A9004C0E060348E828F83A3A3D0
:1020C800A3A3E085188285198312210674021218C9
:1020D8000FE81221069004BCE028F07402121829B7
:1020E800AA18AB1979011209B79004BDE4F0E50804
:1020F800A2E092AF74041217D97F0802194BF0A31B
:10210800E4F09004BDE0F8228521878522C622C02C
:10211800E074EB12198BA2AFE433F508C2AF759BDC
:1021280000906182E0A2E0502DE591A2E050277571
:1021380091FE74016521701E12228E1222A5121AB8
:102148005912245974041217D9E9640170057901E8
:10215800120E37121D09906182E0A2E5505AE591EE
:10216800A2E550547591DF900376E064076005E0BE
:102178006408702C12228E74016521703B1222A50E
:10218800121A5912245974041217D9E964017005F6
:102198007901120E377901EEFAEFFB121F3780181A
:1021A800E0640D7013900398E004F064287002E472
:1021B800F07A00E0F9120EB5906182E0A2E64003E1
:1021C800022263E591A2E640030222637591BF9063
:1021D8000376E064057008120DE3120DEF80031218
:1021E8000DE9752100120E43E9900377F07900128A
:1021F8000E37120BE57A017B00900375E0F9121295
:1022080087907803E064427052900526E014F070DD
:102218004AC2AF12221E00782AD0E0F618D0E0F6A3
:10222800E59F540770047BFF80027B7FC4C0E07881
:1022380029E6F50A08E65BF50B740B780A1217A174
:10224800D0E0250AF8906270E0A2E740F8E8C333CE
:10225800906272F0906270E0D2E0F0906181E0A24A
:10226800E35009E5E9A2E3500375E9F7A3E0A2E723
:102278005009E591A2E7500375917FE508A2E09225
:10228800AF7F080219EA9003A4E0F875F010A4C81B
:10229800AAF02AF974A628FE740339FF22120DFB4E
:1022A8008E828F83E0F8A3E0C82416F582E438F51F
:1022B8008322C0E0C0D0C082C083906183E0A2E0E6
:1022C8005009E5BFA2E0500375BFFEE0A2E1500946
:1022D800E5BFA2E1500375BFFDE0A2E25009E5BFEA
:1022E800A2E2500375BFFBE0A2E35009E5BFA2E3F9
:1022F800500375BFF7E0A2E45009E5BFA2E450031C
:1023080075BFEFE0A2E55009E5BFA2E5500375BF30
:10231800DFE0A2E65009E5BFA2E6500375BFBFD0D3
:1023280083D082D0D0D0E032C0E074F212198BE5AD
:10233800A7A2E6500FE5A1A2E6500953A7BF75A1D1
:10234800BF122384E5A7A2E5500CE5A1A2E550063B
:1023580053A7DF75A1DFE5A7A2E15009E5A1A2E136
:10236800500375A1FDE5A7A2E2500CE5A1A2E25039
:102378000653A7FB75A1FB7F010219EA74F712182F
:102388009F752101900376E064067015120D658A29
:10239800828B83A3A3A3A3A3A3E0FAA3E0FB120D5C
:1023A800D1A2AFE433FED2AF90037CE06401701891
:1023B8007A207B00900375E0F912139B7A207B004A
:1023C800900375E0F912128D906182E0D2E6F090E8
:1023D8000523E0602185C622801690037BE0640116
:1023E8007008E5C654F84405F5C653BEFC12211022
:1023F8007401652160E4EEA2E092AF7F0202194BFE
:102408008E238F24858228858327851882851983C2
:10241800E0CEA3E0CF852882852783EBC9EAC8ED03
:10242800CBECCA75F010C3E833C8E933C9EA33CA3C
:10243800EB33CBC3EA9EF526EB9FF525B35004ABEF
:1024480025AA26EC33CCED33CDD5F0DAAE23AF2474
:102458002274F112189F8A088B098C0A8D0B9081BF
:10246800CF7808121649740F12180F780C12166FCD
:102478009081CF780C1216497808790C12146A905A
:10248800818350107808790C121609780812148A7A
:102498004014800E780C7908121609780C12148AE8
:1024A80050047901800279007F0802194B74ED12FB
:1024B800189F8A088B098C0A8D0B9081CF78081297
:1024C8001649741312180F780C12166F9081CF7872
:1024D8000C121649780C790812146A401178087998
:1024E8000C121609AA08AB09AC0AAD0B80227510AC
:1024F800007511007512007513017810790C121609
:1025080009781079081215D0AA10AB11AC12AD13C6
:102518007F0C02194B9081CF780812166F8A828B34
:1025280083780812165C7F0402194B74F512189F01
:102538008C828D83780812166F8A828B83780812B2
:10254800163512258BC3E09CF0A3E09D12257D4033
:10255800229081A3780812166F8A828B83780812DA
:1025680015F68A828B83A3A3A3A3E02420F0A3E01B
:10257800344EF080A0F088828983C3E09420A3E0E1
:10258800944E22EA2404F8E43BF98C828D83A3A3B9
:10259800A3A3E0FCA3E0FD888289832274F51218C6
:1025A8009F9004D9E0FAA3E0FBE929F8E433F97431
:1025B800D928F582748039F583E02AF508A3E03B31
:1025C800F5097808121A469081BB12168D12240854
:1025D80074021217D98A088B098C0A8D0B7410782B
:1025E80008121598AA08AB097F0402194B74F11256
:1025F800189F8A0C8B0D8C0E8D0F741112180F12E8
:102608001A5D741112180FE02401F508A3E03400D4
:10261800F509E4F50AF50B780C79081214A99081EC
:102628008F780812166F780C79081214A9AA0CABC7
:102638000DAC0EAD0F12240874021217D9EA4B60C4
:10264800047A0180027A00EC2AFCE43DFD7413123E
:10265800180FE0F8A3E0F9E8FEE9FFECF8EDF97AE5
:10266800717B0212173888088909E4F50AF50B8E80
:10267800828F83780812167EECF8EDF97A717B0266
:102688001217388A088B09740578081217B08E82D9
:102698008F83A3A3A3A3E508F0A3E509F07F0802AD
:1026A800194BC082C083E9906000F0D083D08222A9
:1026B800C0E074F212198BA2AFE433FED2AFE58901
:1026C800A2E04006E589A2E150031211EB758900EA
:1026D800758900C2C5EEA2E092AF7F010219EAC077
:1026E800E0C0D0E8C0E0A8A8D2AFC2C7E8A2E7928D
:0F26F800AFD0E0F8D0D0D0E032C2AF0200002265
:10270800FFFFFFFFFFFFFFFFC082C083E9901606AF
:10271800F0D083D08202011F74F6121833E99002B8
:10272800E8F0900348E0F50875090074027808128B
:1027380017B0AA08AB091212F99002E9122BF4603B
:102748006E900348E075F003A4FAABF01212F9900A
:102758000306122BF4700B9002E91234381212FFA0
:10276800804D9003061243A17AFF7BFF1211677A0E
:1027780000801EEAF508750900740278081217B07F
:10278800123E3D74FFF0A31243B5A3A3E4F0A3F0F7
:102798000A900348E0F8EAC39840D8790512084F30
:1027A8009002E8E0F912073B7AD97B08120AC502C1
:1027B8003ED974F41218338A088B09EB54806047A9
:1027C8009002E8E0F912126F8A0A8B0BAE0AAF0B7F
:1027D800EA4F602A8A828B83E064B0701A1208611B
:1027E800E960148E828F83A3A3A3A3E0F9EE2405E6
:1027F800FAE43FFB120831EEFAEFFB12125DAA0869
:10280800E5096480FB80047A007B00022A2274F2C6
:1028180012183374FB1217C3EAFEEBFFEA4F60434A
:10282800740312180F1230A1851882851983ECF0F1
:10283800A3EDF0740212180FE9F0AA18AB191207E9
:1028480035E9F5087077741312180FE0F50AA3E05C
:10285800F50BE50A450B60658E828F83122E35EEE7
:102868004F700575080280557A067B001212F98AA6
:102878000C8B0DA80CA90DEA497005750813803D4D
:102888008A828B83E4F01228CCA3EEF0A3EF1246E1
:102898007AE50AF0A3E50BF09002EC1229E6900223
:1028A800EC6017E0FCA3E08003EAFCEBFD8C828D72
:1028B800831229E670F38C828D83123A5DA908741D
:1028C80005024613A3F08A828B83A32274F212189E
:1028D800338908E9F50C750D007403780C1217B0EC
:1028E800850C0A850D0B9002EBF09002E9124386E5
:1028F8001229E4602F1212FF7900801EE9F50C7589
:102908000D007402780C1217B09002E9123CF68898
:1029180082F583A3A3E4F0A3F009900348E0F8E963
:10292800C39840D8900348E0FA850AF0A4CAA8F0F2
:10293800850BF0A428FB1212F98A0C8B0DAE0CAF94
:102948000DEA4F70030229DA900348E0FC850AF08B
:10295800A4CCA8F0850BF0A428FD790012124B7CBA
:10296800008032EDF50C750D007403780C1217B069
:102978008A828B831229DF8882F583E4F01229EC9E
:10298800A3A3F0A3F00DEDC3950840D7EE250AFEEA
:10299800EF350BFF0C900348E0F8ECC3985029EC96
:1029A800F50C750D007402780C1217B09002E9123C
:1029B80029DFE82402500109FAE9FB8A82F583EE4F
:1029C800F0A3EFF07D0080BEE5089002EBF07900FF
:1029D80080027913024616123CFAF922A3A3123098
:1029E800B9EA4B22A3F088828983A3A3A3A3227404
:1029F800F41218337900EAA2E0501F75085E7509D1
:102A0800817808121A4679107C047D007A087B16B2
:102A180012084974021217D9E9F97F04021905C08E
:102A280082C0839002EC123DFC601C88828983A3DB
:102A3800A3E06A7003A3E06B8882898370E8A3A38C
:102A4800A3A312343880047A007B0002271974F299
:102A580012183374FD1217C3EAFEEBFF851882853E
:102A68001983E4F0A3F0740212180F7401F09002B5
:102A7800EF123DFC70111209FF1212F99002EF12C9
:102A88002BF47003022BE812318EEE2404F50AE4CD
:102A98003FF50B850A82F583E024FE603C24FC6048
:102AA8007424FE607E24FE7003022B3824FE70031B
:102AB800022B4524FE7003022B5224FE7003022BC6
:102AC8005F24FE7003022B6C24FC7003022B8D2400
:102AD800FE7003022BA5022BE11209FF9002F1EA16
:102AE800F0A3EB122BFD120483E96003022BE190A3
:102AF80002F1121A5D8E828F83A3A3A3A3A31243AC
:102B0800A1850882850983123438120819740212C3
:102B180017D9022BE1AC18AD19EEFAEFFB120867D2
:102B2800022BB0AC18AD19EEFAEFFB12086D8078E5
:102B3800AC18AD19EEFAEFFB120873806BAC18AD48
:102B480019EEFAEFFB120879805EAC18AD19EEFAAF
:102B5800EFFB12087F8051AC18AD19EEFAEFFB12AB
:102B6800088580447402121819880C890D780C1293
:102B78001A467402121829EEFAEFFB12088B740237
:102B88001217D98023AC18AD19EEFAEFFB12089191
:102B9800E9F87016740212180FE4F0803CAC18AD16
:102BA80019EEFAEFFB120897E9F8E8602C8E828F8D
:102BB80083A3E064146022850A82850B83E0900277
:102BC800F1F08518828519831234389002F2123098
:102BD800A1E8A3122BFD12047DEEFAEFFB1207EF1A
:102BE800740212180FE0F97403024613EAF0A3EB1B
:102BF800F0F9EA4922F07CF17D0285088285098393
:102C08001230B92274E812183374FA1217C3740414
:102C180012180FECF0A3EDF08A128B13EA2405F5D5
:102C28000EE43513F50FEA2402F510E43513F51117
:102C38008510821236DF7508007C037D0079007AE2
:102C4800F17B0212124BE50E2402F516E4350FF55E
:102C5800177402121819880C890D780C121A4685F7
:102C68000E82850F83A3A3A3A3E0F50C750D00784E
:102C78000C121A46E50E2405F50CE4350FF50D780F
:102C88000C121A468516828517831237271217D910
:102C98008A0C8B0DE50C450D7003022E04802085EF
:102CA8001882851983E088828983F005088518824F
:102CB800851983A3E0C0E0122E3FD0E0F00508E5B7
:102CC8000A24FBF8E50B34FFF9C3E50898E49940BA
:102CD80003022E047E007F00851282851383A3A33E
:102CE800A3A3E0F5097809121A4AE4F514F5157852
:102CF80014121A467514EE7515027814121A4690B5
:102D080002EF121A5D740912180F121A5DE50A24EF
:102D1800F9F9AC0CAD0D1237391217D9E960030275
:102D28002DAB850E82850F83A3A3A3A3A3A3A3E042
:102D3800F89002EEE068706BE0F5148E15781412C6
:102D48001A4612439E850E82850F83A3A3A3A3A3CD
:102D5800A3A3A312343812124574021217D9E960DA
:102D680042123DF97034E4F5147814121A467CFFC7
:102D78007DFF79071237481217D98B15A915122E1E
:102D8800547017850E82850F8312452D740412180E
:102D98000F123DE612375A022E32850C82850D83BA
:102DA800122E35A818A919881489157814121A46EC
:102DB800740412180F121A5D85168285178312374C
:102DC800091217D98A0C8B0DEE4F7003022C9C1236
:102DD8002E3FEE122E4A1236F0EF122E4AF8A3E0DA
:102DE8003400F9E50C4B6003022CA78882898374B0
:102DF800FFF00508122E3F74FFF00508E50860147F
:102E08001313543F1230A712048FE96003123D0DCB
:102E180079008016850E82850F8312452D74041261
:102E2800180F123DE6123A5D790A0236C0A3A3A331
:102E3800A3E0FEA3E0FF22A8089002F2E0281236E1
:102E4800F022F00508089002F2E028229002F2EA47
:102E5800F0A3EBF0EA492274E812183374FA121757
:102E6800C3740212180F1230A1740412180FECF078
:102E7800A3EDF0740212180FE024051236CAF58388
:102E8800E0F50CA3E0F50D740212180FE02402F52A
:102E980010A3E03400F51185108212343C75080047
:102EA800750900EA24FCFEEB34FFFF8008050CE5F9
:102EB8000C7002050DA808C3EE98EF9400500302A9
:102EC8003052A818A919880E890F780E121A46854B
:102ED8001482851583A3A3A3A312437D121A46E582
:102EE800142405F50EE43515F50F780E121A4685EB
:102EF8001482851583A3A31243A1AA0CAB0D120754
:102F08005374061217D98A0E8B0FEA4B70030230DE
:102F180052EA2404F516E4350FF517851682F58371
:102F2800E0F50CA3E0F50D851882851983121A5D6A
:102F3800AC0EAD0F8510828511831236D61217D9C3
:102F4800E9F5096003023052740212180F123700B3
:102F5800F5097809121A4AE4F512F5137812121ACB
:102F6800467512EE7513027812121A469002EF1285
:102F78001A5D740712180F121A5DEEF9AC0EAD0F38
:102F88001237391217D9E9F5096003023052E508FA
:102F9800703BE4F50EF50F780E121A467CFF7DFFA4
:102FA80079091237481217D98B0FA90F9002F3121B
:102FB8002E57700D740412180F12309479110230C4
:102FC800839002EEE024029002F2F080149002F264
:102FD800E0FA9002EEE0790024025001096A497093
:102FE8006DA8089002EEE0FAE82AFAE43400FBEE55
:102FF8009AEF9B4055851682851783E0C0E09002C2
:10300800F3122E44D0E0F00508851682851783A3B5
:10301800E0C0E0089002F3122E44D0E0F0050890DA
:1030280002EE12437D121A4612439EA808123086F9
:103038001217D99002EEE02508F50874FF650C70A8
:103048000474FF650D6003022EB5E508601C90024C
:10305800F2E0F5F0E508841230A7120495E960065D
:103068009002F3123D1079008011E509700375098B
:103078000A740412180F123094A9090236C090027B
:10308800F3E028FAA3E0340012435B2212438AE5F6
:103098000CF0A3E50DF022A3A3EAF0A3EBF0229035
:1030A80002F1F07CF17D028510828511831230B91E
:1030B80022123A4DFB2274EC12183374FC1217C317
:1030C800123B6D7402121829850A82850B8312320D
:1030D8008D700302317E12318EA818A919881089C3
:1030E800117810121A467CFF7DFF790B85088285BE
:1030F800098312374E1217D9123198700B850A823C
:10310800850B83123757807B8E828F83A3A3A3A35B
:10311800E0F5127812121A4AE4F512F51378121231
:103128001A467512F17513027812121A467810129F
:103138001A46740912180F121A5D740912180F1220
:10314800328685088285098312373F1217D9E9FE2E
:1031580070157CF17D028508828509831234381246
:10316800049BE97009801A74166E70027E00123D85
:103178000DEE7004800B7E01850A82850B83123A5E
:103188005AEEF9023A6FEE2402F508E43FF50922F7
:103198008A108B119002F2EAF0A3EBF0EA4B22744A
:1031A800EC12183374FC1217C3EAFEEBFF8C0E8D79
:1031B8000FEA2405F508E43FF50974021218298579
:1031C800088285098312328D7003023276EE24025A
:1031D800F50AE43FF50BA818A91988108911781089
:1031E800121A467CFF7DFF790D850A82850B8312B2
:1031F800374E1217D9123198700B850882850983CA
:1032080012375780768E828F83A3A3A3A3E0F5128B
:103218007812121A4A850882850983A3A3121A5DB7
:103228007512F17513027812121A467810121A469E
:10323800740912180F121A5D740912180F123286C7
:10324800850A82850B8312373F1217D9E9FE700F62
:103258007CF17D021234321204A1E97009801A74DB
:10326800166E70027E00123D0DEE7004800B7E011A
:10327800850882850983123A5AEEF9023A6FE0F915
:10328800AC0CAD0D22123A458A0C8B0DEA4B227418
:10329800E812183374FE1217C38A168B178C148D14
:1032A80015EA2405F50CE43517F50DEA2402F50EA8
:1032B800E43517F50F850E8212343C8A088B0975A0
:1032C8000B007C037D0079007AF17B0212124B75AA
:1032D8000A00E50814F5100424FFF508E50934FF91
:1032E800F509804C9002F1E0FA9002EEE0F8EA2845
:1032F800F8E43400F9E50898E50999500D9002F1D1
:10330800E0F8E510C3989002EEF0E0F512751300AE
:103318007812121A4612439E9002F2E02A12308B5B
:103328001217D99002EEE0F89002F1E028F0050AB1
:10333800850C82850D83A3A3123D06400302341732
:103348009002F1E0C39508E495094003023417AEF2
:103358000AEE2EFEE433FF123459AC18AD191243AD
:10336800ABE439FB1207598A128B13AC12AD13EA7E
:103378004D701B750B0112344A123A5E9002F2121C
:1033880029E660031212B7A90B74020236C2851629
:1033980082851783A3A3A3A3E0F50B780B121A4A1F
:1033A800E4F512F5137812121A467512EE75130227
:1033B8007812121A469002EF121A5D740712180F4B
:1033C800121A5DA910850E82850F8312373F1217D6
:1033D800D9E9F50B70A0123DF960030232ECE4F56F
:1033E80012F5137812121A467CFF7DFF790F850EAD
:1033F80082850F8312374E1217D98B13A913122EF9
:103408005460030232EC12344A12375B0233917C67
:10341800F17D02850E82850F831234381204A7E9E4
:1034280060030233847900023391850A82850B8315
:103438001230B92212344022F583123A4DFB12059C
:103448007322123459123A4DF9EA8514828515838C
:1034580022850C82850D83E02EF8A3E03F8882F553
:10346800832274E812183374FA1217C374041218FA
:103478000F1230A18C168D17740412180FE0240552
:10348800F50EA3E03400F50F740412180FE02402BF
:103498001236CA1236DF7F007E00A818A9198808DC
:1034A80089097808121A46850E82850F83A3A3A37B
:1034B800A3E0F5088F097808121A46E50E2405F5E9
:1034C80008E4350FF5097808121A46850E82850F2B
:1034D80083A3A31237271217D98A0C8B0D802412C5
:1034E80036FAF00F1236FAF00F9002EE123A301256
:1034F8001A4612439EEFF81230861217D99002EE40
:10350800E02FFFE50C450D607A8518828519831236
:103518001A5DAC0CAD0D8514828515831236D61252
:1035280017D9E9FEE50C2404F510E4350DF511E989
:10353800704B740412180F123700F5087808121A25
:103548004AE4F508F5097808121A467508EE75096F
:10355800027808121A469002EF121A5D74071218C0
:103568000F121A5DE50A24FAF9AC0CAD0D85148228
:1035780085158312373F1217D9E9FE6036123716C0
:10358800123A5DEF70030236AD9002F2E0F5F0EF0B
:10359800849002F1F07CF17D0285148285158312F6
:1035A80034381204ADE960069002F3123D10790038
:1035B8000236C0EFF508703DE4F512F513781212E3
:1035C8001A467CFF7DFF7911851482851583123791
:1035D8004E1217D98B13A9139002F3122E577009A4
:1035E80012371612375A0236C09002EEE0240490C1
:1035F80002F2F080359002EEE0F89002F2E0FCE88A
:103608002404FAE43400FBEA6C4B6003023591E5CC
:103618000A24FAFAE50B34FFFBE50828F8E434003D
:10362800F9EA98EB99500302359185108285118348
:10363800E0C0E09002F3E02FF8A3E034008882F5C0
:1036480083D0E0F00F851082851183A3E0C0E012DB
:1036580036E7D0E0F00F7402121819880889097843
:1036680008121A46740212180F121A5D850E828506
:103678000F83A3A31237091217D98A0C8B0DEA4BB3
:1036880070030234E7740212180FE0C0E01236E744
:10369800D0E0F00F740212180FA3E0C0E01236E772
:1036A800D0E00234EFEE70027E0A850E82850F8329
:1036B80012371C123A5DEEF974061217D97F100200
:1036C8001905F514A3E03400F5158514822212308B
:1036D800B91207417402221234408A0A8B0B221253
:1036E80036EB229002F3E02FFAA3E034008A82F549
:1036F80083221236EB74FF2212438AA3A3A3A3E00A
:10370800221243A5AA0CAB0D12075F740422851080
:1037180082851183124533F9851682851783221213
:1037280043A5850E82850F831230B912075374069C
:10373800228510828511831230B91208C1740922BA
:103748008510828511831230B912082B7402221257
:103758003A63E8F0A3E9F079112274EA1218337495
:10376800FE1217C38A088B098C128D13EA2405FEF2
:10377800E43509FF123A398A0C8B0DEE2406F50E52
:10378800E43FF50FEA4B7003023848E5082402F5D8
:103798000AE43509F50B8A828B83A3A3A3E0A2E58B
:1037A80050221238728A108B11EA4B60247912ACBD
:1037B8000CAD0D123432851082851183121831E94F
:1037C800F50C707F850E82850F83E0600979528041
:1037D80011750C0E806D850882850983A3A3A3A3A8
:1037E800E0F9E4F508F5097808121A468E828F8305
:1037F800A3A3E0F5087808121A468E828F83A3A344
:10380800A3121A5D8E828F831243A1850A82850BCB
:1038180083123B7F1217D9E9F50C7011850E82854A
:103828000F83E0702C1234321204B38024741669AA
:103838007011750C00741812180F124386E480106A
:10384800750C01124529851282851383E8F0A3E9D6
:10385800F0850E82850F83E0600479008002A90C50
:1038680074021217D97F0E021905851882851983EB
:103878001230B91208B52274EC12183374F7121703
:10388800C38A0A8B0B8C108D11EA2405FEE4350BD4
:10389800FF750C00123A398A088B09EA4B7003024B
:1038A8003A1BE50A2402F50A5002050B8A828B832B
:1038B800A3A3A3E0A2E550251238728A0C8B0DEA67
:1038C8004B604F7912AC08AD09123432850C8285F1
:1038D8000D83121831E9F50C6003023A1E850A823D
:1038E800850B83E0F508A3E0F509AA08FB1208A9EF
:1038F800EA4B70197AFF7BFF1208A9EA4B700302A2
:103908003A118A828B83E508F0A3E509F07508006F
:103918008008750C0E023A1E05089002EBE0F8E5E7
:1039280008C3984003023A11E508F50E750F0074B4
:1039380003780E1217B08A828B83A3A3E0250EF8B2
:10394800A3E0350F123DEE70CF8E828F83123A526C
:103958001230A18E828F83A3A3123A5212309FEEA7
:103968002404F508E43FF509850882F583E0888298
:103978008983A3A3A3A3F0A3E4F0EE2405F50EE442
:103988003FF50F850E82F583123A52A3A3A3A31223
:10399800309F7512077513007812121A46EEFCEF65
:1039A800FD740412182112435C1217D9E4F5127839
:1039B80012121A46850882850983E0FC7D00791772
:1039C800850A82850B8312374E1217D9740712188D
:1039D8000F12319F6038850882850983123A3012A8
:1039E8001A46850E82850F831243A112435C121773
:1039F800D974021218291234321204B9E9602374F6
:103A08000712180F123D108019750C098008750CE3
:103A1800118003750C0112452985108285118312C6
:103A28003A5DA90C74098041E0F508750900780829
:103A380022AC18AD198E82F583123A4522123A4DFE
:103A4800FB12075922E0FAA3E0221230B9888289D2
:103A58008322123A63E8F0A3E9F022E0F8A3E0F940
:103A6800850E82850F832274041217D97F0C0219E0
:103A78000574EC121833123B6D751000EA2402F538
:103A88000CE43FF50D850C82F5831234381208A931
:103A98008A088B09EA4B7003023B51850A82850B21
:103AA80083E064016003023B46AC08AD09AA0AAB97
:103AB8000B12089DE9606F850882850983122E37ED
:103AC800EE2406F50AE43FF50B8E828F83A3A3123A
:103AD8001A5D8E828F83A3A3A3A3121A5D850A821F
:103AE800850B83121A5D79188E828F831243A18504
:103AF8000C82850D83123B7F1217D9E9F87416687A
:103B0800700B850A82850B83E4F0A38014E96012A8
:103B18008E828F83123438850E82850F83EAF0A354
:103B2800EBF089108018780E121A46AC08AD09EE31
:103B3800FAEFFB1208A374021217D9E9F510AA08C4
:103B4800AB091208AFE510700E850C82850D831243
:103B580034381204BF80097416651070037510009C
:103B6800A910023A74EAFEEBFF8C0E8D0FEA2405C9
:103B7800F50AE43FF50B221230B91208C774062281
:103B880074EA1218337508007509007E007F007505
:103B98000A00EC2402F510E43DF5118035EC6508C7
:103BA8007003ED65096003023C3D88828983A3A305
:103BB800E06A7003A3E06B707C88828983A3A3A367
:103BC800A312452DEE28FEEF39FFEA28FAEB39FB60
:103BD800050A123D03503BE50AF50C750D00740308
:103BE800780C1217B0851082851183123CF6123DAD
:103BF800EE601FE508450970A48C088D0988828944
:103C080083122E3588828983A3A3E02EFAA3E03F8E
:103C180080BDE50AC394025003023CF175080075A3
:103C28000900EE4F600FEEFAEFFB1212B18A0E8B0D
:103C38000FEA4B70057900023CF3750B00807FE5B5
:103C48000BF50C750D007403780C1217B0851082F3
:103C5800851183E0250CF50CA3E0350DF50DE50C79
:103C68002406F514E4350DF515851482123DF1602E
:103C78003AE50C2404F512E4350DF513851282F5A6
:103C880083121A5DE50E2508FAE50F12435512173F
:103C9800D9851282851383E02508F508A3E0350944
:103CA800F509851482851583123D10E50B600D7C9E
:103CB800087D007900AA0CAB0D12124B050BE50B21
:103CC800C3950A5003023C4785108285118312452B
:103CD8002D8882F583A3A3A3A3A3A3E50EF0A3E5F0
:103CE8000F1229EDEEF0A3EFF0790102386D123CC6
:103CF800FA22E0250CF8A3E0350D229002EBE0F85B
:103D0800E50AC398229002F21230B91212B722744F
:103D1800F01218338A0E8B0F8C0A8D0B750D0075F7
:103D28000C00804A7916EE2406F508E43FF5098E62
:103D3800828F83A3A3121A5D8E828F83A3A3A3A36A
:103D4800121A5D850882850983121A5D850E82859F
:103D58000F83A3A3123B7F1217D9E9F50D741669D7
:103D68007064850882850983E4F0A3F0050C90024D
:103D7800EBE0F8E50CC398505EAA0C7B008A088B30
:103D880009740378081217B0850A82850B83A3A3E8
:103D9800123E48E8FEE9FF123DEF603BEA24010AC3
:103DA80050010B9002EBE06A7001EB601488828985
:103DB80083A3A3A3A3A3A3A3A3123DFC6003023D73
:103DC8002C7918023D2EE960A312452974101218A7
:103DD8000F123DE6123A5DA90D7F08021905123A45
:103DE8004DF5838A8222F98882F5831243A5EC4D2A
:103DF800229002F2124533F9E8492274F612183378
:103E08007C0080010C900348E0F8ECC398501FEC4C
:103E1800F508750900740278081217B0123E3DE0E3
:103E28006A7003A3E06B70DCE8FAE9FB80047A00AF
:103E38007B00023ED99002E9123E488882F583222F
:103E4800E02508F8A3E03509F92274F21218338A3C
:103E5800088B09750A0080278E828F83A3A3A3A3EA
:103E68001229E460031212B77C087D007900EEFA8B
:103E7800EFFB12124B8E828F83E4F0A3F0050A1237
:103E88003D035028E50AF50C750D007403780C12F3
:103E980017B0850882850983A3A3E0250CFEA3E05B
:103EA800350DFF8E82F583123DFC70AC8508828546
:103EB800098374FFF0A3F002461674F61218331241
:103EC80044CA70067A007B008007A3A3A3A3123418
:103ED800387F0202190574F6121833E9FE8C828DB8
:103EE80083E06402703D1244BAF508A3E0F9A8081B
:103EF80074026870037429697029750802750900CD
:103F08007808121A46740E12180F121A5D740E12DF
:103F1800180F121A5DEEF912117974061217D9E901
:103F2800F98002790180AA74E812183374FB121719
:103F3800C3E9851882851983F08A168B17ECFEED84
:103F4800FF7510008C82F583A3A3A3E0A2E4502A96
:103F5800741D12180F1238788A828B83E582458384
:103F6800700302434B790AEEFCEFFDAA16AB171259
:103F78001831E9F510600302434E741F12180FE060
:103F8800F508A3E0F509742112180FE0F50AA3E07B
:103F9800F50B742312180FE0F50EA3E0F50F8E82CF
:103FA8008F83E0640260030242F7A312452D85085F
:103FB80082850983A3858212858313EE2406F50C76
:103FC800E43FF50D888289831243ABF514E439F593
:103FD800157814121AD0010000280128064007009D
:103FE8000228D24003283B400029F34101291E4200
:103FF8000229BC410329F34104299442F742E50E02
:10400800450F60030242F2850C82850D8312452D0F
:10401800E8FAE98882F583E0850A82850B831243F2
:10402800B5124362121A468A828983A3E0FCA3E090
:10403800024280E50E450F60030242F2850A82853E
:104048000B837401F0124393850882850983F07C01
:10405800007D008E828F83A3A3A3A3E02401FAA38B
:10406800E03400FB120759EA4B60458A828B83E0F3
:104078002402F8850A82850B83E028F0EA2404F8F4
:10408800E43BF98882F583E0851282851383124325
:10409800BBF08A828B83124362121A468A828B8310
:1040A800A31243A1E5082403FAE43509FB0242857B
:1040B800850A82850B83E02404F07C047D00790066
:1040C800AA12AB1312124B02434EE50E450F6003C2
:1040D8000242F2124393FEA3E0FF850A82850B8316
:1040E8007404F0EE850882850983F0EF85128285D5
:1040F8001383F074031218291244AC700302419D13
:104108008A828B83A3A3122E357401121819880E84
:10411800890F780E121A46740512180F121A5D7C50
:10412800FF7DFF12075F74041217D9EA4B703385BD
:104138000C82850D8312437D121A46850C82850DEB
:1041480083A3121A5D7C027D007AF47B81120561DB
:1041580074041217D9E9700A740112180F74FFF069
:10416800A3F08E828F83E064027034750C02750DA3
:1041780000780C121A468E828F83A31243A1E50899
:104188002404FAE41243551217D9850A82850B8351
:10419800E024028009740112180FEEF0A3EFF07406
:1041A8000112180F124373F0740112180FA312436F
:1041B8006B0242ECE50E450F60030242F2850C8269
:1041C800850D831243861243A1AA16AB1712117FDD
:1041D800850A82850B837402F0850882850983EA43
:1041E800F0851282851383EB0242EFE50E450F60DE
:1041F800030242F2124393F8A3E0F9850A82850B81
:10420800837402F0E8850882850983F0E9851282C3
:104218008513830242EF850C82850D831234381290
:10422800122DEAF8C3950EE4950F405AEA650E453B
:104238000F700478008021851882851983E0FCE5D9
:104248000E2CFCE4350FFDC3EC9AED94005003E00E
:104258008005E50EC8C398F8E8850A82850B83F0C7
:10426800F50A750B00780A121A46850C82850D83AB
:10427800E0250EFCA3E0350FFDAA08AB0912435C4C
:104288001217D902434E75100702434EE50E450F2B
:104298007058850C82850D8312452D850A82850B01
:1042A8008374071243B512436B1243B5A3E085121A
:1042B80082851383F0E82402FAE439FB8A82F583C5
:1042C80012436BA31228CC1243731229EC124377C2
:1042D800F0E82405F8500109F5828983124377A391
:1042E8001243BBA3A3A3A3F0805C75100B80577483
:1042F8001D12180F1244C3604A124533880CF50D7D
:10430800E8450D603E742512180FE0F5107810127C
:104318001A4A780E121A46780A121A467808121A99
:1043280046740712180FE0F9EEFCEFFDAA16AB175A
:10433800850C82850D8312183174071217D9E9F597
:1043480010800375100EA91074050236C2350912C3
:10435800435B22FB121233740222E0F50A750B004C
:10436800780A22E0850882850983221243C5221231
:1043780043C5A3A322E0F50E750F00780E22124361
:104388008A22E0F8A3E0F583888222850C82850DD5
:104398008312438AE0229002EF1243A522E0FCA395
:1043A800E0FD22123A4DF8E4C8F9EA2822F08882A2
:1043B800898322F088828983A31243C522E0850875
:1043C80082850983A3A32274EE12183374FE121790
:1043D800C38A088B09ECFEEDFF890AAC18AD1912E7
:1043E80044AC700302449D8518828519831244C326
:1043F8007003024498A3124532880EF50FE8450F62
:104408007003024498741412180FE0F510A3E0F535
:1044180011E50AF50B780B121A4A741912180F12C3
:104428001A5D7810121A46741B12180F123286AAD7
:1044380008AB09850E82850F83121831740512178F
:10444800D9E9F50B705274FE650A604C850C8285BB
:104458000D83E0640270411244BAFAA3E0F9EAF865
:104468007402687003742969702E8510828511831F
:104478001243ABF50CE439F50D780C121A46EEFC34
:10448800EFFDAA08AB091208DF74021217D98008D9
:10449800750B0E8003750B01A90B74021217D97FD7
:1044A8000A021905EEFAEFFB1207598A0C8B0DEA7E
:1044B8004B221245328882F583E0221230B9124429
:1044C800CA2212085B8A828B83E58245832274F6AE
:1044D80012183374FE1217C3740C12180F12452DDC
:1044E800E8851882851983F0740112180FE9F0E441
:1044F800F508F5097808121A467508027808121A9C
:10450800467404121819880889097808121A467915
:10451800FE1208C774061217D974021217D9023E80
:10452800D98E828F83124533F922A3E0F8A3E022C3
:1045380074F7121833EAFEEBFF890890030612435A
:10454800A112117FEA5402600BA908EEFAEFFB12E0
:10455800074D800279017F0102190574F2121833A0
:1045680074FE1217C3EAFEEBFF740169601374024C
:104578006960030246117901120AE3E96003024601
:1045880011EEFAEFFB1208A9EA4B60031208AFA874
:1045980018A919880889097808121A467508027531
:1045A80009007808121A467508FA75098178081200
:1045B8001A467CFF7DFF7A017B00120753740612AE
:1045C80017D9803B850882850983A3A3A3A3A3A346
:1045D8001243861243A1EEFAEFFB121167E4F50CC1
:1045E800F50D780C121A46740212180F121A5D7C17
:1045F800FF7DFFAA08AB0912075F74041217D98A56
:10460800088B09E508450970BB74021217D97F06A3
:1046180002190574F41218338A088B09ECFEEDFFB1
:10462800901606E0F460487A097B00121257EA4BAC
:10463800603D8A828B8374B1F0A3E412467A122813
:10464800CDA3E508F0A3E50912467AA3EEF0A3EF9F
:10465800F0740C12180F12452D8A828B83A3A3A322
:10466800A3A3A3A3123A5D901606E0F912126302FF
:104678002A22F08A828B83A3A3A3A322C082C083A9
:104688009061907404F0A37448F0A37402F09061F0
:10469800807440F09061BC7403F09061877419F0E5
:1046A800906265741BF0906249E0C3941390619C1A
:1046B80040107409F09060667401F090619F74284E
:1046C800800D740BF0906066E4F090619F742CF09C
:1046D8001248697009C29190037A74678005900343
:1046E8007A7461F090270EE493906186F090270821
:1046F800E493F46006E493F9120BD97905120E9746
:10470800024AD2C082C083E9540FF9906185E069FA
:104718006012E5C654B84441F5C6E59E5447644165
:1047280070F8E9F053C6B8E59E544770FA024AD2C9
:10473800C082C083A8A853A87E906181E41255471F
:10474800C2BA539AFEC289759B00C2C275E9007548
:10475800910075BF0075A91175B905906181F0A325
:1047680074C0125CCBD2BA439A0174805842A80232
:104778004AD2C082C08374F81217C3900378125FBC
:1047880060700302484A900378E054406017790843
:10479800AA18AB19120CD5AA18AB1912094B900319
:1047A80078E054BFF0E054806010790C7A477B05BC
:1047B800120CD5900378E0547FF0E0A2E050191273
:1047C80048697009C29190037A7467800590037AEA
:1047D800746112485254FEF0E0540260191248AE57
:1047E8007009D29190037A7471800590037A746A83
:1047F80012485254FDF0E05404600990270C124806
:104808005B54FBF0E05408600990270D12485B5494
:10481800F7F0E05410600990270E12485B54EFF04F
:10482800E05420600A120957900378E054DFF0A39F
:10483800E05401600D120BF712095D900379E05402
:10484800FEF074081217D9024AD2F01209519003E7
:1048580078E022E493906186F0120957900378E09B
:104868002290619A124AA6900521E0640122C08232
:10487800C083E9600514601780291248697009C26D
:104888009190037A7467801A90037A746180131286
:1048980048AE7009D29190037A7471800590037ABA
:1048A800746AF0024AD290619A124A98900521E0FF
:1048B80064012274EA12183374F41217C39081BF8A
:1048C800AC18AD1974041216D690270C93F4600333
:1048D800024A2D907808E0C394025003024A1190CE
:1048E8008138740412182974081216D6A818A91940
:1048F80088148915740412181988088909AE08AF34
:10490800097510FF7511FF750EFF7C00750C487551
:104918000D78801274086C70030249A674096C60E3
:104928007D740A6C6078850C82850D837808121670
:104938006F8E828F83A909E50AC9F5127418780861
:10494800121598E5124508F8C3E098A3E099850C7C
:1049580082850D83780812166F40188E828F8374B3
:10496800187808121598E5124508F8E0C398F8A3D6
:10497800E0801A74187808121598E5124508FAE9C3
:10498800FB8E828F83125BDFEAC398F8EB99F9C339
:10499800E89510E995115006881089118C0E0CE5E0
:1049A8000C2404F50C5002050DECC39413500302BB
:1049B800491C74FF6510700474FF65116025E50ECD
:1049C800F508740278081217B074482508F582743F
:1049D800783509F583780812166F85148285158352
:1049E800E508F0EE2402FE50010F85148285158338
:1049F800A3858214858315740C12180FE5826E70D6
:104A080003E5836F60030249097508017509007899
:104A180008121A4674021218297AC37B091211CD9A
:104A280074021217D9740C1217D97F0E021905C017
:104A380082C0839061AE7468F0A3746AF090624596
:104A480074FBF0A304F053F4FD43FE0290052174B7
:104A580001F09061A0E0643A90619A7019124AA638
:104A6800740164017009C29190037A7467801E9082
:104A7800037A74618017124A98740164017009D22C
:104A88009190037A7471800590037A746A024CC11C
:104A9800743FF0A3745AF09061A0747FF0227433CD
:104AA800F0A37455F09061A0743AF022C082C083DC
:104AB8009004D3E06401700A9004D8E06004790C93
:104AC800800279008004A2E092AFD083D0820201F4
:104AD8001FC082C08375E1F19004D6E06053146072
:104AE8000914605714604F147056120C099004C5CD
:104AF800E0F97AC67B04120E1990819712168D126E
:104B08000E4F9081D312168D120E259004D7E0F91E
:104B1800120E317901120E8B9004C3124E2F241AF3
:104B2800F582E438F5837421F0A3740CF0790080E1
:104B380099120C0F80B7120C1580B2120C1B80ADA5
:104B4800791280EB74F412183375D90D9004CCE007
:104B5800A2E0E4331313F8124D1C484401F5D9754B
:104B680082C6758304124D267004E583640470F5CB
:104B78007582CD758304124E88E58264D37004E58E
:104B880083640470F175E1959004CCE0F97ACD7BEB
:104B980004120E1F90162A74AFF0A3740B124C70F7
:104BA800124CAE124CA5124DF79004D6E064019059
:104BB80004C3700B124C0112166F90819380091276
:104BC8004C0112166F90818B78081215E39081CFF3
:104BD80078081216499004C3125ADBE438F5837832
:104BE8000812167E9004C3124E2F124C9C7413F0B8
:104BF8009003767402F0025BCC125EE8A3A37808F7
:104C080022C082C083124D0CF5D97582C675830403
:104C1800124D267004E583640470F59004DCE060AE
:104C28000A78C37904FA124DC0DAFB124DAF124D5F
:104C3800267004E583640470F59004FCE0600D7848
:104C4800C37904FAE8243A124DC3DAF875E195906D
:104C5800162A74BBF0A3740B124C70124C7A74129F
:104C6800F090037674018051124DE074B5F0A3748E
:104C78000B22124CAE124CA5124DFB9004C3125AD3
:104C8800DFE438F58374FF1255359004C3124E33B0
:104C9800124C9C222414F582E438F58322F0A37484
:104CA800CDF0A3740B22124CB222124CB622F0A300
:104CB8007435F0A3740D22F0A3F0024AD2C082C06A
:104CC80083124D0C4402F5D97582C6758304124DC2
:104CD800267004E583640470F59004DCE0600A78CB
:104CE800C37904FA124DC0DAFB75E19590162A12C1
:104CF8004D2FF0A3124D2F124C7D7414F0900376B3
:104D0800740480B59004DC124D1322E02407F5D911
:104D1800124D1C229004C5E0C4333354C022E0F580
:104D2800D9A3E58264CC2274C7124D3C124D3CF0E5
:104D3800A3740B22F0A3740BF0A374C722C082C023
:104D480083124D0C4406F5D97582C6758304124D3D
:104D5800267004E583640470F59004DCE0600A784A
:104D6800C37904FA124DC0DAFB124DAF124D26700A
:104D780004E583640470F59004FCE0600D78C37961
:104D880004FAE8243A124DC3DAF875E19590162A28
:104D980074C1F0A3740B124DD6124C7A7415F090AE
:104DA80003767403024CC19004FC124D134404F5BD
:104DB800D97582C675830422E8241AF582E439F588
:104DC80083E0F5D988828983A3A882A98322124D1A
:104DD800E07435F0A3740D22124DE422124DF174E3
:104DE80035F0A3740D124DF122124CB6F0A3221225
:104DF8004DFB22F09016387435F0A3740D124DE473
:104E08007435F0A3740D124CB2F022C082C08390A6
:104E180004C3124E2F2406F582E438F583E4024CCD
:104E2800BF851882851983124E3322E0F8A3E0C8A3
:104E38002274F71218339003A4125BD174A628F8D1
:104E4800740339F9E82405FAE439FB8A82125CB163
:104E5800A3A3A3A3A3A3A3A3A3125F47A3A3A3A34B
:104E6800A3A3A3E024FFF8A3E034FFF98A828B838D
:104E7800125F1902506D7C017903120D2974022208
:104E8800E0F5D9A3221251A83BF583E022F0EA24E9
:104E980084F582E43BF583E022EAF8EE28F8E43B67
:104EA800F9E82274F7121833EAFEEBFF9061D0E0BC
:104EB800706875D90E75D90375D9047A00124EA198
:104EC800248D124F3C40F67A00124EA12485124FD1
:104ED8003640F675E1957908EE248D124F2F24851A
:104EE800124F277C00ECF8C3E498FA95E0FBEE2A11
:104EF800FAEF3BFBEA248C125EBDC0E0EE28F8E432
:104F08003FF9E824ACF582E439F583D0E0F00CEC05
:104F1800C3940840D012502F8002790002506DFAD5
:104F2800E43FFB120CC922124F277904EE22124FDC
:104F380042940422124F42940822F582E439F58300
:104F4800E0F5D90AEAC322C082C08375D90275D9AF
:104F58000375D90575E195EA124FC73B125BDDEA87
:104F68002471F582E43B12503C024AD274F61218BE
:104F780033EAFEEBFF9005277406124FD6121A4645
:104F8800124E7E1217D975D90675D9037582277501
:104F98008305124FCD7004E583640570F575E195BE
:104FA800900376E064087011124FC63F125BDDEE85
:104FB8002471F582E43F125F17790102511BEE2438
:104FC8006FF582E422E0F5D9A3E582642C22F0751E
:104FD800082775090578082274F6121833EAFEEBDB
:104FE800FF9061D0E070337801900527740BF09042
:104FF8000376E064077013750827750905780812A9
:105008001A46124E7E1217D97805125293124E88FC
:10501800DAFB75E19512502F8002790002511B7559
:10502800E1957904120E55EE246F125F66EE247135
:10503800F582E43FF583E8F0A3E9F079012274F7FB
:10504800121833EAFEEBFF75D90375D90375D90D2C
:10505800EA24DF125DAAF5D91250278008F0EEA2E3
:10506800E092AF79007F01021905E8C39A95E0C381
:1050780065D0332274F612183312519C60047A0FEB
:1050880080027A0B12507240437C09900527EC127B
:1050980050ED1250FCDDFB125DA7601975082775ED
:1050A80009057808121A467903EEFAEFFB124E82C8
:1050B8001217D97C0D1250D812519370FB75E195D7
:1050C8007904120E5512521C79018002790080432E
:1050D8001250DE8C082274012CF5D975D90375821B
:1050E8002775830522F0EE24E4F8E43FF97A287B5B
:1050F800057D082288828983E08A828B83125F4F2C
:10510800A3A882A9838A828B83A3AA82AB8322A2C3
:10511800E092AF7F0202190574F612183312519CFF
:1051280060047A0C80027A08125072405A7806900D
:105138000527740CF0900393E0900528F0900394F1
:10514800E0900529F0900395E090052AF0900396E9
:10515800E090052BF0900397E090052C12523060F8
:10516800197508277509057808121A467C06790307
:10517800EEFA124E821217D9780A12522A12519355
:1051880070FB125027800279008088E0F5D9A315BA
:1051980008E50822EAFEEBFF1251A83FF583E0225A
:1051A8009061D0E0F87480C398F8EA2484F582E42A
:1051B8002274F612183312519C60047A0880027A1D
:1051C8000412507240497802900527E8F0EE24F660
:1051D800125DAA90052812523060197508277509C2
:1051E800057808121A467C027903EEFA124E8212EA
:1051F80017D9780612522A12519370FB75E195124D
:10520800521C7904120E55EE240D12503280027988
:105218000002511BEE241DF582E43FF583E4F0A360
:10522800F022125299880822F0EE2484F582E43F95
:10523800F583E02274F6121833124E8D60047C0850
:1052480080027C04E8C39C125075403A78029005AD
:10525800277407F0EA24F7125EBD900528124E95D0
:1052680060157508277509057808121A467C021218
:105278004E801217D97806125293124E88DAFB75AF
:10528800E19579018002790002511B125299E8FADE
:1052980022740128F5D975D90375822775830522EB
:1052A80074F6121833E9FEA2AFE433FDC2AF7C00F6
:1052B80080010C125EBAF8ECC3985014ECF8EA12AC
:1052C8004EA4246AF582E439F583E06E70E4801810
:1052D800EA246EF8E43BF9E0F508EA2508FAE43B2D
:1052E800FB125381EE125438ED02511774F612185E
:1052F80033EAFCEBFDA2AFE433F508C2AFEA246E53
:10530800F582E43DF583E014F0EA246AFAE43DFB13
:10531800EA2403F8E43BF9E8FEE9FF8A828B83A3D9
:10532800A882A983E08A828B83F0E8FAE9FBEE6A17
:105338007002EF6B70E5EC246DF582E43DF5837443
:10534800FFF0EC2469F582E43DF583E4F0E508021A
:105358005117C082C083A2AFE433F8C2AF125381A1
:10536800E9F0EA2469F582E43BF583E4F0125EBAD9
:1053780070037401F0E8024ACEEA246AF582E43B3D
:10538800F5832274F3121833EAFEEBFFECFAEDFB17
:105398008C82F583A3A3A3A3E0541FF0EE2436F573
:1053A80082E43FF583E4F0750800EE245DFCE43FF9
:1053B800FD8A828B83E08C828D83F0750900E50875
:1053C80033333354F8F50C8A828B83E0F50A750B76
:1053D80000E509780A121791E50AA2E05027EE24A1
:1053E80036F8E43FF98882F583E0F50AEE250AF5F8
:1053F8000AE43FF50BE50A2438F582E4350BF5831A
:10540800E50C1254380509050CE509C3940840B7A2
:1054180005088A828B83A3AA82AB838C828D83A39F
:10542800AC82AD83E508C3940540867F0502190563
:10543800125F4FE004F022C082C0839003A2E064B0
:1054480001700302552D7C009003A8E0600302550B
:105458002D125CC9A3F090040804F090040DF0909C
:1054680003AB1255349003B504F09003DBE4F090DD
:1054780003BE12553BA3F0900426F090041AF09056
:105488000429F090040E7480125CCB900414F09000
:10549800049212554D90049BF090042AF090047ADF
:1054A80012554DA3F0A3F0900486F0900488F09074
:1054B8000484F090049E12554D9004B1F09004AB12
:1054C80012553B74FF9004107804F0A3D8FC7A03BB
:1054D8007B0478B679041250FCE864BB7003E96475
:1054E8000470F3788A790388828983E0C0E0ECFA53
:1054F800748A2AF582E43404F583D0E0F00C8882BB
:105508008983A3A882A983ECC3940840DA9003A2F4
:10551800E004F0640170089003AAE09003A4F07A14
:10552800A67B0380047A007B00024AD2E412554726
:10553800A3F02212553F22125547A312554722F0D5
:10554800A3F0A3F02212553FA3F0A3F022C082C01B
:10555800838A828B83A3A3A3E0600F8A828B83A3B1
:10556800A3A3E4F09003A3E014F09003A2E014F0E6
:1055780070069003A474FFF08A828B83A3A3E4F0DF
:105588009004BBE0700D9003A3E0640170057900FE
:10559800120E37024AD2C082C0839003A9E4F09069
:1055A80003A8F09003A2F0A3F0A374FFF075E1F153
:1055B800024AD274E812183374F41217C385188299
:1055C800851983EAF0A3EB125B5D125B071216994B
:1055D800740212180F1216A588828983A3A3A3A3A5
:1055E800A3A3125BDF740612180F125F197424123A
:1055F800180F121A59740612180F12168D12245900
:1056080074041217D9E96003025A68125B31121A3E
:1056180059742812180F12168D1224B57404121713
:10562800D98A088B098C0A8D0B125B4670030259C4
:105638000A124E292475F582E438F583C082C083A6
:10564800851882851983125AFBA3125BDFD083D099
:1056580082E0C398F50CA3E099F50D125B4664024D
:105668008518828519837008125ADBE83401800393
:10567800125AF1F583E0F510A3E0F511850C1485B5
:105688000D15751600751700E4F512F513781479E1
:10569800101214A9740812180F781412167E125BCF
:1056A80031781012166F740812180F78101215E35B
:1056B8007810121A42742812180F12168D122459D3
:1056C80074041217D9E9700302590A8518828519DA
:1056D80083E0125AD1F583E0F510A3E0F511E4F563
:1056E80012F513740812180F780812161D78087925
:1056F800101215D09081A378081215E3851014852F
:10570800111585121685131778087914121529852D
:105718000814850915850A16850B1778147910124F
:1057280014A9E50C2508FEE50D3509FF125EF57490
:105738000812180FC082C083124E292478F582E41B
:1057480038F583125AE9E4F50AF50BD083D082784C
:10575800081215E3780879141215D0125B46640113
:10576800600302595D851882851983E02477FCA3BC
:10577800E03400FD851882851983E0FAA3E0FB1266
:105788000CAB124E29125B182420125B89241CF5DD
:1057980082E438F583E4125B93241DF582E438F53E
:1057A80083E4F0A3125B932407125B1A125AC8E031
:1057B80028F8A3E039125B24240B125B89247A129F
:1057C8005B1A242EF582E43AF583E0687003A3E0BF
:1057D800697042851882851983E0247EF582E43A4F
:1057E800125B1E2432F582E43AF583E0687003A365
:1057F800E0697021851882851983E0247CF582E4AC
:105808003A125B1E2430F582E43AF583E0687003AF
:10581800A3E069605F124E29247EF582E438F5839F
:10582800E0F50CA3E0F50D7404780C1217A1780CC0
:10583800121A46740212180F124E2F247CF582E4B5
:1058480038F583121A5D740412180F124E2F247A39
:10585800F582E438F583E0FCA3E0C313FDEC13FC08
:10586800740412180F125AFBE0FA7B001209B17483
:10587800041217D9851882851983E0242EF8A3E02D
:105888003400F9E8FAE9FB8882125BDD8518828525
:105898001983E0FCA3E0CC240EF582EC3401125B02
:1058A8008D2477F582E438F583E0C0E0124E292490
:1058B8002BF582E438F583D0E0125B5D125AD112E1
:1058C8005F3BECF0A3ED125B93125B182430125B84
:1058D80089247E125B1A2432125B75121738125B08
:1058E80025246F125B75121738EA4B600A124E298D
:1058F800124FC738125D66124E29125B547402F0BB
:105908008053851882851983E0242EFAA3E0340099
:105918008A82F583E0F50CA3E0F50DE4F50EF50FAA
:105928007808790C1215D09081A378081215E385B0
:105938000C10850D11850E12850F13780879101239
:105948001529AE08AF09125EF5E4F50AF50B7808DB
:10595800790C1214A9125EDE125BDFE8FAE988827C
:10596800F583A3A3A3A3A3A3A3A385080C85090D6B
:10597800850A0E850B0F780C1215E3740212180FA6
:10598800780C12167E8A828983E064407073124E06
:10599800292418F582E438F583780812167E8518CC
:1059A80082851983E02412F508A3E03400F509780C
:1059B80008121A46740212180F124E2F2410F5827C
:1059C800E438F583121A5DEE24FFF50AEF34FFF58B
:1059D8000B780A121A46740612180F125AF1F58338
:1059E800E0F50AA3E0AA0AFBE4FCFD1225F574061B
:1059F8001217D9AC08AD0974021218211225338088
:105A080009740612180FE4F0A3F08518828519832B
:105A1800E0125B07E82408FCE439FD74061216D688
:105A2800740212180FC082C083125EDEE02402FCEA
:105A3800A3E03400FDD083D08274061216D6124E2D
:105A4800292435F582E438F583E0C0E0124E292494
:105A580034F582E438F583D0E0125B6EFB121C1D2E
:105A6800124E29240BF582E438F583C082C08312D4
:105A78004E292407F582E438125BDDD083D082E01A
:105A8800C398F8A3E099125B24125ABEE8F0A3E980
:105A9800125B6ECA125AC8C3E098A3E099500D85EC
:105AA8001882851983E0125ABE125CC9740C121749
:105AB800D97F10021905240CF582EA3401F58322F6
:105AC800240DF582E43AF58322247AF8A3E0340021
:105AD800888222125ADF22E0F8A3E0C8240EF58259
:105AE80022E0F508A3E0F50922124E33242EF582B0
:105AF800E43822125AFF22125EECA3A3A3A322F8D1
:105B0800A3E0F5838882125F6C8882F583A3A322C1
:105B1800247CF582E438F583E0F8A3E0F98518825F
:105B2800851983E0FAA3E0CA2285188285198312B1
:105B38005EE8124E332408F582E438F5832285188E
